:100000000C94C3000C94EB000C94EB000C94C6050C
:100010000C9401070C945B070C94EB000C94EB0020
:100020000C94EB000C94EB000C94EB000C94EB00A4
:100030000C94EB000C94EB000C94EB000C94EB0094
:100040000C9442090C94EB000C94B40A0C94F70A3B
:100050000C94EB000C94EB000C94EB000C94EB0074
:100060000C94EB000C94EB00EF07320832083208D6
:1000700032083208010811082108320832088D07B9
:100080009D07AF07BF07CF07DF0700C201000100D0
:10009000110011000C0000E100000A0025002500FD
:1000A0002100009600001900390039003600127A4C
:1000B00000001F004600460044008070000022003F
:1000C0004D004D004A00004B0000360075007500E1
:1000D0007200403800004A009C009C009900802576
:1000E00000007200EC00EC00E900C0120000E90022
:1000F000DA01DA01D70160090000D701B603B603BF
:10010000B303B0040000B3036E076E076B07580219
:1001100000006E07DC0EDC0ED80E2C010000DC0E99
:10012000C11DC11DBE1D000000070002010000032B
:100130000406000000000000000001020408102076
:100140004080010204081020010204081020040469
:10015000040404040404020202020202030303036F
:100160000303000000002300260029000000000017
:10017000250028002B0000000000240027002A0092
:100180002D02B30B430211241FBECFEFD8E0DEBF18
:10019000CDBF11E0A0E0B1E0E6E3FBE102C00590D5
:1001A0000D92A03AB107D9F713E0A0EAB1E001C07F
:1001B0001D92A830B107E1F711E0C4E8D1E004C016
:1001C0002297FE010E94760DC038D107C9F70E9420
:1001D000090C0C948E0D0C94000062E08BE00E94E0
:1001E0008D0862E089E00E948D0862E083E00E9451
:1001F0008D0840E056E960E070E086EC91E00E94F6
:10020000B90340E855E260E070E08EE592E00C94BE
:10021000320B83E00E94FC089093A5018093A40117
:1002200089E00E94FC089093A7018093A6018BE0CF
:100230000E94FC089093A3018093A2018130910554
:10024000B9F49093A1018093A00165E070E080E093
:1002500090E00E94BB0964E071E08EE592E00E94AC
:10026000540C6091A0017091A1014AE050E014C0CB
:1002700065E070E080E090E00E94BB0964E071E01E
:100280008EE592E00E94540C1092A1011092A00100
:100290004AE050E060E070E08EE592E00E94260DBA
:1002A00061E171E08EE592E00E94540C6091A6013C
:1002B0007091A7014AE050E08EE592E00E94260D81
:1002C0006BE171E08EE592E00E94540C6091A40114
:1002D0007091A5014AE050E08EE592E00E94260D63
:1002E00082E10E9425099093B3018093B20165E0F9
:1002F00070E080E090E00E94BB0983E10E94250944
:100300009093AF018093AE0165E070E080E090E0F3
:100310000E94BB0984E10E9425099093B10180935A
:10032000B00165E070E080E090E00E94BB0965E20A
:1003300071E08EE592E00E94540C6091AE017091E4
:10034000AF014AE050E08EE592E00E94260D64E3A2
:1003500071E08EE592E00E94540C6091B2017091C0
:10036000B3014AE050E08EE592E00E94260D67E47A
:1003700071E08EE592E00E94540C6091B0017091A2
:10038000B1014AE050E08EE592E00E94260D80EC3B
:1003900091E00E94A6049093AD018093AC0165E0CA
:1003A00070E080E090E00E94BB0980EC91E00E9448
:1003B000A6049093AB018093AA0165E070E080E011
:1003C00090E00E94BB0980EC91E00E94A60490930B
:1003D000A9018093A80165E070E080E090E00E94B0
:1003E000BB0967E571E08EE592E00E94540C6091D4
:1003F000AC017091AD014AE050E08EE592E00E94C0
:10040000260D65E671E08EE592E00E94540C609145
:10041000AA017091AB014AE050E08EE592E00E94A3
:10042000260D64E771E08EE592E00E94540C609125
:10043000A8017091A9014AE050E08EE592E00E9487
:10044000260D62E771E08EE592E00E94710C68EC87
:1004500070E080E090E00C94BB0986EC91E00E9493
:100460008A0365E170E080EC91E00E949C0461E108
:1004700070E08AEB91E00E949C0460E170E084EB04
:1004800091E00C949C0486EC91E00C94950490917E
:10049000E2018091E301981789F0E091E201F0E038
:1004A000EC51FE4F80812091E20130E02F5F3F4F01
:1004B0002F7333272093E20190E008958FEF9FEF91
:1004C00008958091E3012091E20190E0805C9F4FCC
:1004D000821B910960E470E00E943E0D08958FB781
:1004E000F8941092E3011092E2018FBF0895909169
:1004F000E2018091E301981751F0E091E201F0E010
:10050000EC51FE4F8081992787FD909508958FEFDC
:100510009FEF089520E001972FEF8F3F9207D9F7C3
:100520000895EF92FF920F931F93CF93DF93EC0107
:100530008B899C890E948A0208E010E0EE24E394F3
:10054000F12C8D899E890E948A02EE85FF8580812B
:100550009D85892311F0FE2803C08E2D8095F822F9
:10056000EE0C015011090115110559F78F89988D6D
:100570000E948A028091E3012091E20190E00196BD
:100580008F73992730E08217930779F0E091E301A8
:10059000F0E0EC51FE4FF0828091E30190E0019693
:1005A0008F7399278093E30103C08B8D81608B8FBC
:1005B000DF91CF911F910F91FF90EF900895DC0193
:1005C0005196ED91FC91529750969C91611105C006
:1005D0002081892F8095822302C08081892B80838E
:1005E0000895DF92EF92FF920F931F93CF93DF93C3
:1005F000EC01D62E898D9A8D892B39F481E090E01B
:100600009B838A8380E090E036C0EFB6F894E98956
:10061000FA8990818889809589238083898D9A8D34
:1006200005960E948A0208E010E0FF24F3948F2DC3
:100630008D2129F061E0CE010E94DF0207C0E98927
:10064000FA8990818889809589238083898D9A8D04
:100650000E948A02FF0C015011090115110539F79A
:1006600061E0CE010E94DF02EFBE898D9A8D0E946B
:100670008A0281E090E0DF91CF911F910F91FF906E
:10068000EF90DF9008951F93CF93DF93EC01162F27
:1006900061E0812F0E948D0861E0812F0E94C608D1
:1006A000812F90E0FC01E65CFE4FE491E88BFC01B9
:1006B000E25BFE4FE491F0E0EE0FFF1FE459FE4FC6
:1006C000859194919A8B898BDF91CF911F91089599
:1006D0001F93CF93DF93EC01162F60E0812F0E94D0
:1006E0008D081C87612F70E0FB01E65CFE4FE491F2
:1006F000ED87FB01E25BFE4FE491F0E0EE0FFF1FA0
:10070000EE59FE4F859194919F878E87DF91CF910F
:100710001F910895CF93DF93EC011B821A8248EE5C
:1007200053E060E070E04C835D836E837F8384E8F8
:1007300091E0998388831C8A1B8A1E8A1D8A188EE1
:100740001F8A1A8E198E8B8D8E7F8B8F64E08FE0BF
:1007500090E00E948307D0932502C09324026EE0AC
:10076000CE010E9443036FE0CE01DF91CF910C9444
:1007700068030F931F93CF93DF93DC015A961C926B
:100780001E92599758961C921E92579756961C92F5
:100790001E925597CAE8D0E080E090E0FE010591F6
:1007A000159125913491041715072607370759F538
:1007B0004CE0489F9001499F300D1124F901E25708
:1007C000FF4F8591949154969C938E935397F90182
:1007D000E057FF4F8591949156969C938E93559731
:1007E000F901EE56FF4F8591949158969C938E9304
:1007F00057972C563F4FF901859194915A969C93A7
:100800008E9359970AC001962C968D30910509F068
:10081000C5CF54961C921E92539757968D919C91DA
:100820005897892B09F44DC01C968C911C978631E2
:10083000F0F520916800883050F091E08E3008F497
:1008400090E081E001C0880F9A95EAF701C084E04A
:10085000822B809368001C962C911C97283038F0CE
:100860002E3040F0263148F0E0E0F0E008C0EDE640
:10087000F0E005C0EBE6F0E002C0ECE6F0E030812D
:10088000283030F481E001C0880F2A95EAF70DC0C6
:10089000822F90E02E3010F4089701C00E9791E05F
:1008A00001C0990F8A95EAF7892F832B8083599687
:1008B0008D919C915A97DF91CF911F910F910C943C
:1008C0008A02DF91CF911F910F910895FC01448519
:1008D000463150F5483028F04E3030F4EBE6F0E089
:1008E00005C0EDE6F0E002C0ECE6F0E050814830F3
:1008F00040F481E090E0042E01C0880F0A94EAF7EA
:1009000010C0242F30E04E3018F42850310902C0B6
:100910002E50310981E090E0022E01C0880F0A9428
:10092000EAF7809585238083089524E831E0FC016F
:10093000318320830C946604FC01718360838FEF04
:100940009FEF93838283958384830895FC01808144
:100950000C942509CF92DF92EF92FF92E82FF0E0FE
:10096000DF01AA5DBD4F8C918230F9F078F48130BF
:1009700009F052C0EE0FFF1FE15CFD4F0190F081C6
:10098000E02DFF90EF90DF90CF900994833021F11C
:10099000843009F041C08091240290912502FF909B
:1009A000EF90DF90CF900C949102C0903702D090DE
:1009B0003802E0903902F0903A020E94980922E34E
:1009C000C20ED11CE11CF11CC616D706E806F906BA
:1009D00018F560E070E016C0C0903B02D0903C0279
:1009E000E0903D02F0903E020E94980922E3C20E80
:1009F000D11CE11CF11CC616D706E806F90660F406
:100A000061E070E08091530290915402FF90EF906A
:100A1000DF90CF900C943308FF90EF90DF90CF9051
:100A20000895CF93C82F8091020181FF02C0C1FFBA
:100A300046C08091020181FD2CC0C1FF2AC0809177
:100A40002D02823051F40E9498096093370270930E
:100A500038028093390290933A0280912D028330BC
:100A600051F40E94980960933B0270933C0280937A
:100A70003D0290933E0280912D02813051F40E94FC
:100A80008C09609333027093340280933502909303
:100A900036028091020182FF16C0C2FD14C088E0B8
:100AA0000E94AA048091020183FF3EC0C3FD3CC0A6
:100AB00089E00E94AA04C0930201CF91089587E0C3
:100AC0000E94AA04E6CF8091020182FDEBCFC2FF13
:100AD000E9CF80912E02823051F40E9498096093F0
:100AE0003702709338028093390290933A028091D2
:100AF0002E02833051F40E94980960933B02709358
:100B00003C0280933D0290933E0280912E02813000
:100B100049F60E948C0960933302709334028093EB
:100B2000350290933602BECF8091020182FDC3CF81
:100B3000C2FFC1CF80912F02823051F40E949809E8
:100B400060933702709338028093390290933A028F
:100B500080912F02833051F40E94980960933B02E8
:100B600070933C0280933D0290933E0280912F024D
:100B7000813009F0A0CF0E948C09609333027093FA
:100B80003402809335029093360295CF1F920F92D4
:100B90000FB60F9211242F933F934F935F936F9350
:100BA0007F938F939F93AF93BF93EF93FF9393B1F3
:100BB0008091320289230E941105FF91EF91BF912C
:100BC000AF919F918F917F916F915F914F913F91E5
:100BD0002F910F900FBE0F901F901895CF93C82F95
:100BE0008091010180FF02C0C0FF53C080910101CC
:100BF00080FD1EC0C0FF1CC080912602823051F4CF
:100C00000E948C09609337027093380280933902F6
:100C100090933A0280912602833051F40E948C090D
:100C200060933B0270933C0280933D0290933E029E
:100C30008091010181FF31C0C1FD2FC081E00E9480
:100C4000AA048091010182FF4CC0C2FD4AC082E02B
:100C50000E94AA048091010183FF67C0C3FD65C0A3
:100C600083E00E94AA048091010184FF82C0C4FD38
:100C700080C084E00E94AA048091010185FF9DC08C
:100C8000C5FD9BC085E00E94AA04C0930101CF91DD
:100C9000089580E00E94AA04CBCF8091010181FDDC
:100CA000D0CFC1FFCECF80912702823051F40E9475
:100CB0008C096093370270933802809339029093C5
:100CC0003A0280912702833009F0BBCF0E948C0941
:100CD00060933B0270933C0280933D0290933E02EE
:100CE000B0CF8091010182FDB5CFC2FFB3CF80911B
:100CF0002802823051F40E948C096093370270936D
:100D000038028093390290933A028091280283300E
:100D100009F0A0CF0E948C0960933B0270933C02C3
:100D200080933D0290933E0295CF8091010183FD17
:100D30009ACFC3FF98CF80912902823051F40E944C
:100D40008C09609337027093380280933902909334
:100D50003A0280912902833009F085CF0E948C09E4
:100D600060933B0270933C0280933D0290933E025D
:100D70007ACF8091010184FD7FCFC4FF7DCF809128
:100D80002A02823051F40E948C09609337027093DA
:100D900038028093390290933A0280912A0283307C
:100DA00009F06ACF0E948C0960933B0270933C0269
:100DB00080933D0290933E025FCF8091010185FDBB
:100DC00064CFC5FF62CF80912B02823051F40E9424
:100DD0008C096093370270933802809339029093A4
:100DE0003A0280912B02833009F04FCF0E948C0988
:100DF00060933B0270933C0280933D0290933E02CD
:100E000044CF1F920F920FB60F9211242F933F934E
:100E10004F935F936F937F938F939F93AF93BF9302
:100E2000EF93FF9396B18091310289230E94EE05E2
:100E3000FF91EF91BF91AF919F918F917F916F91B2
:100E40005F914F913F912F910F900FBE0F901F9088
:100E50001895CF93C82F8091000183FF02C0C3FF74
:100E600026C08091000183FD1EC0C3FF1CC080917D
:100E70002C02823051F40E948C09609337027093E7
:100E800038028093390290933A0280912C02833089
:100E900051F40E948C0960933B0270933C02809352
:100EA0003D0290933E02C0930001CF91089586E0E9
:100EB0000E94AA04F8CF1F920F920FB60F9211242E
:100EC0002F933F934F935F936F937F938F939F9352
:100ED000AF93BF93EF93FF9399B180913002892331
:100EE0000E942907FF91EF91BF91AF919F918F9140
:100EF0007F916F915F914F913F912F910F900FBE16
:100F00000F901F90189503978131910508F0AAC0A2
:100F10008C5C9F4FFC010C94740D80916C0081607F
:100F200080936C0080916800826080936800609379
:100F300026028091310281600FC080916C00826036
:100F400080936C0080916800826080936800609359
:100F5000270280913102826080933102089580914E
:100F60006C00846080936C00809168008260809344
:100F7000680060932802809131028460EDCF8091F7
:100F80006C00886080936C00809168008260809320
:100F9000680060932902809131028860DDCF8091E2
:100FA0006C00806180936C00809168008260809307
:100FB000680060932A02809131028061CDCF8091D8
:100FC0006C00806280936C008091680082608093E6
:100FD000680060932B02809131028062BDCF8091C6
:100FE0006D00886080936D008091680084608093BC
:100FF000680060932C0280913002886080933002F8
:10100000089580916B00826080936B0080916800EE
:1010100081608093680060932D028091320282602B
:101020001FC080916B00846080936B00809168008A
:1010300081608093680060932E0280913202846008
:101040000FC080916B00886080936B008091680076
:1010500081608093680060932F02809132028860E3
:101060008093320208950F931F93FC01611571055F
:10107000B1F06130710529F50185112707FD109543
:10108000212F312F4481558166817781400F511F77
:10109000621F731F448355836683778312C0008564
:1010A000112707FD1095212F312F40815181628139
:1010B0007381400F511F621F731F408351836283EE
:1010C00073831F910F910895833081F028F481304C
:1010D00099F08230A1F008958630A9F08730B9F0F8
:1010E0008430D1F4809180008F7D03C08091800096
:1010F0008F7780938000089584B58F7702C084B580
:101100008F7D84BD08958091B0008F7703C080915A
:10111000B0008F7D8093B0000895CF93DF9390E06F
:10112000FC01E65CFE4F2491FC01E25BFE4F8491E2
:10113000882349F190E0880F991FFC01EA58FE4F7F
:10114000A591B49184599E4FFC01C591D4919FB74C
:10115000611108C0F8948C91209582238C9388812A
:1011600082230AC0623051F4F8948C91322F30956A
:1011700083238C938881822B888304C0F8948C917C
:10118000822B8C939FBFDF91CF9108950F931F9374
:10119000CF93DF931F92CDB7DEB7282F30E0F90150
:1011A000EA5DFE4F8491F901E65CFE4F1491F9016E
:1011B000E25BFE4F04910023C9F0882321F069838C
:1011C0000E9464086981E02FF0E0EE0FFF1FE459F0
:1011D000FE4FA591B4919FB7F8948C91611103C013
:1011E0001095812301C0812B8C939FBF0F90DF91BD
:1011F000CF911F910F910895CF93DF93282F30E067
:10120000F901EA5DFE4F8491F901E65CFE4FD4914D
:10121000F901E25BFE4FC491CC2391F081110E9451
:101220006408EC2FF0E0EE0FFF1FEE59FE4FA59182
:10123000B4912C912D2381E090E021F480E002C054
:1012400080E090E0DF91CF9108958E3008F08E50CD
:1012500087702091030190E4299F90011124822B33
:1012600080937C0080917A00806480937A008091E2
:101270007A0086FDFCCF809178002091790090E083
:10128000922B08951F920F920FB60F9211242F9355
:101290003F938F939F93AF93BF938091560290910A
:1012A0005702A0915802B09159023091550223E0A3
:1012B000230F2D3720F40196A11DB11D05C026E88E
:1012C000230F0296A11DB11D209355028093560253
:1012D00090935702A0935802B093590280915A02FA
:1012E00090915B02A0915C02B0915D020196A11DFC
:1012F000B11D80935A0290935B02A0935C02B0935D
:101300005D02BF91AF919F918F913F912F910F906F
:101310000FBE0F901F9018952FB7F894609156024A
:101320007091570280915802909159022FBF0895F1
:101330003FB7F89480915A0290915B02A0915C02B1
:10134000B0915D0226B5A89B05C02F3F19F001960C
:10135000A11DB11D3FBF6627782F892F9A2F620FDD
:10136000711D811D911D42E0660F771F881F991F17
:101370004A95D1F70895CF92DF92EF92FF92CF93E3
:10138000DF936B017C010E949809EB01C114D10429
:10139000E104F10479F00E9498096C1B7D0B683E12
:1013A0007340A0F381E0C81AD108E108F108C851E0
:1013B000DC4FECCFDF91CF91FF90EF90DF90CF909B
:1013C0000895789484B5826084BD84B5816084BDBD
:1013D00085B5826085BD85B5816085BDEEE6F0E0AE
:1013E000808181608083E1E8F0E01082808182600A
:1013F0008083808181608083E0E8F0E0808181608B
:101400008083E1EBF0E0808184608083E0EBF0E0BA
:10141000808181608083EAE7F0E08081846080835E
:101420008081826080838081816080838081806808
:1014300080831092C1000895FC0124853585F9014F
:10144000E05CFF4F80819181F901EE5BFF4F2081CD
:101450003181821B930B8F7399270895FC0184853A
:101460009585FC01E05CFF4F40815181FC01EE5B02
:10147000FF4F208131814217530741F00190F081E5
:10148000E02DE80FF91F808190E008958FEF9FEF26
:101490000895FC0184859585FC01E05CFF4F408147
:1014A0005181FC01EE5BFF4F2081318142175307D0
:1014B00079F0A081B181A80FB91F8C912081318171
:1014C0002F5F3F4F2F7333273183208390E00895A0
:1014D0008FEF9FEF0895FC0181A1882329F0A48953
:1014E000B5898C9186FFFBCF11A20895CF93DF932E
:1014F000FC0126853785D901A05CBF4F8D919C9159
:10150000119701968F739927E901CE5BDF4F4881D0
:10151000598184179507D9F30D90BC91A02DA20F86
:10152000B31F6C93A685B785A05CBF4F11969C93A3
:101530008E93A689B7892C9181E090E0078C02C038
:10154000880F991F0A94E2F7282B2C9381E081A33E
:101550000488F589E02D80818064808381E090E0BB
:10156000DF91CF91089508951F920F920FB60F92B9
:1015700011242F933F934F938F939F93EF93FF9358
:101580008091C00082FD1CC04091C6008091040380
:101590009091050301968F7399272091060330914E
:1015A00007038217930771F0E0910403F09105039C
:1015B000EC53FD4F4083909305038093040302C0D6
:1015C0008091C600FF91EF919F918F914F913F9134
:1015D0002F910F900FBE0F901F9018958EE592E0FF
:1015E0000E941C0A892B11F00C94B30A08951F92D3
:1015F0000F920FB60F9211242F933F938F939F93C7
:10160000EF93FF932091C0023091C1028091C202FA
:101610009091C3022817390731F48091C1008F7D62
:101620008093C10014C0E091C202F091C302E0585F
:10163000FD4F20818091C2029091C30201968F7369
:1016400099279093C3028093C2022093C600FF9112
:10165000EF919F918F913F912F910F900FBE0F901F
:101660001F901895CF92DF92EF92FF92CF93DF9366
:10167000EC016A017B01411581EE58076105710596
:10168000F9F0EC89FD8981E090E008A002C0880FA4
:10169000991F0A94E2F7808360E079E08DE390E09F
:1016A000A70196010E94520D2150310941095109AB
:1016B0005695479537952795211580E1380798F07D
:1016C000EC89FD89108260E874E88EE190E0A70162
:1016D00096010E94520D2150310941095109569538
:1016E000479537952795E889F9893083EA89FB89F9
:1016F000208319A2EE89FF89408181E090E09C015E
:101700000C8C02C0220F331F0A94E2F7422B408355
:10171000EE89FF8940819C010D8C02C0220F331F8E
:101720000A94E2F7422B4083EE89FF8940819C01B5
:101730000E8C02C0220F331F0A94E2F7422B408323
:10174000EE89FF8920810F8C02C0880F991F0A94AF
:10175000E2F7809582238083DF91CF91FF90EF9015
:10176000DF90CF900895109261021092600288EE8F
:1017700093E0A0E0B0E08093620290936302A093B4
:101780006402B093650284E991E090935F028093D4
:101790005E0284EC92E090936B0280936A0280E890
:1017A00092E090936D0280936C0285EC90E09093B0
:1017B0006F0280936E0284EC90E0909371028093AC
:1017C000700280EC90E0909373028093720281EC3F
:1017D00090E0909375028093740282EC90E0909375
:1017E00077028093760286EC90E090937902809362
:1017F000780284E080937A0283E080937B0287E022
:1018000080937C0285E080937D0281E080937E025C
:1018100008950E94E1090E94ED00CEEEDAE00E94F8
:1018200009012097E1F30E94EE0AF9CFCF92DF92EF
:10183000EF92FF920F931F93CF93DF936C017A0186
:10184000EB01E60EF71E00E010E0CE15DF0561F0BB
:101850006991D601ED91FC910190F081E02DC601D6
:101860000995080F191FF1CFC801DF91CF911F9182
:101870000F91FF90EF90DF90CF9008956115710563
:1018800081F0DB010D900020E9F7AD0141505109D5
:10189000461B570BDC01ED91FC910280F381E02D9A
:1018A000099480E090E008950C943E0CDC01ED91E9
:1018B000FC910190F081E02D09940F931F93CF9339
:1018C000DF93EC016DE00E94560C8C016AE0CE01C2
:1018D0000E94560C800F911FDF91CF911F910F91A5
:1018E00008950F931F93CF93DF93EC010E943E0C5A
:1018F0008C01CE010E945D0C800F911FDF91CF9172
:101900001F910F9108958F929F92AF92BF92CF92A5
:10191000DF92EF92FF920F931F93CF93DF93CDB798
:10192000DEB7A1970FB6F894DEBF0FBECDBF7C0126
:10193000C42EE52FCB01D22E19A221E02D1510F0D7
:101940002AE0D22E8E010F5D1F4F8D2C912CA12CE1
:10195000B12C6C2D7E2FA50194010E94520D8C2D6F
:10196000D29E80191124015011098A3014F4805D2F
:1019700001C0895CF80180832115310541055105BD
:1019800021F0C22EE32FCA01E4CFB801C7010E94A3
:101990003E0CA1960FB6F894DEBF0FBECDBFDF910F
:1019A000CF911F910F91FF90EF90DF90CF90BF905C
:1019B000AF909F908F900895CF92DF92EF92FF9219
:1019C0000F931F93CF93DF93EC016A017B012115E5
:1019D000310579F4E881F9810190F081E02D642FDF
:1019E000DF91CF911F910F91FF90EF90DF90CF90FB
:1019F00009942A303105E9F477FF1AC06DE20E949C
:101A0000560C8C0144275527BA014C195D096E0903
:101A10007F092AE0CE010E94830C800F911FDF9185
:101A2000CF911F910F91FF90EF90DF90CF9008958D
:101A30002AE0B701A601CE01DF91CF911F910F914E
:101A4000FF90EF90DF90CF900C94830C0F931F9337
:101A5000CF93DF93EC019A01AB01662757FD6095A8
:101A6000762F0E94DC0C8C01CE010E945D0C800F51
:101A7000911FDF91CF911F910F91089597FB072E32
:101A800016F4009407D077FD09D00E947A0D07FC68
:101A900005D03EF4909581959F4F0895709561957E
:101AA0007F4F0895A1E21A2EAA1BBB1BFD010DC09A
:101AB000AA1FBB1FEE1FFF1FA217B307E407F507FE
:101AC00020F0A21BB30BE40BF50B661F771F881FDA
:101AD000991F1A9469F760957095809590959B0170
:101AE000AC01BD01CF010895EE0FFF1F0590F491E9
:101AF000E02D0994AA1BBB1B51E107C0AA1FBB1F05
:101B0000A617B70710F0A61BB70B881F991F5A9589
:101B1000A9F780959095BC01CD01089511E0C4E826
:101B2000D1E004C0FE010E94760D2296C638D1078E
:061B3000C9F7F894FFCF95
:101B3600083F0E01427574746F6E2056616C3A2030
:101B460000527377697463683A20004C737769743E
:101B560063683A200046726F6E742073656E736F09
:101B6600723A2000466F7277617264205220536584
:101B76006E736F723A20004261636B205220536588
:101B86006E736F723A20005269676874204C696EF2
:101B960065203A200043656E746572204C696E6557
:101BA600203A20004C656674204C696E653A200028
:101BB60000000000F102160C6102470277026F0274
:101BC60000000000760A160C1C0A490A2E0A6B0A47
:00000001FF
