:100000000C94C2000C94EA000C94EA000C941306C1
:100010000C944E070C94A8070C94EA000C94EA0088
:100020000C94EA000C94EA000C94EA000C94EA00A8
:100030000C94EA000C94EA000C94EA000C94EA0098
:100040000C9477090C94EA000C94EA000C94EA00F2
:100050000C94EA000C94EA000C94EA000C94EA0078
:100060000C94EA000C94EA003C087F087F087F08A3
:100070007F087F084E085E086E087F087F08DA0751
:10008000EA07FC070C081C082C0800C2010001004C
:10009000110011000C0000E100000A0025002500FD
:1000A0002100009600001900390039003600127A4C
:1000B00000001F004600460044008070000022003F
:1000C0004D004D004A00004B0000360075007500E1
:1000D0007200403800004A009C009C009900802576
:1000E00000007200EC00EC00E900C0120000E90022
:1000F000DA01DA01D70160090000D701B603B603BF
:10010000B303B0040000B3036E076E076B07580219
:1001100000006E07DC0EDC0ED80E2C010000DC0E99
:10012000C11DC11DBE1D000000070002010000032B
:100130000406000000000000000001020408102076
:100140004080010204081020010204081020040469
:10015000040404040404020202020202030303036F
:100160000303000000002300260029000000000017
:10017000250028002B0000000000240027002A0092
:100180002901310111241FBECFEFD8E0DEBFCDBF62
:1001900011E0A0E0B1E0E6E3F5E102C005900D92C8
:1001A000A431B107D9F711E0A4E1B1E001C01D927B
:1001B000A93BB107E1F711E0C2E8D1E004C0229702
:1001C000FE010E94760AC038D107C9F70E942B0AA7
:1001D0000C948E0A0C94000083E190E0909320012F
:1001E00080931F018AE090E090931E0180931D018F
:1001F0008BE090E090931C0180931B0140E855E256
:1002000060E070E081E291E00E94160361E080917D
:100210001D010E94A90861E080911F010E94A908A8
:1002200061E080911B010E94A90880E590E0909315
:1002300019018093180190931701809316018CE99E
:100240009FEF90931501809314018AE191E00C9443
:10025000230481E291E00E94E7028AE191E00C949C
:10026000F90381E291E00C94F20381E291E00E94B3
:10027000A401181619060CF066C08630910599F194
:1002800084F48330910521F134F481309105D1F06B
:100290000297E1F0089584309105F9F00597F9F09F
:1002A00008958930910569F134F487309105E9F0BA
:1002B0000897F9F008958A30910581F18634910507
:1002C000E9F108958AE191E00C94230461E008C00B
:1002D00061E080911D010C94E20861E007C060E0DC
:1002E00080911F01F8CF60E0F4CF60E080911B01A6
:1002F000F2CF60911801709119018AE191E00C949C
:100300009B0460911401709115018AE191E00E94B3
:100310005F0460911601709117010CC06091160185
:10032000709117018AE191E00E945F0460911401CD
:10033000709115018AE191E00C94BC046FE081E2B8
:1003400091E00C944E02089590913D0180913E0100
:10035000981789F0E0913D01F0E0E15CFE4F80816B
:1003600020913D0130E02F5F3F4F2F7333272093C3
:100370003D0190E008958FEF9FEF089580913E0139
:1003800020913D0190E0805C9F4F821B910960E4C9
:1003900070E00E94600A08958FB7F89410923E01B1
:1003A00010923D018FBF089590913D0180913E01D3
:1003B000981751F0E0913D01F0E0E15CFE4F808143
:1003C000992787FD909508958FEF9FEF089520E07E
:1003D00001972FEF8F3F9207D9F70895EF92FF9281
:1003E0000F931F93CF93DF93EC018B899C890E941D
:1003F000E70108E010E0EE24E394F12C8D899E895A
:100400000E94E701EE85FF8580819D85892311F09B
:10041000FE2803C08E2D8095F822EE0C01501109A4
:100420000115110559F78F89988D0E94E701809178
:100430003E0120913D0190E001968F73992730E0B5
:100440008217930779F0E0913E01F0E0E15CFE4F06
:10045000F08280913E0190E001968F7399278093FE
:100460003E0103C08B8D81608B8FDF91CF911F91F7
:100470000F91FF90EF900895DC015196ED91FC9162
:10048000529750969C91611105C02081892F8095CB
:10049000822302C08081892B80830895DF92EF92AE
:1004A000FF920F931F93CF93DF93EC01D62E898D8C
:1004B0009A8D892B39F481E090E09B838A8380E0D8
:1004C00090E036C0EFB6F894E989FA89908188897E
:1004D000809589238083898D9A8D05960E94E701F6
:1004E00008E010E0FF24F3948F2D8D2129F061E0C6
:1004F000CE010E943C0207C0E989FA89908188896F
:10050000809589238083898D9A8D0E94E701FF0C55
:10051000015011090115110539F761E0CE010E9462
:100520003C02EFBE898D9A8D0E94E70181E090E048
:10053000DF91CF911F910F91FF90EF90DF90089581
:100540001F93CF93DF93EC01162F61E0812F0E9460
:10055000A90861E0812F0E94E208812F90E0FC0150
:10056000E65CFE4FE491E88BFC01E25BFE4FE49118
:10057000F0E0EE0FFF1FE459FE4F859194919A8BA6
:10058000898BDF91CF911F9108951F93CF93DF93B4
:10059000EC01162F60E0812F0E94A9081C87612FB3
:1005A00070E0FB01E65CFE4FE491ED87FB01E25B4E
:1005B000FE4FE491F0E0EE0FFF1FEE59FE4F8591E4
:1005C00094919F878E87DF91CF911F910895CF934C
:1005D000DF93EC011B821A8248EE53E060E070E08A
:1005E0004C835D836E837F8387E091E0998388836A
:1005F0001C8A1B8A1E8A1D8A188E1F8A1A8E198EC3
:100600008B8D8E7F8B8F64E08FE090E00E94D0070F
:10061000D0938201C09381016EE0CE010E94A002BE
:100620006FE0CE01DF91CF910C94C5020F931F9321
:10063000CF93DF93DC015A961C921E9259975896DD
:100640001C921E92579756961C921E925597CAE876
:10065000D0E080E090E0FE01059115912591349164
:10066000041715072607370759F54CE0489F9001F6
:10067000499F300D1124F901E257FF4F8591949164
:1006800054969C938E935397F901E057FF4F8591B1
:10069000949156969C938E935597F901EE56FF4F81
:1006A0008591949158969C938E9357972C563F4FD3
:1006B000F901859194915A969C938E9359970AC00B
:1006C00001962C968D30910509F0C5CF54961C9259
:1006D0001E92539757968D919C915897892B09F4A8
:1006E0004DC01C968C911C978631F0F520916800C6
:1006F000883050F091E08E3008F490E081E001C045
:10070000880F9A95EAF701C084E0822B80936800F5
:100710001C962C911C97283038F02E3040F0263152
:1007200048F0E0E0F0E008C0EDE6F0E005C0EBE600
:10073000F0E002C0ECE6F0E03081283030F481E0F7
:1007400001C0880F2A95EAF70DC0822F90E02E3065
:1007500010F4089701C00E9791E001C0990F8A9597
:10076000EAF7892F832B808359968D919C915A9714
:10077000DF91CF911F910F910C94E701DF91CF9101
:100780001F910F910895FC014485463150F5483082
:1007900028F04E3030F4EBE6F0E005C0EDE6F0E096
:1007A00002C0ECE6F0E05081483040F481E090E097
:1007B000042E01C0880F0A94EAF710C0242F30E0FD
:1007C0004E3018F42850310902C02E50310981E012
:1007D00090E0022E01C0880F0A94EAF780958523E5
:1007E0008083089527E031E0FC01318320830C945D
:1007F000C30361E087E00E94A90861E088E00E94ED
:10080000A90861E082E00E94A90861E084E00C94FC
:10081000A90861E082E00E94E20861E084E00E94B1
:10082000E20860E070E085E00C94180961E087E080
:100830000E94E20861E088E00E94E20860E070E067
:1008400086E00C941809CF93DF93EC010E94090411
:10085000CE01DF91CF910C941604CF93C62F61E0A7
:1008600082E00E94E20860E084E00E94E2086C2FCF
:1008700070E085E00E941809E0917F01F09180010D
:10088000309711F081E08087CF910895CF93C62FE4
:1008900060E082E00E94E20861E084E00E94E208F9
:1008A0006C2F70E085E00E941809E0917F01F091C3
:1008B0008001309711F08FEF8087CF910895161641
:1008C000170614F40C942D047195619571090C941C
:1008D0004604CF93C62F61E087E00E94E20860E003
:1008E00088E00E94E2086C2F70E086E00E94180900
:1008F000E0917F01F0918001309711F081E08187D4
:10090000CF910895CF93C62F60E087E00E94E20860
:1009100061E088E00E94E2086C2F70E086E00E94AF
:100920001809E0917F01F0918001309711F08FEF6D
:100930008187CF9108950F931F93CF93DF93EC019D
:100940008B011616170654F40E942D04602FCE0159
:10095000DF91CF911F910F910C946904119501952E
:100960001109602F0E944604602FCE01DF91CF91C4
:100970001F910F910C9482041616170614F40C9410
:1009800069047195619571090C9482040F931F930A
:10099000FC0161157105B1F06130710529F5018522
:1009A000112707FD1095212F312F44815581668134
:1009B0007781400F511F621F731F448355836683E5
:1009C000778312C00085112707FD1095212F312F45
:1009D0004081518162817381400F511F621F731FDB
:1009E00040835183628373831F910F910895CF9247
:1009F000DF92EF92FF92E82FF0E0DF01AD57BE4F9C
:100A00008C918230F9F078F4813009F052C0EE0F09
:100A1000FF1FE456FE4F0190F081E02DFF90EF9014
:100A2000DF90CF900994833021F1843009F041C0E8
:100A30008091810190918201FF90EF90DF90CF90A3
:100A40000C94EE01C0909401D0909501E090960135
:100A5000F09097010E94CD0922E3C20ED11CE11C47
:100A6000F11CC616D706E806F90618F560E070E036
:100A700016C0C0909801D0909901E0909A01F09032
:100A80009B010E94CD0922E3C20ED11CE11CF11C86
:100A9000C616D706E806F90660F461E070E08091BA
:100AA0007F0190918001FF90EF90DF90CF900C94A8
:100AB000C604FF90EF90DF90CF900895CF93C82F9A
:100AC0008091020181FF02C0C1FF46C080910201F6
:100AD00081FD2CC0C1FF2AC080918A01823051F46F
:100AE0000E94CD09609394017093950180939601C3
:100AF0009093970180918A01833051F40E94CD092F
:100B0000609398017093990180939A0190939B014F
:100B100080918A01813051F40E94C1096093900153
:100B200070939101809392019093930180910201BF
:100B300082FF16C0C2FD14C088E00E94F7048091B5
:100B4000020183FF3EC0C3FD3CC089E00E94F70460
:100B5000C0930201CF91089587E00E94F704E6CF89
:100B60008091020182FDEBCFC2FFE9CF80918B0122
:100B7000823051F40E94CD096093940170939501E5
:100B8000809396019093970180918B01833051F46B
:100B90000E94CD09609398017093990180939A0106
:100BA00090939B0180918B01813049F60E94C1098D
:100BB00060939001709391018093920190939301BF
:100BC000BECF8091020182FDC3CFC2FFC1CF809111
:100BD0008C01823051F40E94CD096093940170938E
:100BE0009501809396019093970180918C018330B9
:100BF00051F40E94CD0960939801709399018093FC
:100C00009A0190939B0180918C01813009F0A0CFD3
:100C10000E94C109609390017093910180939201A9
:100C20009093930195CF1F920F920FB60F921124BC
:100C30002F933F934F935F936F937F938F939F93E4
:100C4000AF93BF93EF93FF9393B180918F0189236B
:100C50000E945E05FF91EF91BF91AF919F918F919F
:100C60007F916F915F914F913F912F910F900FBEA8
:100C70000F901F901895CF93C82F8091010180FF8E
:100C800002C0C0FF53C08091010180FD1EC0C0FFA3
:100C90001CC080918301823051F40E94C10960938D
:100CA00094017093950180939601909397018091A0
:100CB0008301833051F40E94C109609398017093BD
:100CC000990180939A0190939B018091010181FF8A
:100CD00031C0C1FD2FC081E00E94F7048091010165
:100CE00082FF4CC0C2FD4AC082E00E94F70480919E
:100CF000010183FF67C0C3FD65C083E00E94F70464
:100D00008091010184FF82C0C4FD80C084E00E9404
:100D1000F7048091010185FF9DC0C5FD9BC085E062
:100D20000E94F704C0930101CF91089580E00E94D2
:100D3000F704CBCF8091010181FDD0CFC1FFCECF91
:100D400080918401823051F40E94C1096093940122
:100D500070939501809396019093970180918401FF
:100D6000833009F0BBCF0E94C10960939801709352
:100D7000990180939A0190939B01B0CF80910101DA
:100D800082FDB5CFC2FFB3CF80918501823051F48F
:100D90000E94C1096093940170939501809396011C
:100DA0009093970180918501833009F0A0CF0E9434
:100DB000C109609398017093990180939A0190936F
:100DC0009B0195CF8091010183FD9ACFC3FF98CFFE
:100DD00080918601823051F40E94C1096093940190
:100DE000709395018093960190939701809186016D
:100DF000833009F085CF0E94C109609398017093F8
:100E0000990180939A0190939B017ACF809101017F
:100E100084FD7FCFC4FF7DCF80918701823051F464
:100E20000E94C1096093940170939501809396018B
:100E30009093970180918701833009F06ACF0E94D7
:100E4000C109609398017093990180939A019093DE
:100E50009B015FCF8091010185FD64CFC5FF62CF0B
:100E600080918801823051F40E94C10960939401FD
:100E700070939501809396019093970180918801DA
:100E8000833009F04FCF0E94C1096093980170939D
:100E9000990180939A0190939B0144CF1F920F92E6
:100EA0000FB60F9211242F933F934F935F936F933D
:100EB0007F938F939F93AF93BF93EF93FF9396B1DD
:100EC00080918E0189230E943B06FF91EF91BF9193
:100ED000AF919F918F917F916F915F914F913F91D2
:100EE0002F910F900FBE0F901F901895CF93C82F82
:100EF0008091000183FF02C0C3FF26C080910001E2
:100F000083FD1EC0C3FF1CC080918901823051F453
:100F10000E94C1096093940170939501809396019A
:100F20009093970180918901833051F40E94C10907
:100F3000609398017093990180939A0190939B011B
:100F4000C0930001CF91089586E00E94F704F8CF86
:100F50001F920F920FB60F9211242F933F934F932E
:100F60005F936F937F938F939F93AF93BF93EF9311
:100F7000FF9399B180918D0189230E947607FF919B
:100F8000EF91BF91AF919F918F917F916F915F9101
:100F90004F913F912F910F900FBE0F901F9018957A
:100FA00003978131910508F0AAC08C5C9F4FFC012A
:100FB0000C94740A80916C00816080936C00809125
:100FC00068008260809368006093830180918E0145
:100FD00081600FC080916C00826080936C00809172
:100FE00068008260809368006093840180918E0124
:100FF000826080938E01089580916C00846080935C
:101000006C00809168008260809368006093850125
:1010100080918E018460EDCF80916C008860809318
:101020006C00809168008260809368006093860104
:1010300080918E018860DDCF80916C00806180930B
:101040006C008091680082608093680060938701E3
:1010500080918E018061CDCF80916C008062809301
:101060006C008091680082608093680060938801C2
:1010700080918E018062BDCF80916D0088608093E9
:101080006D0080916800846080936800609389019E
:1010900080918D01886080938D01089580916B000F
:1010A000826080936B00809168008160809368000B
:1010B00060938A0180918F0182601FC080916B00D4
:1010C000846080936B0080916800816080936800E9
:1010D00060938B0180918F0184600FC080916B00C1
:1010E000886080936B0080916800816080936800C5
:1010F00060938C0180918F01886080938F010895A7
:10110000833081F028F4813099F08230A1F0089585
:101110008630A9F08730B9F08430D1F48091800016
:101120008F7D03C0809180008F7780938000089529
:1011300084B58F7702C084B58F7D84BD089580917A
:10114000B0008F7703C08091B0008F7D8093B00096
:101150000895CF93DF9390E0FC01E65CFE4F24916D
:10116000FC01E25BFE4F8491882349F190E0880FF7
:10117000991FFC01EA58FE4FA591B49184599E4FE6
:10118000FC01C591D4919FB7611108C0F8948C916E
:10119000209582238C93888182230AC0623051F487
:1011A000F8948C91322F309583238C938881822BF5
:1011B000888304C0F8948C91822B8C939FBFDF911D
:1011C000CF9108950F931F93CF93DF931F92CDB7C5
:1011D000DEB7282F30E0F901EA5DFE4F8491F90176
:1011E000E65CFE4F1491F901E25BFE4F049100238F
:1011F000C9F0882321F069830E9480086981E02F6B
:10120000F0E0EE0FFF1FE459FE4FA591B4919FB798
:10121000F8948C91611103C01095812301C0812B3A
:101220008C939FBF0F90DF91CF911F910F910895E5
:101230001F93CF93DF93182FEB0161E00E94A90861
:10124000209711F460E004C0CF3FD10539F461E08C
:10125000812FDF91CF911F910C94E208E12FF0E0F4
:10126000EA5DFE4FE491E330F9F048F4E130B9F083
:10127000E230A1F584B5806284BDC8BD34C0E630DB
:10128000E9F0E73019F1E43049F58091800080629F
:1012900080938000D0938B00C0938A0024C084B5D3
:1012A000806884BDC7BD1FC0809180008068809326
:1012B0008000D0938900C093880015C08091B00051
:1012C00080688093B000C093B3000DC08091B000DF
:1012D00080628093B000C093B40005C0C038D105CF
:1012E0000CF0B5CFAFCFDF91CF911F9108951F9232
:1012F0000F920FB60F9211242F933F938F939F93CA
:10130000AF93BF938091B1019091B201A091B301CD
:10131000B091B4013091B00123E0230F2D3720F4B8
:101320000196A11DB11D05C026E8230F0296A11D3F
:10133000B11D2093B0018093B1019093B201A093AD
:10134000B301B093B4018091B5019091B601A09121
:10135000B701B091B8010196A11DB11D8093B501EF
:101360009093B601A093B701B093B801BF91AF912C
:101370009F918F913F912F910F900FBE0F901F90D3
:1013800018952FB7F8946091B1017091B2018091D6
:10139000B3019091B4012FBF08953FB7F8948091A5
:1013A000B5019091B601A091B701B091B80126B5F1
:1013B000A89B05C02F3F19F00196A11DB11D3FBF8D
:1013C0006627782F892F9A2F620F711D811D911D1D
:1013D00042E0660F771F881F991F4A95D1F708953D
:1013E000789484B5826084BD84B5816084BD85B500
:1013F000826085BD85B5816085BDEEE6F0E08081C7
:1014000081608083E1E8F0E01082808182608083E7
:10141000808181608083E0E8F0E08081816080836A
:10142000E1EBF0E0808184608083E0EBF0E080819C
:1014300081608083EAE7F0E080818460808380813E
:1014400082608083808181608083808180688083E6
:101450001092C10008950E94F0090E94EC00C0E0C3
:10146000D0E00E9435012097E1F30E940000F9CFFF
:10147000CF92DF92EF92FF920F931F93CF93DF9360
:101480006C017A01EB01E60EF71E00E010E0CE15CC
:10149000DF0561F06991D601ED91FC910190F08139
:1014A000E02DC6010995080F191FF1CFC801DF9182
:1014B000CF911F910F91FF90EF90DF90CF90089503
:1014C00097FB072E16F4009407D077FD09D00E94F1
:1014D0007A0A07FC05D03EF4909581959F4F0895B8
:1014E000709561957F4F0895EE0FFF1F0590F49161
:1014F000E02D0994AA1BBB1B51E107C0AA1FBB1F0B
:10150000A617B70710F0A61BB70B881F991F5A958F
:10151000A9F780959095BC01CD01089511E0C2E82E
:10152000D1E004C0FE010E94760A2296C438D10799
:06153000C9F7F894FFCF9B
:10153600083F0E000000004E02380ABE01A401D486
:0415460001CC0100D3
:00000001FF
