:100000000C94CC000C94F4000C94F4000C94F605C1
:100010000C9431070C948B070C94F4000C94F400AE
:100020000C94F4000C94F4000C94F4000C94F40080
:100030000C94F4000C94F4000C94F4000C94F40070
:100040000C9463080C94F4000C94F4000C94F400E9
:100050000C94F4000C94F4000C94F4000C94F40050
:100060000C94F4000C94F400440148014A014F013F
:100070005101550157015B01630173011F086208BB
:100080006208620862086208310841085108620883
:100090006208BD07CD07DF07EF07FF070F0800C2A3
:1000A00001000100110011000C0000E100000A0035
:1000B00025002500210000960000190039003900B4
:1000C0003600127A00001F0046004600440080708F
:1000D000000022004D004D004A00004B0000360099
:1000E000750075007200403800004A009C009C00BA
:1000F0009900802500007200EC00EC00E900C012BD
:100100000000E900DA01DA01D70160090000D70137
:10011000B603B603B303B0040000B3036E076E0763
:100120006B07580200006E07DC0EDC0ED80E2C01A7
:100130000000DC0EC11DC11DBE1D00000007000235
:10014000010000030406000000000000000001029E
:100150000408102040800102040810200102040855
:100160001020040404040404040402020202020233
:1001700003030303030300000000230026002900FB
:1001800000000000250028002B00000000002400D3
:1001900027002A0026012E0111241FBECFEFD8E030
:1001A000DEBFCDBF11E0A0E0B1E0ECEFF4E102C0B2
:1001B00005900D92A431B107D9F711E0A4E1B1E0A7
:1001C00001C01D92A53BB107E1F711E0C6E9D1E0FE
:1001D00004C02297FE010E94590AC439D107C9F709
:1001E0000E940E0A0C94710A0C94000083E190E0C6
:1001F00090931C0180931B018AE090E090931A0178
:10020000809319018BE090E090931801809317017F
:1002100040E056E960E070E08DE191E00E94C603A5
:1002200061E0809119010E94400961E080911B0109
:100230000E94400961E0809117010E9440098DE40D
:1002400090E0909315018093140108958DE191E061
:100250000E94970386E191E00C9487018DE191E083
:100260000C94A2048DE191E00E946E02181619060A
:100270000CF04CC0FC013197EA30F10508F046C0A3
:10028000EC5CFF4F0C94570A86E191E00C94B101AD
:1002900061E008C061E0809119010C94790961E086
:1002A00007C060E080911B01F8CF60E0F4CF60E010
:1002B00080911701F2CF609114017091150186E1D0
:1002C00091E00C942902609114017091150186E16E
:1002D00091E00E94ED0160911401709115017195FA
:1002E000619571090FC060911401709115017195AC
:1002F0006195710986E191E00E94ED016091140120
:100300007091150186E191E00C944A02089561E034
:1003100087E00E94400961E088E00E94400961E0B6
:1003200082E00E94400961E084E00C94400961E0B1
:1003300082E00E94790961E084E00E94790960E02E
:1003400070E085E00C94AF0961E087E00E947909D4
:1003500061E088E00E94790960E070E086E00C943A
:10036000AF09CF93DF93EC010E949701CE01DF919B
:10037000CF910C94A401CF93C62F61E082E00E943C
:10038000790960E084E00E9479096C2F70E085E0D3
:100390000E94AF09E0917B01F0917C01309711F050
:1003A00081E08087CF910895CF93C62F60E082E0EF
:1003B0000E94790961E084E00E9479096C2F70E065
:1003C00085E00E94AF09E0917B01F0917C013097BC
:1003D00011F08FEF8087CF9108951616170614F449
:1003E0000C94BB017195619571090C94D401CF9364
:1003F000C62F61E087E00E94790960E088E00E94F2
:1004000079096C2F70E086E00E94AF09E0917B01D2
:10041000F0917C01309711F081E08187CF910895B0
:10042000CF93C62F60E087E00E94790961E088E001
:100430000E9479096C2F70E086E00E94AF09E0917C
:100440007B01F0917C01309711F08FEF8187CF9184
:1004500008950F931F93CF93DF93EC018B01161632
:10046000170654F40E94BB01602FCE01DF91CF919B
:100470001F910F910C94F701119501951109602FAF
:100480000E94D401602FCE01DF91CF911F910F9177
:100490000C9410021616170614F40C94F7017195BB
:1004A000619571090C9410029091390180913A0183
:1004B000981789F0E0913901F0E0E55CFE4F80810A
:1004C0002091390130E02F5F3F4F2F733327209366
:1004D000390190E008958FEF9FEF089580913A01E0
:1004E0002091390190E0805C9F4F821B910960E46C
:1004F00070E00E94430A08958FB7F89410923A0171
:10050000109239018FBF08959091390180913A017D
:10051000981751F0E0913901F0E0E55CFE4F8081E1
:10052000992787FD909508958FEF9FEF089520E01C
:1005300001972FEF8F3F9207D9F70895EF92FF921F
:100540000F931F93CF93DF93EC018B899C890E94BB
:10055000970208E010E0EE24E394F12C8D899E8947
:100560000E949702EE85FF8580819D85892311F089
:10057000FE2803C08E2D8095F822EE0C0150110943
:100580000115110559F78F89988D0E949702809166
:100590003A012091390190E001968F73992730E05C
:1005A0008217930779F0E0913A01F0E0E55CFE4FA5
:1005B000F08280913A0190E001968F7399278093A1
:1005C0003A0103C08B8D81608B8FDF91CF911F919A
:1005D0000F91FF90EF900895DC015196ED91FC9101
:1005E000529750969C91611105C02081892F80956A
:1005F000822302C08081892B80830895DF92EF924D
:10060000FF920F931F93CF93DF93EC01D62E898D2A
:100610009A8D892B39F481E090E09B838A8380E076
:1006200090E036C0EFB6F894E989FA89908188891C
:10063000809589238083898D9A8D05960E949702E3
:1006400008E010E0FF24F3948F2D8D2129F061E064
:10065000CE010E94EC0207C0E989FA89908188895D
:10066000809589238083898D9A8D0E949702FF0C43
:10067000015011090115110539F761E0CE010E9401
:10068000EC02EFBE898D9A8D0E94970281E090E086
:10069000DF91CF911F910F91FF90EF90DF90089520
:1006A0001F93CF93DF93EC01162F61E0812F0E94FF
:1006B000400961E0812F0E947909812F90E0FC01BF
:1006C000E25BFE4FE491E88BFC01EE59FE4FE491B2
:1006D000F0E0EE0FFF1FE058FE4F859194919A8B4A
:1006E000898BDF91CF911F9108951F93CF93DF9353
:1006F000EC01162F60E0812F0E9440091C87612FBA
:1007000070E0FB01E25BFE4FE491ED87FB01EE59E7
:10071000FE4FE491F0E0EE0FFF1FEA58FE4F859187
:1007200094919F878E87DF91CF911F910895CF93EA
:10073000DF93EC011B821A8248EE53E060E070E028
:100740004C835D836E837F8387E091E09983888308
:100750001C8A1B8A1E8A1D8A188E1F8A1A8E198E61
:100760008B8D8E7F8B8F64E08FE090E00E94B307CB
:10077000D0937E01C0937D016EE0CE010E945003B4
:100780006FE0CE01DF91CF910C9475030F931F930F
:10079000CF93DF93DC015A961C921E92599758967C
:1007A0001C921E92579756961C921E925597CEE910
:1007B000D0E080E090E0FE01059115912591349103
:1007C000041715072607370759F54CE0489F900195
:1007D000499F300D1124F901EE55FF4F85919491F9
:1007E00054969C938E935397F901EC55FF4F859146
:1007F000949156969C938E935597F901EA55FF4F25
:100800008591949158969C938E93579728553F4F76
:10081000F901859194915A969C938E9359970AC0A9
:1008200001962C968D30910509F0C5CF54961C92F7
:100830001E92539757968D919C915897892B09F446
:100840004DC01C968C911C978631F0F52091680064
:10085000883050F091E08E3008F490E081E001C0E3
:10086000880F9A95EAF701C084E0822B8093680094
:100870001C962C911C97283038F02E3040F02631F1
:1008800048F0E0E0F0E008C0EDE6F0E005C0EBE69F
:10089000F0E002C0ECE6F0E03081283030F481E096
:1008A00001C0880F2A95EAF70DC0822F90E02E3004
:1008B00010F4089701C00E9791E001C0990F8A9536
:1008C000EAF7892F832B808359968D919C915A97B3
:1008D000DF91CF911F910F910C949702DF91CF91EF
:1008E0001F910F910895FC014485463150F5483021
:1008F00028F04E3030F4EBE6F0E005C0EDE6F0E035
:1009000002C0ECE6F0E05081483040F481E090E035
:10091000042E01C0880F0A94EAF710C0242F30E09B
:100920004E3018F42850310902C02E50310981E0B0
:1009300090E0022E01C0880F0A94EAF78095852383
:100940008083089527E031E0FC01318320830C94FB
:1009500073040F931F93FC0161157105B1F06130B1
:10096000710529F50185112707FD1095212F312FDC
:100970004481558166817781400F511F621F731F2B
:10098000448355836683778312C00085112707FD52
:100990001095212F312F4081518162817381400F49
:1009A000511F621F731F40835183628373831F91A2
:1009B0000F910895CF92DF92EF92FF92E82FF0E02F
:1009C000DF01A158BE4F8C918230F9F078F481306C
:1009D00009F052C0EE0FFF1FE856FE4F0190F08164
:1009E000E02DFF90EF90DF90CF900994833021F1BC
:1009F000843009F041C080917D0190917E01FF908B
:100A0000EF90DF90CF900C949E02C0909001D09018
:100A10009101E0909201F09093010E94B90822E3C5
:100A2000C20ED11CE11CF11CC616D706E806F90659
:100A300018F560E070E016C0C0909401D090950168
:100A4000E0909601F09097010E94B90822E3C20E4F
:100A5000D11CE11CF11CC616D706E806F90660F4A5
:100A600061E070E080917B0190917C01FF90EF90BC
:100A7000DF90CF900C94A904FF90EF90DF90CF907F
:100A80000895CF93C82F8091020181FF02C0C1FF5A
:100A900046C08091020181FD2CC0C1FF2AC0809117
:100AA0008601823051F40E94B908609390017093DE
:100AB00091018093920190939301809186018330FC
:100AC00051F40E94B908609394017093950180934A
:100AD00096019093970180918601813051F40E9494
:100AE000AD0860938C0170938D0180938E0190937B
:100AF0008F018091020182FF16C0C2FD14C088E000
:100B00000E94DA048091020183FF3EC0C3FD3CC015
:100B100089E00E94DA04C0930201CF91089587E032
:100B20000E94DA04E6CF8091020182FDEBCFC2FF82
:100B3000E9CF80918701823051F40E94B908609317
:100B40009001709391018093920190939301809111
:100B50008701833051F40E94B90860939401709327
:100B60009501809396019093970180918701813040
:100B700049F60E94AD0860938C0170938D018093BB
:100B80008E0190938F01BECF8091020182FDC3CF71
:100B9000C2FFC1CF80918801823051F40E94B90810
:100BA00060939001709391018093920190939301CF
:100BB00080918801833051F40E94B90860939401B8
:100BC000709395018093960190939701809188018D
:100BD000813009F0A0CF0E94AD0860938C01709322
:100BE0008D0180938E0190938F0195CF1F920F926C
:100BF0000FB60F9211242F933F934F935F936F93F0
:100C00007F938F939F93AF93BF93EF93FF9393B192
:100C100080918B0189230E944105FF91EF91BF9143
:100C2000AF919F918F917F916F915F914F913F9184
:100C30002F910F900FBE0F901F901895CF93C82F34
:100C40008091010180FF02C0C0FF53C0809101016B
:100C500080FD1EC0C0FF1CC080917F01823051F416
:100C60000E94AD086093900170939101809392016E
:100C70009093930180917F01833051F40E94AD08DD
:100C800060939401709395018093960190939701DE
:100C90008091010181FF31C0C1FD2FC081E00E9420
:100CA000DA048091010182FF4CC0C2FD4AC082E09B
:100CB0000E94DA048091010183FF67C0C3FD65C013
:100CC00083E00E94DA048091010184FF82C0C4FDA8
:100CD00080C084E00E94DA048091010185FF9DC0FC
:100CE000C5FD9BC085E00E94DA04C0930101CF914D
:100CF000089580E00E94DA04CBCF8091010181FD4C
:100D0000D0CFC1FFCECF80918001823051F40E94BC
:100D1000AD0860939001709391018093920190933C
:100D2000930180918001833009F0BBCF0E94AD0810
:100D3000609394017093950180939601909397012D
:100D4000B0CF8091010182FDB5CFC2FFB3CF8091BA
:100D50008101823051F40E94AD086093900170933C
:100D6000910180939201909393018091810183304E
:100D700009F0A0CF0E94AD08609394017093950193
:100D8000809396019093970195CF8091010183FD07
:100D90009ACFC3FF98CF80918201823051F40E9494
:100DA000AD086093900170939101809392019093AC
:100DB000930180918201833009F085CF0E94AD08B4
:100DC000609394017093950180939601909397019D
:100DD0007ACF8091010184FD7FCFC4FF7DCF8091C8
:100DE0008301823051F40E94AD08609390017093AA
:100DF00091018093920190939301809183018330BC
:100E000009F06ACF0E94AD08609394017093950138
:100E100080939601909397015FCF8091010185FDAA
:100E200064CFC5FF62CF80918401823051F40E946B
:100E3000AD0860939001709391018093920190931B
:100E4000930180918401833009F04FCF0E94AD0857
:100E5000609394017093950180939601909397010C
:100E600044CF1F920F920FB60F9211242F933F93EE
:100E70004F935F936F937F938F939F93AF93BF93A2
:100E8000EF93FF9396B180918A0189230E941E06F9
:100E9000FF91EF91BF91AF919F918F917F916F9152
:100EA0005F914F913F912F910F900FBE0F901F9028
:100EB0001895CF93C82F8091000183FF02C0C3FF14
:100EC00026C08091000183FD1EC0C3FF1CC080911D
:100ED0008501823051F40E94AD08609390017093B7
:100EE00091018093920190939301809185018330C9
:100EF00051F40E94AD086093940170939501809322
:100F0000960190939701C0930001CF91089586E0D8
:100F10000E94DA04F8CF1F920F920FB60F9211249D
:100F20002F933F934F935F936F937F938F939F93F1
:100F3000AF93BF93EF93FF9399B180918901892378
:100F40000E945907FF91EF91BF91AF919F918F91AF
:100F50007F916F915F914F913F912F910F900FBEB5
:100F60000F901F90189503978131910508F0AAC042
:100F7000825C9F4FFC010C94570A80916C00816049
:100F800080936C0080916800826080936800609319
:100F90007F0180918A0181600FC080916C00826026
:100FA00080936C00809168008260809368006093F9
:100FB000800180918A01826080938A0108958091E6
:100FC0006C00846080936C008091680082608093E4
:100FD00068006093810180918A018460EDCF8091E7
:100FE0006C00886080936C008091680082608093C0
:100FF00068006093820180918A018860DDCF8091D2
:101000006C00806180936C008091680082608093A6
:1010100068006093830180918A018061CDCF8091C7
:101020006C00806280936C00809168008260809385
:1010300068006093840180918A018062BDCF8091B5
:101040006D00886080936D0080916800846080935B
:10105000680060938501809189018860809389018F
:10106000089580916B00826080936B00809168008E
:101070008160809368006093860180918B0182601B
:101080001FC080916B00846080936B00809168002A
:101090008160809368006093870180918B018460F8
:1010A0000FC080916B00886080936B008091680016
:1010B0008160809368006093880180918B018860D3
:1010C00080938B0108951F920F920FB60F921124F7
:1010D0002F933F938F939F93AF93BF938091AD01D5
:1010E0009091AE01A091AF01B091B0013091AC01EF
:1010F00023E0230F2D3720F40196A11DB11D05C05B
:1011000026E8230F0296A11DB11D2093AC01809308
:10111000AD019093AE01A093AF01B093B001809167
:10112000B1019091B201A091B301B091B4010196C7
:10113000A11DB11D8093B1019093B201A093B301A1
:10114000B093B401BF91AF919F918F913F912F9137
:101150000F900FBE0F901F9018952FB7F8946091C5
:10116000AD017091AE018091AF019091B0012FBFA0
:1011700008953FB7F8948091B1019091B201A09188
:10118000B301B091B40126B5A89B05C02F3F19F05B
:101190000196A11DB11D3FBF6627782F892F9A2F79
:1011A000620F711D811D911D42E0660F771F881F20
:1011B000991F4A95D1F70895789484B5826084BDCB
:1011C00084B5816084BD85B5826085BD85B581604B
:1011D00085BDEEE6F0E0808181608083E1E8F0E0AB
:1011E0001082808182608083808181608083E0E8DA
:1011F000F0E0808181608083E1EBF0E080818460B9
:101200008083E0EBF0E0808181608083EAE7F0E0BA
:10121000808184608083808182608083808181601E
:1012200080838081806880831092C100089583301C
:1012300081F028F4813099F08230A1F00895863051
:10124000A9F08730B9F08430D1F4809180008F7D8F
:1012500003C0809180008F7780938000089584B5CB
:101260008F7702C084B58F7D84BD08958091B000D2
:101270008F7703C08091B0008F7D8093B000089578
:10128000CF93DF9390E0FC01E25BFE4F2491FC01E1
:10129000EE59FE4F8491882349F190E0880F991F01
:1012A000FC01E657FE4FA591B49180589E4FFC017A
:1012B000C591D4919FB7611108C0F8948C91209585
:1012C00082238C93888182230AC0623051F4F8947F
:1012D0008C91322F309583238C938881822B888345
:1012E00004C0F8948C91822B8C939FBFDF91CF9197
:1012F00008950F931F93CF93DF931F92CDB7DEB75F
:10130000282F30E0F901E65CFE4F8491F901E25BA1
:10131000FE4F1491F901EE59FE4F04910023C9F0DC
:10132000882321F069830E9417096981E02FF0E08A
:10133000EE0FFF1FE058FE4FA591B4919FB7F894B0
:101340008C91611103C01095812301C0812B8C9376
:101350009FBF0F90DF91CF911F910F9108951F9321
:10136000CF93DF93182FEB0161E00E944009209793
:1013700011F460E004C0CF3FD10539F461E0812F62
:10138000DF91CF911F910C947909E12FF0E0E65C99
:10139000FE4FE491E330F9F048F4E130B9F0E23087
:1013A000A1F584B5806284BDC8BD34C0E630E9F0E3
:1013B000E73019F1E43049F5809180008062809334
:1013C0008000D0938B00C0938A0024C084B58068CD
:1013D00084BDC7BD1FC0809180008068809380005D
:1013E000D0938900C093880015C08091B0008068B8
:1013F0008093B000C093B3000DC08091B0008062B4
:101400008093B000C093B40005C0C038D1050CF083
:10141000B5CFAFCFDF91CF911F9108950E94DC0827
:101420000E94F600C0E0D0E00E9432012097E1F374
:101430000E940000F9CFCF92DF92EF92FF920F93BC
:101440001F93CF93DF936C017A01EB01E60EF71E39
:1014500000E010E0CE15DF0561F06991D601ED9155
:10146000FC910190F081E02DC6010995080F191F2C
:10147000F1CFC801DF91CF911F910F91FF90EF90B5
:10148000DF90CF90089597FB072E16F4009407D0B5
:1014900077FD09D00E945D0A07FC05D03EF49095C7
:1014A00081959F4F0895709561957F4F0895EE0F38
:1014B000FF1F0590F491E02D0994AA1BBB1B51E17D
:1014C00007C0AA1FBB1FA617B70710F0A61BB70BB4
:1014D000881F991F5A95A9F780959095BC01CD0159
:1014E000089511E0C6E9D1E004C0FE010E94590A46
:0C14F0002296C839D107C9F7F894FFCF45
:1014FC00083F0E00000000FE021B0A6E025402841C
:04150C00027C02005B
:00000001FF
