:100000000C94CC000C94F4000C94F4000C94DD05DA
:100010000C9418070C9472070C94F4000C94F400E0
:100020000C94F4000C94F4000C94F4000C94F40080
:100030000C94F4000C94F4000C94F4000C94F40070
:100040000C944A080C94F4000C94F4000C94F40002
:100050000C94F4000C94F4000C94F4000C94F40050
:100060000C94F4000C94F4003B013F014101460163
:1000700048014C014E01520158016101060849082E
:10008000490849084908490818082808380849084B
:100090004908A407B407C607D607E607F60700C253
:1000A00001000100110011000C0000E100000A0035
:1000B00025002500210000960000190039003900B4
:1000C0003600127A00001F0046004600440080708F
:1000D000000022004D004D004A00004B0000360099
:1000E000750075007200403800004A009C009C00BA
:1000F0009900802500007200EC00EC00E900C012BD
:100100000000E900DA01DA01D70160090000D70137
:10011000B603B603B303B0040000B3036E076E0763
:100120006B07580200006E07DC0EDC0ED80E2C01A7
:100130000000DC0EC11DC11DBE1D00000007000235
:10014000010000030406000000000000000001029E
:100150000408102040800102040810200102040855
:100160001020040404040404040402020202020233
:1001700003030303030300000000230026002900FB
:1001800000000000250028002B00000000002400D3
:1001900027002A001F01270111241FBECFEFD8E03E
:1001A000DEBFCDBF11E0A0E0B1E0EAECF4E102C0B7
:1001B00005900D92A431B107D9F711E0A4E1B1E0A7
:1001C00001C01D92A33BB107E1F711E0C6E9D1E000
:1001D00004C02297FE010E94400AC439D107C9F722
:1001E0000E94F5090C94580A0C94000083E190E0F9
:1001F00090931A01809319018AE090E0909318017E
:10020000809317018BE090E0909316018093150185
:1002100040E056E960E070E08BE191E00E94AD03C0
:1002200061E0809117010E94270961E08091190126
:100230000E94270961E0809115010C9427098BE148
:1002400091E00E947E0384E191E00C946E018BE1C9
:1002500091E00C9489048BE191E00E9455021816FC
:100260001906DCF5FC013197EA30F105B0F5EC5CDC
:10027000FF4F0C943E0A84E191E00C94980161E0F8
:1002800008C061E0809117010C94600961E007C02B
:1002900060E080911901F8CF60E0F4CF60E08091D8
:1002A0001501F2CF6FEF70E084E191E00C94100241
:1002B0006FEF70E084E191E00E94D40161E07FEF94
:1002C00008C061E07FEF84E191E00E94D4016FEF0C
:1002D00070E084E191E00C943102089561E087E0E0
:1002E0000E94270961E088E00E94270961E082E01E
:1002F0000E94270961E084E00C94270960E082E015
:100300000E94600960E084E00E94600960E070E0A3
:1003100085E00C94960960E087E00E94600960E047
:1003200088E00E94600960E070E086E00C94960925
:10033000CF93DF93EC010E947E01CE01DF91CF913C
:100340000C948B01CF93C62F61E082E00E9460097C
:1003500060E084E00E9460096C2F70E085E00E94FC
:100360009609E0917901F0917A01309711F081E0DE
:100370008087CF910895CF93C62F60E082E00E94DE
:10038000600961E084E00E9460096C2F70E085E004
:100390000E949609E0917901F0917A01309711F06D
:1003A0008FEF8087CF9108951616170614F40C94DA
:1003B000A2017195619571090C94BB01CF93C62F71
:1003C00061E087E00E94600960E088E00E946009C7
:1003D0006C2F70E086E00E949609E0917901F0911F
:1003E0007A01309711F081E08187CF910895CF9302
:1003F000C62F60E087E00E94600961E088E00E940B
:1004000060096C2F70E086E00E949609E091790106
:10041000F0917A01309711F08FEF8187CF91089595
:100420000F931F93CF93DF93EC018B0116161706E2
:1004300054F40E94A201602FCE01DF91CF911F9151
:100440000F910C94DE01119501951109602F0E9406
:10045000BB01602FCE01DF91CF911F910F910C94C2
:10046000F7011616170614F40C94DE0171956195C8
:1004700071090C94F7019091370180913801981718
:1004800089F0E0913701F0E0E75CFE4F8081209138
:10049000370130E02F5F3F4F2F7333272093370111
:1004A00090E008958FEF9FEF08958091380120919B
:1004B000370190E0805C9F4F821B910960E470E0FF
:1004C0000E942A0A08958FB7F8941092380110926A
:1004D00037018FBF089590913701809138019817A7
:1004E00051F0E0913701F0E0E75CFE4F8081992701
:1004F00087FD909508958FEF9FEF089520E0019775
:100500002FEF8F3F9207D9F70895EF92FF920F9345
:100510001F93CF93DF93EC018B899C890E947E020D
:1005200008E010E0EE24E394F12C8D899E890E946E
:100530007E02EE85FF8580819D85892311F0FE284E
:1005400003C08E2D8095F822EE0C01501109011583
:10055000110559F78F89988D0E947E02809138018C
:100560002091370190E001968F73992730E0821730
:10057000930779F0E0913801F0E0E75CFE4FF082FC
:100580008091380190E001968F739927809338010C
:1005900003C08B8D81608B8FDF91CF911F910F9165
:1005A000FF90EF900895DC015196ED91FC915297E8
:1005B00050969C91611105C02081892F80958223DE
:1005C00002C08081892B80830895DF92EF92FF9291
:1005D0000F931F93CF93DF93EC01D62E898D9A8DC5
:1005E000892B39F481E090E09B838A8380E090E05E
:1005F00036C0EFB6F894E989FA89908188898095A8
:1006000089238083898D9A8D05960E947E0208E059
:1006100010E0FF24F3948F2D8D2129F061E0CE01AD
:100620000E94D30207C0E989FA8990818889809560
:1006300089238083898D9A8D0E947E02FF0C015050
:1006400011090115110539F761E0CE010E94D302AD
:10065000EFBE898D9A8D0E947E0281E090E0DF914D
:10066000CF911F910F91FF90EF90DF9008951F930E
:10067000CF93DF93EC01162F61E0812F0E942709B1
:1006800061E0812F0E946009812F90E0FC01E25B14
:10069000FE4FE491E88BFC01EE59FE4FE491F0E04F
:1006A000EE0FFF1FE058FE4F859194919A8B898B36
:1006B000DF91CF911F9108951F93CF93DF93EC01AA
:1006C000162F60E0812F0E9427091C87612F70E0A0
:1006D000FB01E25BFE4FE491ED87FB01EE59FE4F1B
:1006E000E491F0E0EE0FFF1FEA58FE4F85919491E0
:1006F0009F878E87DF91CF911F910895CF93DF93CE
:10070000EC011B821A8248EE53E060E070E04C83FB
:100710005D836E837F8387E091E0998388831C8A61
:100720001B8A1E8A1D8A188E1F8A1A8E198E8B8D1F
:100730008E7F8B8F64E08FE090E00E949A07D093C9
:100740007C01C0937B016EE0CE010E9437036FE015
:10075000CE01DF91CF910C945C030F931F93CF9345
:10076000DF93DC015A961C921E92599758961C9260
:100770001E92579756961C921E925597CEE9D0E03E
:1007800080E090E0FE0105911591259134910417C8
:1007900015072607370759F54CE0489F9001499FF8
:1007A000300D1124F901EE55FF4F85919491549627
:1007B0009C938E935397F901EC55FF4F859194913B
:1007C00056969C938E935597F901EA55FF4F859164
:1007D000949158969C938E93579728553F4FF901C3
:1007E000859194915A969C938E9359970AC001963D
:1007F0002C968D30910509F0C5CF54961C921E920F
:10080000539757968D919C915897892B09F44DC019
:100810001C968C911C978631F0F5209168008830E9
:1008200050F091E08E3008F490E081E001C0880F34
:100830009A95EAF701C084E0822B809368001C96A9
:100840002C911C97283038F02E3040F0263148F09B
:10085000E0E0F0E008C0EDE6F0E005C0EBE6F0E037
:1008600002C0ECE6F0E03081283030F481E001C0D5
:10087000880F2A95EAF70DC0822F90E02E3010F4F1
:10088000089701C00E9791E001C0990F8A95EAF789
:10089000892F832B808359968D919C915A97DF9154
:1008A000CF911F910F910C947E02DF91CF911F91F8
:1008B0000F910895FC014485463150F5483028F0E9
:1008C0004E3030F4EBE6F0E005C0EDE6F0E002C0BB
:1008D000ECE6F0E05081483040F481E090E0042EF6
:1008E00001C0880F0A94EAF710C0242F30E04E3080
:1008F00018F42850310902C02E50310981E090E0EF
:10090000022E01C0880F0A94EAF780958523808320
:10091000089527E031E0FC01318320830C945A04D0
:100920000F931F93FC0161157105B1F061307105E2
:1009300029F50185112707FD1095212F312F4481BD
:10094000558166817781400F511F621F731F448359
:1009500055836683778312C00085112707FD1095A4
:10096000212F312F4081518162817381400F511FAE
:10097000621F731F40835183628373831F910F91A2
:100980000895CF92DF92EF92FF92E82FF0E0DF011F
:10099000A358BE4F8C918230F9F078F4813009F081
:1009A00052C0EE0FFF1FEA56FE4F0190F081E02D7E
:1009B000FF90EF90DF90CF900994833021F1843045
:1009C00009F041C080917B0190917C01FF90EF90F4
:1009D000DF90CF900C948502C0908E01D0908F0153
:1009E000E0909001F09091010E94A00822E3C20ED5
:1009F000D11CE11CF11CC616D706E806F90618F54D
:100A000060E070E016C0C0909201D0909301E09039
:100A10009401F09095010E94A00822E3C20ED11C1F
:100A2000E11CF11CC616D706E806F90660F461E081
:100A300070E08091790190917A01FF90EF90DF90C2
:100A4000CF900C949004FF90EF90DF90CF9008959A
:100A5000CF93C82F8091020181FF02C0C1FF46C021
:100A60008091020181FD2CC0C1FF2AC080918401C8
:100A7000823051F40E94A00860938E0170938F0120
:100A8000809390019093910180918401833051F47F
:100A90000E94A00860939201709393018093940147
:100AA0009093950180918401813051F40E949408C3
:100AB00060938A0170938B0180938C0190938D01D8
:100AC0008091020182FF16C0C2FD14C088E00E941E
:100AD000C1048091020183FF3EC0C3FD3CC089E098
:100AE0000E94C104C0930201CF91089587E00E9443
:100AF000C104E6CF8091020182FDEBCFC2FFE9CFB6
:100B000080918501823051F40E94A00860938E018B
:100B100070938F0180939001909391018091850152
:100B2000833051F40E94A008609392017093930166
:100B3000809394019093950180918501813049F6CD
:100B40000E94940860938A0170938B0180938C01BA
:100B500090938D01BECF8091020182FDC3CFC2FF71
:100B6000C1CF80918601823051F40E94A008609329
:100B70008E0170938F0180939001909391018091E9
:100B80008601833051F40E94A00860939201709313
:100B90009301809394019093950180918601813017
:100BA00009F0A0CF0E94940860938A0170938B0192
:100BB00080938C0190938D0195CF1F920F920FB669
:100BC0000F9211242F933F934F935F936F937F93D3
:100BD0008F939F93AF93BF93EF93FF9393B18091C4
:100BE000890189230E942805FF91EF91BF91AF9160
:100BF0009F918F917F916F915F914F913F912F9135
:100C00000F900FBE0F901F901895CF93C82F809113
:100C1000010180FF02C0C0FF53C08091010180FD2F
:100C20001EC0C0FF1CC080917D01823051F40E9423
:100C3000940860938E0170938F018093900190933C
:100C4000910180917D01833051F40E94940860935A
:100C500092017093930180939401909395018091F8
:100C6000010181FF31C0C1FD2FC081E00E94C1049C
:100C70008091010182FF4CC0C2FD4AC082E00E9407
:100C8000C1048091010183FF67C0C3FD65C083E09B
:100C90000E94C1048091010184FF82C0C4FD80C014
:100CA00084E00E94C1048091010185FF9DC0C5FDC3
:100CB0009BC085E00E94C104C0930101CF910895BB
:100CC00080E00E94C104CBCF8091010181FDD0CF93
:100CD000C1FFCECF80917E01823051F40E949408F2
:100CE00060938E0170938F01809390019093910196
:100CF00080917E01833009F0BBCF0E9494086093FD
:100D00009201709393018093940190939501B0CFD9
:100D10008091010182FDB5CFC2FFB3CF80917F01E9
:100D2000823051F40E94940860938E0170938F0179
:100D3000809390019093910180917F01833009F01D
:100D4000A0CF0E94940860939201709393018093C6
:100D500094019093950195CF8091010183FD9ACFE5
:100D6000C3FF98CF80918001823051F40E94940893
:100D700060938E0170938F01809390019093910105
:100D800080918001833009F085CF0E9494086093A0
:100D900092017093930180939401909395017ACF7F
:100DA0008091010184FD7FCFC4FF7DCF80918101BF
:100DB000823051F40E94940860938E0170938F01E9
:100DC000809390019093910180918101833009F08B
:100DD0006ACF0E949408609392017093930180936C
:100DE0009401909395015FCF8091010185FD64CFBF
:100DF000C5FF62CF80918201823051F40E94940835
:100E000060938E0170938F01809390019093910174
:100E100080918201833009F04FCF0E949408609343
:100E2000920170939301809394019093950144CF24
:100E30001F920F920FB60F9211242F933F934F934F
:100E40005F936F937F938F939F93AF93BF93EF9332
:100E5000FF9396B18091880189230E940506FF9136
:100E6000EF91BF91AF919F918F917F916F915F9122
:100E70004F913F912F910F900FBE0F901F9018959B
:100E8000CF93C82F8091000183FF02C0C3FF26C00B
:100E90008091000183FD1EC0C3FF1CC080918301AF
:100EA000823051F40E94940860938E0170938F01F8
:100EB000809390019093910180918301833051F44C
:100EC0000E9494086093920170939301809394011F
:100ED00090939501C0930001CF91089586E00E9400
:100EE000C104F8CF1F920F920FB60F9211242F93C7
:100EF0003F934F935F936F937F938F939F93AF93A2
:100F0000BF93EF93FF9399B18091870189230E944A
:100F10004007FF91EF91BF91AF919F918F917F918A
:100F20006F915F914F913F912F910F900FBE0F9056
:100F30001F90189503978131910508F0AAC0825C33
:100F40009F4FFC010C943E0A80916C00816080935D
:100F50006C008091680082608093680060937D01DE
:100F60008091880181600FC080916C0082608093C5
:100F70006C008091680082608093680060937E01BD
:100F800080918801826080938801089580916C002F
:100F9000846080936C008091680082608093680018
:100FA00060937F01809188018460EDCF80916C0017
:100FB000886080936C0080916800826080936800F4
:100FC00060938001809188018860DDCF80916C0002
:100FD000806180936C0080916800826080936800DB
:100FE00060938101809188018061CDCF80916C00F8
:100FF000806280936C0080916800826080936800BA
:1010000060938201809188018062BDCF80916D00E4
:10101000886080936D008091680084608093680090
:101020006093830180918701886080938701089590
:1010300080916B00826080936B008091680081607A
:1010400080936800609384018091890182601FC051
:1010500080916B00846080936B0080916800816058
:1010600080936800609385018091890184600FC03E
:1010700080916B00886080936B0080916800816034
:1010800080936800609386018091890188608093D5
:10109000890108951F920F920FB60F9211242F937A
:1010A0003F938F939F93AF93BF938091AB019091A8
:1010B000AC01A091AD01B091AE013091AA0123E045
:1010C000230F2D3720F40196A11DB11D05C026E880
:1010D000230F0296A11DB11D2093AA018093AB019D
:1010E0009093AC01A093AD01B093AE018091AF019C
:1010F0009091B001A091B101B091B2010196A11DF2
:10110000B11D8093AF019093B001A093B101B09352
:10111000B201BF91AF919F918F913F912F910F900D
:101120000FBE0F901F9018952FB7F8946091AB01E8
:101130007091AC018091AD019091AE012FBF0895E7
:101140003FB7F8948091AF019091B001A091B101A7
:10115000B091B20126B5A89B05C02F3F19F00196AA
:10116000A11DB11D3FBF6627782F892F9A2F620FCF
:10117000711D811D911D42E0660F771F881F991F09
:101180004A95D1F70895789484B5826084BD84B57A
:10119000816084BD85B5826085BD85B5816085BD72
:1011A000EEE6F0E0808181608083E1E8F0E010828B
:1011B000808182608083808181608083E0E8F0E0CC
:1011C000808181608083E1EBF0E0808184608083B6
:1011D000E0EBF0E0808181608083EAE7F0E08081ED
:1011E000846080838081826080838081816080834D
:1011F0008081806880831092C1000895833081F0DF
:1012000028F4813099F08230A1F008958630A9F059
:101210008730B9F08430D1F4809180008F7D03C095
:10122000809180008F7780938000089584B58F77B8
:1012300002C084B58F7D84BD08958091B0008F7702
:1012400003C08091B0008F7D8093B0000895CF934C
:10125000DF9390E0FC01E25BFE4F2491FC01EE592C
:10126000FE4F8491882349F190E0880F991FFC017B
:10127000E657FE4FA591B49180589E4FFC01C59151
:10128000D4919FB7611108C0F8948C912095822366
:101290008C93888182230AC0623051F4F8948C9137
:1012A000322F309583238C938881822B888304C0CE
:1012B000F8948C91822B8C939FBFDF91CF910895EE
:1012C0000F931F93CF93DF931F92CDB7DEB7282FD5
:1012D00030E0F901E65CFE4F8491F901E25BFE4FDC
:1012E0001491F901EE59FE4F04910023C9F08823AF
:1012F00021F069830E94FE086981E02FF0E0EE0F83
:10130000FF1FE058FE4FA591B4919FB7F8948C91C0
:10131000611103C01095812301C0812B8C939FBF65
:101320000F90DF91CF911F910F9108951F93CF934D
:10133000DF93182FEB0161E00E942709209711F439
:1013400060E004C0CF3FD10539F461E0812FDF9127
:10135000CF911F910C946009E12FF0E0E65CFE4F05
:10136000E491E330F9F048F4E130B9F0E230A1F56E
:1013700084B5806284BDC8BD34C0E630E9F0E73092
:1013800019F1E43049F580918000806280938000FB
:10139000D0938B00C0938A0024C084B5806884BD3C
:1013A000C7BD1FC080918000806880938000D0936B
:1013B0008900C093880015C08091B0008068809338
:1013C000B000C093B3000DC08091B00080628093E4
:1013D000B000C093B40005C0C038D1050CF0B5CF43
:1013E000AFCFDF91CF911F9108950E94C3080E9453
:1013F000F600C0E0D0E00E942B012097E1F30E94AC
:101400000000F9CFCF92DF92EF92FF920F931F93DC
:10141000CF93DF936C017A01EB01E60EF71E00E03B
:1014200010E0CE15DF0561F06991D601ED91FC91D8
:101430000190F081E02DC6010995080F191FF1CF29
:10144000C801DF91CF911F910F91FF90EF90DF9036
:10145000CF90089597FB072E16F4009407D077FDE0
:1014600009D00E94440A07FC05D03EF4909581956E
:101470009F4F0895709561957F4F0895EE0FFF1F60
:101480000590F491E02D0994AA1BBB1B51E107C004
:10149000AA1FBB1FA617B70710F0A61BB70B881F04
:1014A000991F5A95A9F780959095BC01CD01089593
:1014B00011E0C6E9D1E004C0FE010E94400A229674
:0A14C000C839D107C9F7F894FFCF2F
:1014CA00083F0E00000000E502020A55023B026BCB
:0414DA0002630200A7
:00000001FF
