:100000000C945D000C9485000C9485000C94850084
:100010000C9485000C9485000C9485000C9485004C
:100020000C9485000C9485000C9485000C9485003C
:100030000C9485000C9485000C9485000C9485002C
:100040000C94CB030C9485000C9476020C94B902AA
:100050000C9485000C9485000C9485000C9485000C
:100060000C9485000C94850000000007000201003C
:100070000003040600000000000000000102040864
:100080001020408001020408102001020408102002
:10009000040404040404040402020202020203032E
:1000A0000303030300000000250028002B000000CC
:1000B0000000240027002A00750311241FBECFEF83
:1000C000D8E0DEBFCDBF11E0A0E0B1E0E4E4F9E0AC
:1000D00002C005900D92A231B107D9F711E0A2E15B
:1000E000B1E001C01D92A53CB107E1F710E0CAEBF9
:1000F000D0E004C02297FE010E949C04C83BD107B7
:10010000C9F70E94D1010C94A0040C94000040E8AF
:1001100055E260E070E082E191E00E94F40261E06B
:100120008EE00E94E60061E08FE00C94E600CF9341
:10013000DF9383E10E945501EC0182E10E945501A9
:100140008C0F9D1F97FD0196BC01759567958EE0FC
:100150000E94720184E10E945501EC0185E10E9438
:1001600055018C0F9D1F97FD0196BC0175956795F4
:100170008FE0DF91CF910C947201833081F028F4ED
:10018000813099F08230A1F008958630A9F087304F
:10019000B9F08430D1F4809180008F7D03C08091CC
:1001A00080008F7780938000089584B58F7702C098
:1001B00084B58F7D84BD08958091B0008F7703C092
:1001C0008091B0008F7D8093B0000895CF93DF932E
:1001D00090E0FC01E458FF4F2491FC01E057FF4FF1
:1001E0008491882349F190E0880F991FFC01E25522
:1001F000FF4FA591B4918C559F4FFC01C591D491AF
:100200009FB7611108C0F8948C91209582238C933C
:10021000888182230AC0623051F4F8948C91322F85
:10022000309583238C938881822B888304C0F89433
:100230008C91822B8C939FBFDF91CF9108950F9368
:100240001F93CF93DF931F92CDB7DEB7282F30E0F7
:10025000F901E859FF4F8491F901E458FF4F1491D7
:10026000F901E057FF4F04910023C9F0882321F0E2
:1002700069830E94BD006981E02FF0E0EE0FFF1F4F
:10028000EC55FF4FA591B4919FB7F8948C916111F3
:1002900003C01095812301C0812B8C939FBF0F90C9
:1002A000DF91CF911F910F9108958E3008F08E50FD
:1002B00087702091000190E4299F90011124822BE6
:1002C00080937C0080917A00806480937A00809192
:1002D0007A0086FDFCCF809178002091790090E033
:1002E000922B08951F93CF93DF93182FEB0161E0BA
:1002F0000E94E600209711F460E004C0CF3FD105D2
:1003000039F461E0812FDF91CF911F910C941F018F
:10031000E12FF0E0E859FF4FE491E330F9F048F4C1
:10032000E130B9F0E230A1F584B5806284BDC8BD8A
:1003300034C0E630E9F0E73019F1E43049F5809156
:100340008000806280938000D0938B00C0938A00ED
:1003500024C084B5806884BDC7BD1FC08091800063
:10036000806880938000D0938900C093880015C076
:100370008091B00080688093B000C093B3000DC03E
:100380008091B00080628093B000C093B40005C03B
:10039000C038D1050CF0B5CFAFCFDF91CF911F9111
:1003A00008950E9415040E948700C0EBD2E00E94CD
:1003B00097002097E1F30E94B002F9CFFC01248559
:1003C0003585F901E05CFF4F80819181F901EE5B99
:1003D000FF4F20813181821B930B8F7399270895E2
:1003E000FC0184859585FC01E05CFF4F40815181D3
:1003F000FC01EE5BFF4F208131814217530741F032
:100400000190F081E02DE80FF91F808190E00895C0
:100410008FEF9FEF0895FC0184859585FC01E05CDA
:10042000FF4F40815181FC01EE5BFF4F2081318104
:100430004217530779F0A081B181A80FB91F8C91A1
:10044000208131812F5F3F4F2F73332731832083EA
:1004500090E008958FEF9FEF0895FC0181A188231C
:1004600029F0A489B5898C9186FFFBCF11A208954C
:10047000CF93DF93FC0126853785D901A05CBF4F60
:100480008D919C91119701968F739927E901CE5B0D
:10049000DF4F4881598184179507D9F30D90BC919E
:1004A000A02DA20FB31F6C93A685B785A05CBF4F8C
:1004B00011969C938E93A689B7892C9181E090E048
:1004C000078C02C0880F991F0A94E2F7282B2C93FF
:1004D00081E081A30488F589E02D80818064808398
:1004E00081E090E0DF91CF91089508951F920F92DF
:1004F0000FB60F9211242F933F934F938F939F9397
:10050000EF93FF938091C00082FD1CC04091C60014
:100510008091B8019091B90101968F73992720912C
:10052000BA013091BB018217930771F0E091B801D5
:10053000F091B901E858FE4F40839093B901809340
:10054000B80102C08091C600FF91EF919F918F91F9
:100550004F913F912F910F900FBE0F901F901895C4
:1005600082E191E00E94DE01892B11F00C9475026A
:1005700008951F920F920FB60F9211242F933F935D
:100580008F939F93EF93FF932091740130917501A6
:1005900080917601909177012817390731F4809185
:1005A000C1008F7D8093C10014C0E0917601F0916D
:1005B0007701EC5CFE4F208180917601909177016C
:1005C00001968F73992790937701809376012093FA
:1005D000C600FF91EF919F918F913F912F910F90C6
:1005E0000FBE0F901F901895CF92DF92EF92FF925F
:1005F000CF93DF93EC016A017B01411581EE58072F
:1006000061057105F9F0EC89FD8981E090E008A0B1
:1006100002C0880F991F0A94E2F7808360E079E0B6
:100620008DE390E0A70196010E94780421503109E2
:10063000410951095695479537952795211580E130
:10064000380798F0EC89FD89108260E874E88EE143
:1006500090E0A70196010E947804215031094109D8
:1006600051095695479537952795E889F98930833B
:10067000EA89FB89208319A2EE89FF89408181E004
:1006800090E09C010C8C02C0220F331F0A94E2F709
:10069000422B4083EE89FF8940819C010D8C02C072
:1006A000220F331F0A94E2F7422B4083EE89FF8921
:1006B00040819C010E8C02C0220F331F0A94E2F786
:1006C000422B4083EE89FF8920810F8C02C0880F66
:1006D000991F0A94E2F7809582238083DF91CF915E
:1006E000FF90EF90DF90CF90089510921501109237
:1006F000140188EE93E0A0E0B0E08093160190939F
:100700001701A0931801B093190185E091E090932F
:1007100013018093120188E791E090931F01809369
:100720001E0184E391E0909321018093200185ECE8
:1007300090E0909323018093220184EC90E09093C9
:1007400025018093240180EC90E090932701809311
:10075000260181EC90E0909329018093280182EC9E
:1007600090E090932B0180932A0186EC90E0909387
:100770002D0180932C0184E080932E0183E08093EF
:100780002F0187E08093300185E08093310181E083
:100790008093320108951F920F920FB60F92112489
:1007A0002F933F938F939F93AF93BF938091BD01FE
:1007B0009091BE01A091BF01B091C0013091BC01E8
:1007C00023E0230F2D3720F40196A11DB11D05C094
:1007D00026E8230F0296A11DB11D2093BC01809332
:1007E000BD019093BE01A093BF01B093C001809161
:1007F000C1019091C201A091C301B091C4010196C1
:10080000A11DB11D8093C1019093C201A093C301AA
:10081000B093C401BF91AF919F918F913F912F9160
:100820000F900FBE0F901F901895789484B582603A
:1008300084BD84B5816084BD85B5826085BD85B584
:10084000816085BDEEE6F0E0808181608083E1E833
:10085000F0E010828081826080838081816080836B
:10086000E0E8F0E0808181608083E1EBF0E080816E
:1008700084608083E0EBF0E0808181608083EAE740
:10088000F0E08081846080838081826080838081C9
:10089000816080838081806880831092C100089588
:1008A000CF92DF92EF92FF920F931F93CF93DF933C
:1008B0006C017A01EB01E60EF71E00E010E0CE15A8
:1008C000DF0561F06991D601ED91FC910190F08115
:1008D000E02DC6010995080F191FF1CFC801DF915E
:1008E000CF911F910F91FF90EF90DF90CF900895DF
:1008F000A1E21A2EAA1BBB1BFD010DC0AA1FBB1F24
:10090000EE1FFF1FA217B307E407F50720F0A21B95
:10091000B30BE40BF50B661F771F881F991F1A9402
:1009200069F760957095809590959B01AC01BD012C
:10093000CF010895EE0FFF1F0590F491E02D09946B
:04094000F894FFCF59
:10094400010000000038025004DE010B02F0012D0A
:0209540002009F
:00000001FF
