:100000000C94B2000C94DA000C94DA000C94F9020F
:100010000C941D030C9441030C94DA000C94DA0048
:100020000C94DA000C94DA000C94DA000C94DA00E8
:100030000C94DA000C94DA000C94DA000C94DA00D8
:100040000C9465080C94DA000C94030A0C94460A8C
:100050000C94DA000C94DA000C94DA000C94DA00B8
:100060000C94DA000C94DA0000C2010001001100C7
:1000700011000C0000E100000A002500250021000D
:10008000009600001900390039003600127A00008D
:100090001F004600460044008070000022004D0012
:1000A0004D004A00004B00003600750075007200DC
:1000B000403800004A009C009C0099008025000008
:1000C0007200EC00EC00E900C0120000E900DA0167
:1000D000DA01D70160090000D701B603B603B30304
:1000E000B0040000B3036E076E076B0758020000F0
:1000F0006E07DC0EDC0ED80E2C010000DC0EC11DDC
:10010000C11DBE1D0000000700020100000304061F
:1001100000000000000000000102040810204080E0
:100120000102040810200102040810200404040441
:100130000404040402020202020203030303030391
:100140000000000023002600290000000000250018
:1001500028002B0000000000240027002A00F400E3
:10016000020B080111241FBECFEFD8E0DEBFCDBFC8
:1001700011E0A0E0B1E0EAE6F7E102C005900D92DF
:10018000A633B107D9F712E0A6E3B1E001C01D9292
:10019000AD35B107E1F711E0C2E6D1E004C0229726
:1001A000FE010E94A40BCE35D107C9F70E945E095B
:1001B0000C94A80B0C94000040E052EC61E070E05D
:1001C0008FEA91E00E94810A40E052EC61E070E029
:1001D00086E491E00E94E30361E089E00E94A606C4
:1001E00060E089E00C94DF060F9320E048E067E0D0
:1001F00086E491E00E94B3030FEF20EA3FE043E082
:1002000060E071E086E391E00E9432060F9108956C
:1002100084E291E0909337018093360186E391E088
:100220000E94530686E491E00C94A504CF92DF92DD
:10023000EF92FF920F931F93CF93DF93CDB7DEB76B
:1002400060970FB6F894DEBF0FBECDBF81E10E946C
:1002500018099A83898382E10E9418099C838B8301
:1002600083E10E9418099E838D8384E10E9418090E
:1002700098878F8385E10E9418099A8789877E0174
:100280008BE0E80EF11C41E0B70186E391E00E94AB
:10029000C90561E089E00E94DF0660E089E00E9414
:1002A000DF068E010F5F1F4FF801D08061810E5F66
:1002B0001F4F86E491E00E9487026D2D86E491E055
:1002C0000E9487020E151F0579F76E01F1E1CF0E2E
:1002D000D11C7801F801618186E491E00E948702D7
:1002E0000E5F1F4FF701608186E491E00E94870254
:1002F0000C151D0571F760960FB6F894DEBF0FBEA2
:10030000CDBFDF91CF911F910F91FF90EF90DF90C4
:10031000CF9008952091A4013091A50128173907A5
:10032000B9F49091620180916301981789F0E0918E
:100330006201F0E0EC59FE4F80812091620130E0D3
:100340002F5F3F4F2F7333272093620190E0089572
:100350008FEF9FEF08952091A4013091A5012817F8
:10036000390781F49091620180916301981751F0EF
:10037000E0916201F0E0EC59FE4F8081992787FD02
:10038000909508958FEF9FEF08952091A4013091EB
:10039000A5012817390771F480916301209162014A
:1003A00090E0805C9F4F821B910960E470E00E94A6
:1003B0006C0B089580E090E008952091A4013091A5
:1003C000A5012817390739F48FB7F8941092630103
:1003D000109262018FBF0895DC015196ED91FC915E
:1003E0005297208150968C91809582238083089526
:1003F00020E001972FEF8F3F9207D9F708952091C2
:10040000A4013091A5012817390789F0FC01238D3B
:100410002E7F238F2FB7F894109263011092620100
:100420009093A5018093A4012FBF81E0089580E0FF
:100430000895EF92FF920F931F93CF93DF93EC01F8
:100440008B8DEE85FF859D8581FF04C0808189238A
:1004500029F447C08081892309F043C08B899C8996
:100460000E94F80108E010E0EE24E394F12C8D895D
:100470009E890E94F801EE85FF8580819D858923F4
:1004800011F0FE2803C08E2D8095F822EE0C01504D
:1004900011090115110559F78F89988D0E94F801EE
:1004A0008B8D81FDF094809163012091620190E039
:1004B00001968F73992730E08217930779F0E091C6
:1004C0006301F0E0EC59FE4FF0828091630190E00F
:1004D00001968F7399278093630103C08B8D816090
:1004E0008B8FDF91CF911F910F91FF90EF90089527
:1004F000611102C00C94EC01DC015196ED91FC916C
:100500005297208150968C91282B20830895DF925A
:10051000EF92FF920F931F93CF93DF93EC01E62EA0
:10052000898D9A8D892B39F481E090E09B838A83B1
:1005300080E090E04DC0DFB6F8946B8D66956170F9
:10054000CE010E947802898D9A8D05960E94F8014D
:100550008B8D08E010E0FF24F39481FF19C08F2DEC
:100560008E2121F0CE010E94EC0104C061E0CE0199
:100570000E947802898D9A8D0E94F801FF0C01502B
:1005800011090115110559F7CE010E94EC0119C09E
:100590008F2D8E2129F061E0CE010E94780203C0E8
:1005A000CE010E94EC01898D9A8D0E94F801FF0C0A
:1005B000015011090115110559F761E0CE010E94A2
:1005C0007802DFBE898D9A8D0E94F80181E090E06B
:1005D000DF91CF911F910F91FF90EF90DF900895E1
:1005E0008091A4019091A501009711F00C9419023B
:1005F00008951F920F920FB60F9211242F933F93DD
:100600004F935F936F937F938F939F93AF93BF931A
:10061000EF93FF930E94F002FF91EF91BF91AF9192
:100620009F918F917F916F915F914F913F912F910A
:100630000F900FBE0F901F9018951F920F920FB63C
:100640000F9211242F933F934F935F936F937F9358
:100650008F939F93AF93BF93EF93FF930E94F0020A
:10066000FF91EF91BF91AF919F918F917F916F918A
:100670005F914F913F912F910F900FBE0F901F9060
:1006800018951F920F920FB60F9211242F933F933C
:100690004F935F936F937F938F939F93AF93BF938A
:1006A000EF93FF930E94F002FF91EF91BF91AF9102
:1006B0009F918F917F916F915F914F913F912F917A
:1006C0000F900FBE0F901F9018951F93CF93DF933D
:1006D000EC01162F61E0812F0E94A60661E0812FB8
:1006E0000E94DF06812F90E0FC01E85EFE4FE4915E
:1006F000E88BFC01E45DFE4FE491F0E0EE0FFF1F9C
:10070000E65BFE4F859194919A8B898BDF91CF9117
:100710001F9108951F93CF93DF93EC01162F60E094
:10072000812F0E94A6068B8D81FD04C061E0812F80
:100730000E94DF061C87812F90E0FC01E85EFE4FDF
:10074000E491ED87FC01E45DFE4FE491F0E0EE0FF3
:10075000FF1FE05CFE4F859194919F878E87DF910C
:10076000CF911F910895FF920F931F93CF93DF9323
:10077000EC01F62E522F1B821A8208EE13E020E0C5
:1007800030E00C831D832E833F838EE091E09983BC
:1007900088831C8A1B8A1E8A1D8A188E1F8A1A8EBD
:1007A000198E8B8D8E7F50FB81F98B8F642FCE013C
:1007B0000E9465036F2DCE01DF91CF911F910F91A4
:1007C000FF900C948A030F931F93CF93DF93EC0158
:1007D0001A8E198E188E1F8A1E8A1D8AA8E6B0E00E
:1007E00080E090E0FD010591159125913491041769
:1007F00015072607370719F54CE0489F9001499FD8
:10080000300D1124F901E459FF4F859194919C8B8F
:100810008B8BF901E259FF4F859194919E8B8D8BC3
:10082000F901E059FF4F85919491988F8F8B2E5845
:100830003F4FF901859194919A8F898F08C0019655
:100840001C968D30910509F0CDCF1C8A1B8A8F89AB
:10085000988D892B09F443C08C858631E0F5209171
:100860006800883050F091E08E3008F490E081E02C
:1008700001C0880F9A95EAF701C084E0822B80932B
:1008800068002C85283038F02E3040F0263148F0B2
:10089000E0E0F0E008C0EDE6F0E005C0EBE6F0E0F7
:1008A00002C0ECE6F0E03081283030F481E001C095
:1008B000880F2A95EAF70DC0822F90E02E3010F4B1
:1008C000089701C00E9791E001C0990F8A95EAF749
:1008D000892F832B8083898D9A8D0E94F801CE0108
:1008E000DF91CF911F910F910C94FF01FC01448582
:1008F000463150F5483028F04E3030F4EBE6F0E069
:1009000005C0EDE6F0E002C0ECE6F0E050814830D2
:1009100040F481E090E0042E01C0880F0A94EAF7C9
:1009200010C0242F30E04E3018F42850310902C096
:100930002E50310981E090E0022E01C0880F0A9408
:10094000EAF780958523808308952EE031E0FC014D
:10095000318320830C9476046F927F928F929F92C2
:10096000AF92BF92CF92DF92EF92FF920F931F93BD
:10097000CF93DF93EC018B018A859B85892B09F44A
:1009800074C0D12C8C85D816E8F4ED2CF12C8E8512
:100990009F85F701EE0FFF1FE00FF11F918380830A
:1009A000EA85FB85EE0DFF1D61E080810E94DF0678
:1009B000EA85FB85EE0DFF1D61E080810E94A606A1
:1009C000D394E0CF8AE090E00E94D208D12C8C85AD
:1009D000D816A0F4ED2CF12CEA85FB85EE0DFF1D59
:1009E00060E080810E94A606EA85FB85EE0DFF1D72
:1009F00060E080810E94DF06D394E9CF0E94AF08B7
:100A00006B017C010E94AF086C197D098E099F095A
:100A10002E853F854901A12CB12C681579058A05E1
:100A20009B0518F50E94AF083B016C187D08912CBE
:100A30008C85981638F7A92CB12CAA85BB85AA0DF0
:100A4000BB1D8C910E941507892B51F4F501EE0F07
:100A5000FF1FE00FF11F808191816816790610F069
:100A60009394E6CF71826082FBCFDF91CF911F918B
:100A70000F91FF90EF90DF90CF90BF90AF909F903D
:100A80008F907F906F900895EF92FF920F931F9336
:100A9000CF93DF931F92CDB7DEB77C018B01DC01D2
:100AA00013961C921E92129715961C921E921497E2
:100AB00017961C921E92169719961C921E921897C2
:100AC000413120F080E11C968C9302C0FC014487E8
:100AD000D7011A968D919C911B97892B11F030E0CC
:100AE0000FC0F701848590E029830E943E07D7015B
:100AF0001B969C938E931A972981892B81F715C099
:100B0000F7018485381780F4832F90E0F801E80F0F
:100B1000F91F4081D7011A96ED91FC911B97E80FC0
:100B2000F91F40833F5FECCF25870F90DF91CF9176
:100B30001F910F91FF90EF900895CF93DF93EC01F9
:100B40008D858F3F69F061E00E94A60660E08D858B
:100B50000E94DF0688EC90E0DF91CF910C94D208E0
:100B6000DF91CF910895CF93DF93EC018D858F3F77
:100B700069F061E00E94A60661E08D850E94DF06B3
:100B800088EC90E0DF91CF910C94D208DF91CF9167
:100B90000895DF92EF92FF920F931F93CF93DF930D
:100BA000CDB7DEB7A0970FB6F894DEBF0FBECDBFAE
:100BB0008C017B01D42E8FEF840F823020F4C8018A
:100BC0000E94B30503C0C8010E949D05D801ED91A4
:100BD000FC910190F081E02DB701C8010995C80191
:100BE0000E949D05B2E0DB122FC0D801ED91FC916F
:100BF0000190F081E02DBE016F5F7F4FC801099524
:100C000040E0F80184854817F8F4842F90E0880FBD
:100C1000991FF701E80FF91F21E030E02C0F3D1F6D
:100C2000820F931FD8011E962D913C911F97DC01D6
:100C30008D919C91281B390B80819181820F931F8C
:100C4000918380834F5FDDCFA0960FB6F894DEBF0F
:100C50000FBECDBFDF91CF911F910F91FF90EF900D
:100C6000DF900895EF92FF920F93CF93DF93EC0103
:100C70007901202F84E291E0998388831B821A8274
:100C80001D821C821F821E82198618861B861A8668
:100C9000CE010E944405FF86EE86DF91CF910F9131
:100CA000FF90EF900895CF93DF93EC018EE191E0F8
:100CB000998388838A859B85009711F00E94D607C7
:100CC0008C819D81009711F00E94D60788859985B7
:100CD000009711F00E94D6078A819B81009711F03E
:100CE0000E94D6078E819F81009721F0DF91CF91DE
:100CF0000C94D607DF91CF910895833081F028F4CA
:100D0000813099F08230A1F008958630A9F08730C3
:100D1000B9F08430D1F4809180008F7D03C0809140
:100D200080008F7780938000089584B58F7702C00C
:100D300084B58F7D84BD08958091B0008F7703C006
:100D40008091B0008F7D8093B0000895CF93DF93A2
:100D500090E0FC01E85EFE4F2491FC01E45DFE4F53
:100D60008491882349F190E0880F991FFC01EC5A87
:100D7000FE4FA591B491865B9E4FFC01C591D49125
:100D80009FB7611108C0F8948C91209582238C93B1
:100D9000888182230AC0623051F4F8948C91322FFA
:100DA000309583238C938881822B888304C0F894A8
:100DB0008C91822B8C939FBFDF91CF9108950F93DD
:100DC0001F93CF93DF931F92CDB7DEB7282F30E06C
:100DD000F901EC5FFE4F8491F901E85EFE4F14913A
:100DE000F901E45DFE4F04910023C9F0882321F04E
:100DF00069830E947D066981E02FF0E0EE0FFF1FFE
:100E0000E65BFE4FA591B4919FB7F8948C91611168
:100E100003C01095812301C0812B8C939FBF0F903D
:100E2000DF91CF911F910F910895CF93DF93282FDA
:100E300030E0F901EC5FFE4F8491F901E85EFE4F6E
:100E4000D491F901E45DFE4FC491CC2391F081115E
:100E50000E947D06EC2FF0E0EE0FFF1FE05CFE4FDE
:100E6000A591B4912C912D2381E090E021F480E0B4
:100E700002C080E090E0DF91CF910895CF93DF939F
:100E80008230910510F482E090E0E0915B02F091F5
:100E90005C0220E030E0A0E0B0E0309739F1408122
:100EA000518148175907B8F04817590771F48281E2
:100EB0009381109729F013969C938E9312972CC0D0
:100EC00090935C0280935B0227C02115310531F0BD
:100ED0004217530718F0A901DB0101C0EF019A0185
:100EE000BD01DF010280F381E02DD7CF211531054F
:100EF000F9F0281B390B2430310580F48A819B815D
:100F00006115710521F0FB019383828304C09093E6
:100F10005C0280935B02FE01329644C0FE01E20F48
:100F2000F31F8193919322503109398328833AC06A
:100F30002091590230915A02232B41F4209105014E
:100F40003091060130935A022093590220910301F7
:100F5000309104012115310541F42DB73EB7409180
:100F6000070150910801241B350BE0915902F091C3
:100F70005A02E217F307A0F42E1B3F0B281739077C
:100F800078F0AC014E5F5F4F2417350748F04E0FE5
:100F90005F1F50935A02409359028193919302C06C
:100FA000E0E0F0E0CF01DF91CF910895CF93DF93A0
:100FB000009709F487C0FC01329713821282C09116
:100FC0005B02D0915C02209781F420813181280F4F
:100FD000391F8091590290915A028217930779F52F
:100FE000F0935A02E09359026DC0DE0120E030E038
:100FF000AE17BF0750F412964D915C9113979D0167
:101000004115510509F1DA01F3CFB383A283408181
:101010005181840F951F8A179B0771F48D919C91C4
:101020001197840F951F02969183808312968D915C
:101030009C911397938382832115310529F4F093B2
:101040005C02E0935B023EC0D9011396FC93EE93E1
:1010500012974D915D91A40FB51FEA17FB0779F424
:1010600080819181840F951F0296D90111969C93DE
:101070008E938281938113969C938E931297E0E0D6
:10108000F0E08A819B81009719F0FE01EC01F9CF15
:10109000CE01029628813981820F931F2091590237
:1010A00030915A022817390769F4309729F41092C1
:1010B0005C0210925B0202C013821282D0935A0229
:1010C000C0935902DF91CF9108951F920F920FB6EE
:1010D0000F9211242F933F938F939F93AF93BF93BE
:1010E0008091A7019091A801A091A901B091AA01B6
:1010F0003091A60123E0230F2D3720F40196A11D86
:10110000B11D05C026E8230F0296A11DB11D209335
:10111000A6018093A7019093A801A093A901B09381
:10112000AA018091AB019091AC01A091AD01B09169
:10113000AE010196A11DB11D8093AB019093AC014E
:10114000A093AD01B093AE01BF91AF919F918F91EC
:101150003F912F910F900FBE0F901F9018953FB7A2
:10116000F8948091AB019091AC01A091AD01B09148
:10117000AE0126B5A89B05C02F3F19F00196A11D11
:10118000B11D3FBF6627782F892F9A2F620F711DDF
:10119000811D911D42E0660F771F881F991F4A9598
:1011A000D1F708950197009739F0880F991F880F9C
:1011B000991F02970197F1F70895789484B582609A
:1011C00084BD84B5816084BD85B5826085BD85B5EB
:1011D000816085BDEEE6F0E0808181608083E1E89A
:1011E000F0E01082808182608083808181608083D2
:1011F000E0E8F0E0808181608083E1EBF0E08081D5
:1012000084608083E0EBF0E0808181608083EAE7A6
:10121000F0E080818460808380818260808380812F
:10122000816080838081806880831092C1000895EE
:101230008E3008F08E5087702091090190E4299F2C
:1012400090011124822B80937C0080917A0080642D
:1012500080937A0080917A0086FDFCCF809178009F
:101260002091790090E0922B08950895CF92DF921B
:10127000EF92FF920F931F93CF93DF936C017A014C
:10128000EB01E60EF71E00E010E0CE15DF0561F081
:101290006991D601ED91FC910190F081E02DC6019C
:1012A0000995080F191FF1CFC801DF91CF911F9148
:1012B0000F91FF90EF90DF90CF9008950E94DD088E
:1012C0000E94DC00CDE3DAE00E9416012097E1F3F2
:1012D0000E943D0AF9CFFC0124853585F901E05CC7
:1012E000FF4F80819181F901EE5BFF4F20813181B9
:1012F000821B930B8F7399270895FC018485958534
:10130000FC01E05CFF4F40815181FC01EE5BFF4F2F
:10131000208131814217530741F00190F081E02D87
:10132000E80FF91F808190E008958FEF9FEF0895F7
:10133000FC0184859585FC01E05CFF4F4081518173
:10134000FC01EE5BFF4F208131814217530779F09A
:10135000A081B181A80FB91F8C91208131812F5FAD
:101360003F4F2F7333273183208390E008958FEF11
:101370009FEF0895FC0181A1882329F0A489B589F4
:101380008C9186FFFBCF11A20895CF93DF93FC01D0
:1013900026853785D901A05CBF4F8D919C9111970F
:1013A00001968F739927E901CE5BDF4F4881598100
:1013B00084179507D9F30D90BC91A02DA20FB31FF0
:1013C0006C93A685B785A05CBF4F11969C938E93B6
:1013D000A689B7892C9181E090E0078C02C0880F24
:1013E000991F0A94E2F7282B2C9381E081A30488AB
:1013F000F589E02D80818064808381E090E0DF9139
:10140000CF91089508951F920F920FB60F92112455
:101410002F933F934F938F939F93EF93FF938091DD
:10142000C00082FD1CC04091C60080915502909181
:10143000560201968F7399272091570230915802D6
:101440008217930771F0E0915502F0915602EB5E1E
:10145000FD4F4083909356028093550202C08091C5
:10146000C600FF91EF919F918F914F913F912F91E6
:101470000F900FBE0F901F9018958FEA91E00E9479
:101480006B09892B11F00C94020A08951F920F9298
:101490000FB60F9211242F933F938F939F93EF9347
:1014A000FF932091110230911202809113029091CA
:1014B00014022817390731F48091C1008F7D809381
:1014C000C10014C0E0911302F0911402EF52FE4FDC
:1014D0002081809113029091140201968F739927B5
:1014E00090931402809313022093C600FF91EF9112
:1014F0009F918F913F912F910F900FBE0F901F9052
:101500001895CF92DF92EF92FF92CF93DF93EC0189
:101510006A017B01411581EE580761057105F9F0FB
:10152000EC89FD8981E090E008A002C0880F991F36
:101530000A94E2F7808360E079E08DE390E0A70110
:1015400096010E94800B215031094109510956959D
:10155000479537952795211580E1380798F0EC8954
:10156000FD89108260E874E88EE190E0A7019601A1
:101570000E94800B21503109410951095695479528
:1015800037952795E889F9893083EA89FB89208393
:1015900019A2EE89FF89408181E090E09C010C8CCA
:1015A00002C0220F331F0A94E2F7422B4083EE89D8
:1015B000FF8940819C010D8C02C0220F331F0A94C9
:1015C000E2F7422B4083EE89FF8940819C010E8C1B
:1015D00002C0220F331F0A94E2F7422B4083EE89A8
:1015E000FF8920810F8C02C0880F991F0A94E2F7AF
:1015F000809582238083DF91CF91FF90EF90DF90E1
:10160000CF9008951092B2011092B10188EE93E04C
:10161000A0E0B0E08093B3019093B401A093B50132
:10162000B093B6018AE291E09093B0018093AF014C
:1016300085E192E09093BC018093BB0181ED91E044
:101640009093BE018093BD0185EC90E09093C00122
:101650008093BF0184EC90E09093C2018093C1011C
:1016600080EC90E09093C4018093C30181EC90E002
:101670009093C6018093C50182EC90E09093C801DD
:101680008093C70186EC90E09093CA018093C901D2
:1016900084E08093CB0183E08093CC0187E080934A
:1016A000CD0185E08093CE0181E08093CF01089544
:1016B000AA1BBB1B51E107C0AA1FBB1FA617B70778
:1016C00010F0A61BB70B881F991F5A95A9F7809594
:1016D0009095BC01CD01089597FB072E16F4009458
:1016E00007D077FD09D00E94580B07FC05D03EF4C7
:1016F000909581959F4F0895709561957F4F0895BE
:10170000A1E21A2EAA1BBB1BFD010DC0AA1FBB1F05
:10171000EE1FFF1FA217B307E407F50720F0A21B77
:10172000B30BE40BF50B661F771F881F991F1A94E4
:1017300069F760957095809590959B01AC01BD010E
:10174000CF010895EE0FFF1F0590F491E02D09944D
:1017500011E0C2E6D1E004C0FE010E94A40B229673
:0A176000C436D107C9F7F894FFCF93
:10176A000E0F1000005D02800001000000008702D9
:10177A003609C5018A01AB01DD0100000000350907
:10178A0000000000AC0400000000C50936096B091E
:06179A0098097D09BA095F
:00000001FF
