:100000000C94C7000C94EF000C94EF000C94FC0AC5
:100010000C94370C0C94910C0C94EF000C94EF00A2
:100020000C94EF000C94EF000C94EF000C94EF0094
:100030000C94EF000C94EF000C94EF000C94EF0084
:100040000C94A60E0C94EF000C9418100C945B10FA
:100050000C94EF000C94EF000C94EF000C94EF0064
:100060000C94EF000C94EF00250D680D680D680DE1
:10007000680D680D370D470D570D680D680DC30CE1
:10008000D30CE50CF50C050D150D00C201000100A7
:10009000110011000C0000E100000A0025002500FD
:1000A0002100009600001900390039003600127A4C
:1000B00000001F004600460044008070000022003F
:1000C0004D004D004A00004B0000360075007500E1
:1000D0007200403800004A009C009C009900802576
:1000E00000007200EC00EC00E900C0120000E90022
:1000F000DA01DA01D70160090000D701B603B603BF
:10010000B303B0040000B3036E076E076B07580219
:1001100000006E07DC0EDC0ED80E2C010000DC0E99
:10012000C11DC11DBE1D000000070002010000032B
:100130000406000000000000000001020408102076
:100140004080010204081020010204081020040469
:10015000040404040404020202020202030303036F
:100160000303000000002300260029000000000017
:10017000250028002B0000000000240027002A0092
:10018000AD03630571069610C80367057506112453
:100190001FBECFEFD8E0DEBFCDBF11E0A0E0B1E0E1
:1001A000E8EBF2E202C005900D92A432B107D9F754
:1001B00013E0A4E2B1E001C01D92AB31B107E1F759
:1001C00011E0C8E8D1E004C02297FE010E94371177
:1001D000C038D107C9F70E94EC100C944F110C9451
:1001E00000002F923F924F925F926F927F928F9278
:1001F0009F92AF92BF92CF92DF92EF92FF920F93B6
:100200001F93CF93DF9300D000D000D0CDB7DEB7DF
:1002100083E10E942A0E2C0184E10E942A0E4C01E7
:1002200082E10E942A0E6C016AE070E080E090E0BA
:100230000E941F0F83E10E942A0E3C0184E10E946C
:100240002A0E5C0182E10E942A0E7C016AE070E0C5
:1002500080E090E00E941F0F83E10E942A0E8C0133
:1002600084E10E942A0E1C0182E10E942A0E64147D
:1002700075042CF4041515054CF4820107C04614CE
:10028000570424F4061517050CF48301A814B904C7
:100290002CF4281439044CF4140107C08A149B046C
:1002A00024F42A143B040CF41501EC14FD042CF482
:1002B0008C159D054CF4C60107C0CE14DF0424F450
:1002C0008E159F050CF4C7011A8309839C838B83C9
:1002D0003E822D82202F3A81482F5C81622D7E81C3
:1002E00080E090E026960FB6F894DEBF0FBECDBF3B
:1002F000DF91CF911F910F91FF90EF90DF90CF9002
:10030000BF90AF909F908F907F906F905F904F9035
:100310003F902F90089580E991E00E94F30340E818
:1003200055E260E070E080EA91E00E94200881E000
:1003300080939F0164EF71E080E090E00C941F0FC8
:10034000AF92BF92CF92DF92EF92FF920F931F93E3
:10035000CF93DF93CDB7DEB760970FB6F894DEBFCB
:100360000FBECDBF40918C0150918D0160918E01E7
:1003700070918F0120E030E084E291E00E94440619
:1003800040918C0150918D0160918E0170918F018F
:1003900020E030E080E991E00E94220560938C012A
:1003A00070938D0180938E0190938F01E12CF12C3D
:1003B000CC24C39485E0D82E40918C0150918D01BE
:1003C00060918E0170918F0184E291E00E94540649
:1003D000811139C100918C0110918D010E94F100B1
:1003E00029833A834B835C836D837E83AA24A39401
:1003F00089819A81893C91050CF0A12CBB24B3948E
:100400008B819C81893C91050CF0B12CCE010C961E
:100410000E946B05A11004C0B11002C0C88A46C07A
:1004200001301105C1F01CF4012B41F03EC0023037
:100430001105F1F00330110541F137C0AA2031F068
:1004400060E070E0CE010C960E946C05BB2069F163
:1004500062E070E026C0AA2031F061E070E0CE01D9
:100460000C960E946C05BB2001F163E070E019C09E
:10047000AA2031F062E070E0CE010C960E946C057B
:10048000BB2099F061E070E00CC0AA2031F063E07D
:1004900070E0CE010C960E946C05BB2031F060E04C
:1004A00070E0CE010C960E946C05188AFE013C9605
:1004B000DE0117968D2D01900D928A95E1F7FE01D0
:1004C0003796DE011C968D2D01900D928A95E1F7ED
:1004D000BB84BB2019F00E94960602C00E949F06B2
:1004E000B88A60918C0170918D0180918E019091FC
:1004F0008F010C851D852E853F854B2D0E94D605CD
:100500008C018430910509F075C00E94A2060E94FA
:10051000930680E991E00E94F7038FEFE81AF80A4A
:1005200080918C0190918D018130910571F02CF4B6
:10053000892BB9F483E090E010C08230910541F03E
:10054000039779F481E090E008C082E090E005C074
:1005500010928D0110928C0104C090938D018093B4
:100560008C010E94F10029833A8389819A81883C19
:10057000910584F420918C0130918D0140918C0182
:1005800050918D0160918E0170918F0180E991E011
:100590000E94220582E0E816F10409F00DCF2091B7
:1005A0008C0130918D0140918C0150918D016091B1
:1005B0008E0170918F0184E291E00E9444062091A7
:1005C0008C0130918D0140918C0150918D01609191
:1005D0008E0170918F0180E991E00E942205609365
:1005E0008C0170938D0180938E0190938F01E12C8B
:1005F000F12CE2CE0E949C060E94990640918C014B
:1006000050918D0160918E0170918F01980184E26B
:1006100091E00E94440640918C0150918D016091BF
:100620008E0170918F01980180E991E00E9422056E
:1006300010938D0100938C0168EC70E080E090E0F5
:100640000E941F0FB9CE60960FB6F894DEBF0FBEA2
:10065000CDBFDF91CF911F910F91FF90EF90DF9071
:10066000CF90BF90AF90089540918C0150918D0133
:1006700060918E0170918F0184E291E00E94540696
:10068000811122C040918C0150918D0160918E01A9
:1006900070918F0184E291E00E944C0640918C01A0
:1006A00050918D0160918E0170918F019C0180E9C4
:1006B00091E00E94220560938C0170938D018093DC
:1006C0008E0190938F01D0CF0895CF93DF938BE06D
:1006D0000E94010E892BD9F3CAE0D0E083E10E9489
:1006E0002A0E82E10E942A0E84E10E942A0E63E211
:1006F00070E080E090E00E941F0F2197209771F733
:1007000068EC70E080E090E00E941F0FE0918A01A9
:10071000F0918B018481958190938F0180938E015C
:1007200010928D0110928C010E94A0018BE00E941A
:10073000010E892BD9F3E0918A01F0918B0184811C
:10074000958190938F0180938E0110928D0110926C
:100750008C01DF91CF910C94340380EA91E00E94E8
:10076000F10780E991E00E94D00310928F0110926E
:100770008E0110928D0110928C010E94870590933A
:100780008B0180938A01BC0184E291E00C942706DE
:1007900080E991E00E94F20380EA91E00C94FC0869
:1007A000CF93DF93EC010E94030984E690E09A83E3
:1007B000898388E790E09C838B8380E590E09E832B
:1007C0008D838CE99FEF98878F831A86198680E244
:1007D00093E09C878B8784E393E09E878D87DF91EE
:1007E000CF91089508950E942D090C949006CF93FF
:1007F000DF93EC016F8178850E9469096D817E81AC
:10080000CE010E94A5090E94AB066D857E858827D2
:1008100077FD8095982F0E941F0FCE010E94F30351
:1008200064E670E080E090E0DF91CF910C941F0FC0
:10083000CF93DF93EC016D817E810E9469096F8106
:100840007885CE010E94A5090E94A8068B859C850B
:1008500097FD0196BC01759567956C5E7F4F882763
:1008600077FD8095982F0E941F0FCE010E94F30301
:100870006BE470E080E090E00E941F0F6D817E814C
:10088000CE010E9469096F817885CE010E94A50979
:100890000E94A8068B859C8597FD0196BC017595E5
:1008A00067956C5E7F4F882777FD8095982F0E9413
:1008B0001F0FCE010E94F30364E670E080E090E039
:1008C0000E941F0F0E94A5066B817C8162537109F3
:1008D000CE010E94A50969817A8162537109CE0116
:1008E0000E94690964E670E080E090E0DF91CF91BA
:1008F0000C941F0FCF93DF93EC010E941804CE01DC
:10090000DF91CF910C94180461307105A9F01CF4AB
:10091000672B41F0089562307105B9F063307105BD
:10092000E9F008954230510521F14330510519F1A4
:100930004130510511F51BC042305105E1F0433003
:100940005105B9F0452BC9F412C04130510589F069
:100950004330510561F0452B81F40DC04130510504
:1009600051F04230510519F0452B39F402C00C9476
:100970007A040C9418040C94F703089585E10E94FE
:100980002A0E8132934014F480E0089580E10E94A1
:100990002A0E81329340C4F381E10E942A0E21E0A5
:1009A000813293400CF420E0822F0895EF92FF9261
:1009B0000F931F93CF93DF93EC010E94A5066B81E9
:1009C0007C8162537109CE010E94A50969817A81F7
:1009D00062537109CE010E94690968EC70E080E001
:1009E00090E00E941F0FCE010E94BE04811121C021
:1009F0000B811C8185E10E942A0E081B190BE980DE
:100A0000FA8080E10E942A0EB701681B790B10164C
:100A1000110614F009851A851616170614F0698553
:100A20007A85CE010E946909B801CE010E94A5090C
:100A3000DACFCE01DF91CF911F910F91FF90EF9010
:100A40000C94F303AF92BF92CF92DF92EF92FF929A
:100A50000F931F93CF93DF935C016A017B01E90140
:100A600087012417350721F0A901B6010E948404EB
:100A7000C130D10589F034F42097A9F487010750DB
:100A8000110911C0C230D10559F0C330D10559F454
:100A900087010150110907C08701095F1F4F03C07B
:100AA00087010F5F1F4FC5010E94D604BE01C80118
:100AB000DF91CF911F910F91FF90EF90DF90CF903A
:100AC000BF90AF9008958CEB91E00C94F1078CEB04
:100AD00091E00C94FC080895FC016130710571F0FF
:100AE0001CF4672B41F008956230710551F06330BA
:100AF000710551F0089581E08083089581E081833C
:100B0000089581E08283089581E083830895CF93DF
:100B1000DF93CDB7DEB72E970FB6F894DEBF0FBECA
:100B2000CDBF60E083E00E94920D60E089E00E940A
:100B3000920D83E00E94010E8130910599F49C830F
:100B40008B8385E090E09A8789879C878B8784EBED
:100B500090E09E878D8780E390E09E838D8389E07F
:100B600090E014C082E090E09C838B8386E090E06C
:100B70009A8789879C878B8780EF90E09E878D87F7
:100B800080E390E09E838D8381E090E098878F835F
:100B900089E00E94010ECE0101962E960FB6F894C0
:100BA000DEBF0FBECDBFDF91CF9108950F931F938E
:100BB000CF93DF9300D000D01F92CDB7DEB74111A5
:100BC00032C061307105E9F01CF4672B41F02AC096
:100BD0006230710569F063307105E1F023C02111C5
:100BE0002AC0011122C0311122C01123D9F021C025
:100BF00011111FC021111FC0011117C0332391F023
:100C000016C0311114C0111114C0211114C00023D9
:100C100049F00BC0011109C0311109C0111109C0FF
:100C2000211109C00AC084E007C080E005C083E04C
:100C300003C081E001C082E090E00F900F900F9020
:100C40000F900F90DF91CF911F910F910895FC01AC
:100C5000EC59FF4F71836083FC0122E330E04FEFDA
:100C60005FEF419351932150310921153105C9F7A7
:100C7000DB011496ED91FC911597EE0FFF1FE80F25
:100C8000F91F118210820895FB01EE0FFF1FE80F7C
:100C9000F91F318320830895FB01EE0FFF1FE80F3A
:100CA000F91F8081918108958C599F4FDC01ED914E
:100CB000FC9181E0268137812617370709F080E013
:100CC00008958091D80181110BC040E855E260E0A1
:100CD00070E089ED91E00E94200881E08093D801C6
:100CE000089589ED91E00C94F10789ED91E00C9461
:100CF000FC08CF93DF931F92CDB7DEB789830E94A4
:100D000061068981682F89ED91E00E9458076AE0A9
:100D100070E080E090E00F90DF91CF910C941F0F76
:100D200081E00C94790682E00C94790683E00C94BF
:100D3000790684E00C94790685E00C94790686E0C7
:100D40000C94790687E00C94790688E00C94790677
:100D500089E00C9479068AE00C9479069091F5016B
:100D60008091F601981789F0E091F501F0E0E950E3
:100D7000FE4F80812091F50130E02F5F3F4F2F73B0
:100D800033272093F50190E008958FEF9FEF0895AA
:100D90008091F6012091F50190E0805C9F4F821BCD
:100DA000910960E470E00E94211108958FB7F894D2
:100DB0001092F6011092F5018FBF08959091F50100
:100DC0008091F601981751F0E091F501F0E0E950BB
:100DD000FE4F8081992787FD909508958FEF9FEFB3
:100DE000089520E001972FEF8F3F9207D9F70895DC
:100DF000EF92FF920F931F93CF93DF93EC018B89B8
:100E00009C890E94F10608E010E0EE24E394F12CA6
:100E10008D899E890E94F106EE85FF8580819D85E2
:100E2000892311F0FE2803C08E2D8095F822EE0C48
:100E3000015011090115110559F78F89988D0E94EC
:100E4000F1068091F6012091F50190E001968F73F3
:100E5000992730E08217930779F0E091F601F0E0EE
:100E6000E950FE4FF0828091F60190E001968F7379
:100E700099278093F60103C08B8D81608B8FDF9162
:100E8000CF911F910F91FF90EF900895DC01519643
:100E9000ED91FC91529750969C91611105C0208173
:100EA000892F8095822302C08081892B80830895B9
:100EB000DF92EF92FF920F931F93CF93DF93EC019A
:100EC000D62E898D9A8D892B39F481E090E09B8311
:100ED0008A8380E090E036C0EFB6F894E989FA8919
:100EE00090818889809589238083898D9A8D059644
:100EF0000E94F10608E010E0FF24F3948F2D8D216D
:100F000029F061E0CE010E94460707C0E989FA890D
:100F100090818889809589238083898D9A8D0E940C
:100F2000F106FF0C015011090115110539F761E0B7
:100F3000CE010E944607EFBE898D9A8D0E94F10670
:100F400081E090E0DF91CF911F910F91FF90EF90A2
:100F5000DF9008951F93CF93DF93EC01162F61E08C
:100F6000812F0E94920D61E0812F0E94CB0D812F75
:100F700090E0FC01E65CFE4FE491E88BFC01E25B53
:100F8000FE4FE491F0E0EE0FFF1FE459FE4F859114
:100F900094919A8B898BDF91CF911F9108951F9324
:100FA000CF93DF93EC01162F60E0812F0E94920D0A
:100FB0001C87612F70E0FB01E65CFE4FE491ED873A
:100FC000FB01E25BFE4FE491F0E0EE0FFF1FEE59F4
:100FD000FE4F859194919F878E87DF91CF911F91CE
:100FE0000895CF93DF93EC011B821A8248EE53E001
:100FF00060E070E04C835D836E837F8388E091E0E6
:10100000998388831C8A1B8A1E8A1D8A188E1F8AD0
:101010001A8E198E8B8D8E7F8B8F64E08FE090E01F
:101020000E94B90CD0933A02C09339026EE0CE010F
:101030000E94AA076FE0CE01DF91CF910C94CF07F9
:101040000F931F93CF93DF93DC015A961C921E924D
:10105000599758961C921E92579756961C921E921C
:101060005597CAE8D0E080E090E0FE010591159127
:1010700025913491041715072607370759F54CE0D9
:10108000489F9001499F300D1124F901E257FF4F0D
:101090008591949154969C938E935397F901E057C0
:1010A000FF4F8591949156969C938E935597F90195
:1010B000EE56FF4F8591949158969C938E93579737
:1010C0002C563F4FF901859194915A969C938E939B
:1010D00059970AC001962C968D30910509F0C5CF1D
:1010E00054961C921E92539757968D919C915897A7
:1010F000892B09F44DC01C968C911C978631F0F514
:1011000020916800883050F091E08E3008F490E033
:1011100081E001C0880F9A95EAF701C084E0822B34
:10112000809368001C962C911C97283038F02E3044
:1011300040F0263148F0E0E0F0E008C0EDE6F0E0F5
:1011400005C0EBE6F0E002C0ECE6F0E030812830CC
:1011500030F481E001C0880F2A95EAF70DC0822F94
:1011600090E02E3010F4089701C00E9791E001C076
:10117000990F8A95EAF7892F832B808359968D9151
:101180009C915A97DF91CF911F910F910C94F1068A
:10119000DF91CF911F910F910895FC014485463155
:1011A00050F5483028F04E3030F4EBE6F0E005C062
:1011B000EDE6F0E002C0ECE6F0E05081483040F4AB
:1011C00081E090E0042E01C0880F0A94EAF710C075
:1011D000242F30E04E3018F42850310902C02E5030
:1011E000310981E090E0022E01C0880F0A94EAF7ED
:1011F000809585238083089528E031E0FC013183C8
:1012000020830C94CD0861E087E00E94920D61E09C
:1012100088E00E94920D61E082E00E94920D61E000
:1012200084E00C94920D61E082E00E94CB0D61E0BD
:1012300084E00E94CB0D60E070E085E00C94470EE6
:1012400061E087E00E94CB0D61E088E00E94CB0D59
:1012500060E070E086E00C94470ECF93DF93EC01E2
:101260000E941309CE01DF91CF910C942009CF93F6
:10127000C62F61E082E00E94CB0D60E084E00E9416
:10128000CB0D6C2F70E085E00E94470EE091370295
:10129000F0913802309711F081E08087CF91089566
:1012A000CF93C62F60E082E00E94CB0D61E084E026
:1012B0000E94CB0D6C2F70E085E00E94470EE091FC
:1012C0003702F0913802309711F08FEF8087CF917D
:1012D00008951616170614F40C9437097195619544
:1012E00071090C945009CF93C62F61E087E00E94EA
:1012F000CB0D60E088E00E94CB0D6C2F70E086E0A3
:101300000E94470EE0913702F0913802309711F0B9
:1013100081E08187CF910895CF93C62F60E087E069
:101320000E94CB0D61E088E00E94CB0D6C2F70E035
:1013300086E00E94470EE0913702F0913802309724
:1013400011F08FEF8187CF9108951616170614F4C8
:101350000C9473097195619571090C948C090F9324
:101360001F93FC0161157105B1F06130710529F51C
:101370000185112707FD1095212F312F44815581BB
:1013800066817781400F511F621F731F448355830D
:101390006683778312C00085112707FD1095212FE2
:1013A000312F4081518162817381400F511F621F33
:1013B000731F40835183628373831F910F9108953C
:1013C000CF92DF92EF92FF92E82FF0E0DF01A55C71
:1013D000BD4F8C918230F9F078F4813009F052C021
:1013E000EE0FFF1FEC5AFD4F0190F081E02DFF90B2
:1013F000EF90DF90CF900994833021F1843009F091
:1014000041C08091390290913A02FF90EF90DF90B5
:10141000CF900C94F806C0904C02D0904D02E09012
:101420004E02F0904F020E94FC0E22E3C20ED11C2D
:10143000E11CF11CC616D706E806F90618F560E0AF
:1014400070E016C0C0905002D0905102E09052025D
:10145000F09053020E94FC0E22E3C20ED11CE11C4C
:10146000F11CC616D706E806F90660F461E070E0E4
:101470008091370290913802FF90EF90DF90CF90EB
:101480000C94AF09FF90EF90DF90CF900895CF9329
:10149000C82F8091020181FF02C0C1FF46C0809128
:1014A000020181FD2CC0C1FF2AC08091420282301E
:1014B00051F40E94FC0E60934C0270934D02809395
:1014C0004E0290934F0280914202833051F40E9469
:1014D000FC0E6093500270935102809352029093DD
:1014E000530280914202813051F40E94F00E6093C9
:1014F00048027093490280934A0290934B02809174
:10150000020182FF16C0C2FD14C088E00E94E009FB
:101510008091020183FF3EC0C3FD3CC089E00E9470
:10152000E009C0930201CF91089587E00E94E0098D
:10153000E6CF8091020182FDEBCFC2FFE9CF80911F
:101540004302823051F40E94FC0E60934C0270936F
:101550004D0280934E0290934F028091430283305C
:1015600051F40E94FC0E60935002709351028093DC
:1015700052029093530280914302813049F60E94B7
:10158000F00E609348027093490280934A02909350
:101590004B02BECF8091020182FDC3CFC2FFC1CFFB
:1015A00080914402823051F40E94FC0E60934C0200
:1015B00070934D0280934E0290934F0280914402AB
:1015C000833051F40E94FC0E6093500270935102DC
:1015D000809352029093530280914402813009F02B
:1015E000A0CF0E94F00E609348027093490280934E
:1015F0004A0290934B0295CF1F920F920FB60F9213
:1016000011242F933F934F935F936F937F938F9307
:101610009F93AF93BF93EF93FF9393B18091470252
:1016200089230E94470AFF91EF91BF91AF919F914B
:101630008F917F916F915F914F913F912F910F907B
:101640000FBE0F901F901895CF93C82F8091010166
:1016500080FF02C0C0FF53C08091010180FD1EC009
:10166000C0FF1CC080913B02823051F40E94F00EFA
:1016700060934C0270934D0280934E0290934F0200
:1016800080913B02833051F40E94F00E609350022F
:101690007093510280935202909353028091010102
:1016A00081FF31C0C1FD2FC081E00E94E00980911F
:1016B000010182FF4CC0C2FD4AC082E00E94E009E5
:1016C0008091010183FF67C0C3FD65C083E00E9474
:1016D000E0098091010184FF82C0C4FD80C084E0E4
:1016E0000E94E0098091010185FF9DC0C5FD9BC05E
:1016F00085E00E94E009C0930101CF91089580E048
:101700000E94E009CBCF8091010181FDD0CFC1FFC4
:10171000CECF80913C02823051F40E94F00E609353
:101720004C0270934D0280934E0290934F02809131
:101730003C02833009F0BBCF0E94F00E6093500250
:10174000709351028093520290935302B0CF8091D4
:10175000010182FDB5CFC2FFB3CF80913D0282303F
:1017600051F40E94F00E60934C0270934D028093EE
:101770004E0290934F0280913D02833009F0A0CF3A
:101780000E94F00E609350027093510280935202B7
:101790009093530295CF8091010183FD9ACFC3FFAF
:1017A00098CF80913E02823051F40E94F00E6093F7
:1017B0004C0270934D0280934E0290934F028091A1
:1017C0003E02833009F085CF0E94F00E60935002F4
:1017D0007093510280935202909353027ACF80917A
:1017E000010184FD7FCFC4FF7DCF80913F02823015
:1017F00051F40E94F00E60934C0270934D0280935E
:101800004E0290934F0280913F02833009F06ACFDD
:101810000E94F00E60935002709351028093520226
:10182000909353025FCF8091010185FD64CFC5FF86
:1018300062CF80914002823051F40E94F00E60939A
:101840004C0270934D0280934E0290934F02809110
:101850004002833009F04FCF0E94F00E6093500297
:1018600070935102809352029093530244CF1F927F
:101870000F920FB60F9211242F933F934F935F93C4
:101880006F937F938F939F93AF93BF93EF93FF9348
:1018900096B18091460289230E94240BFF91EF911B
:1018A000BF91AF919F918F917F916F915F914F9178
:1018B0003F912F910F900FBE0F901F901895CF93CF
:1018C000C82F8091000183FF02C0C3FF26C0809112
:1018D000000183FD1EC0C3FF1CC080914102823005
:1018E00051F40E94F00E60934C0270934D0280936D
:1018F0004E0290934F0280914102833051F40E9436
:10190000F00E6093500270935102809352029093B4
:101910005302C0930001CF91089586E00E94E00930
:10192000F8CF1F920F920FB60F9211242F933F936F
:101930004F935F936F937F938F939F93AF93BF93D7
:10194000EF93FF9399B18091450289230E945F0C28
:10195000FF91EF91BF91AF919F918F917F916F9187
:101960005F914F913F912F910F900FBE0F901F905D
:10197000189503978131910508F0AAC08C5C9F4FA0
:10198000FC010C94351180916C00816080936C0097
:101990008091680082608093680060933B02809130
:1019A000460281600FC080916C00826080936C0061
:1019B0008091680082608093680060933C0280910F
:1019C0004602826080934602089580916C00846094
:1019D00080936C00809168008260809368006093BF
:1019E0003D02809146028460EDCF80916C0088605A
:1019F00080936C008091680082608093680060939F
:101A00003E02809146028860DDCF80916C0080614B
:101A100080936C008091680082608093680060937E
:101A20003F02809146028061CDCF80916C00806240
:101A300080936C008091680082608093680060935E
:101A40004002809146028062BDCF80916D00886027
:101A500080936D008091680084608093680060933B
:101A600041028091450288608093450208958091EB
:101A70006B00826080936B0080916800816080932E
:101A80006800609342028091470282601FC080918B
:101A90006B00846080936B0080916800816080930C
:101AA0006800609343028091470284600FC0809178
:101AB0006B00886080936B008091680081608093E8
:101AC00068006093440280914702886080934702D7
:101AD0000895833081F028F4813099F08230A1F0AC
:101AE00008958630A9F08730B9F08430D1F4809120
:101AF00080008F7D03C0809180008F77809380006D
:101B0000089584B58F7702C084B58F7D84BD089514
:101B10008091B0008F7703C08091B0008F7D80935B
:101B2000B0000895CF93DF9390E0FC01E65CFE4F98
:101B30002491FC01E25BFE4F8491882349F190E0FF
:101B4000880F991FFC01EA58FE4FA591B491845962
:101B50009E4FFC01C591D4919FB7611108C0F894C4
:101B60008C91209582238C93888182230AC06230D5
:101B700051F4F8948C91322F309583238C93888183
:101B8000822B888304C0F8948C91822B8C939FBF06
:101B9000DF91CF9108950F931F93CF93DF931F92FF
:101BA000CDB7DEB7282F30E0F901EA5DFE4F849112
:101BB000F901E65CFE4F1491F901E25BFE4F0491DE
:101BC0000023C9F0882321F069830E94690D69818F
:101BD000E02FF0E0EE0FFF1FE459FE4FA591B49106
:101BE0009FB7F8948C91611103C01095812301C0B7
:101BF000812B8C939FBF0F90DF91CF911F910F91FD
:101C00000895CF93DF93282F30E0F901EA5DFE4F6E
:101C10008491F901E65CFE4FD491F901E25BFE4F3D
:101C2000C491CC2391F081110E94690DEC2FF0E05A
:101C3000EE0FFF1FEE59FE4FA591B4912C912D236D
:101C400081E090E021F480E002C080E090E0DF914C
:101C5000CF9108958E3008F08E5087702091030147
:101C600090E4299F90011124822B80937C00809125
:101C70007A00806480937A0080917A0086FDFCCFA0
:101C8000809178002091790090E0922B08951F9325
:101C9000CF93DF93182FEB0161E00E94920D209704
:101CA00011F460E004C0CF3FD10539F461E0812F29
:101CB000DF91CF911F910C94CB0DE12FF0E0EA5D05
:101CC000FE4FE491E330F9F048F4E130B9F0E2304E
:101CD000A1F584B5806284BDC8BD34C0E630E9F0AA
:101CE000E73019F1E43049F58091800080628093FB
:101CF0008000D0938B00C0938A0024C084B5806894
:101D000084BDC7BD1FC08091800080688093800023
:101D1000D0938900C093880015C08091B00080687E
:101D20008093B000C093B3000DC08091B00080627A
:101D30008093B000C093B40005C0C038D1050CF04A
:101D4000B5CFAFCFDF91CF911F9108951F920F9222
:101D50000FB60F9211242F933F938F939F93AF93BE
:101D6000BF938091690290916A02A0916B02B09139
:101D70006C023091680223E0230F2D3720F4019686
:101D8000A11DB11D05C026E8230F0296A11DB11D9E
:101D9000209368028093690290936A02A0936B0279
:101DA000B0936C0280916D0290916E02A0916F02CF
:101DB000B09170020196A11DB11D80936D029093A8
:101DC0006E02A0936F02B0937002BF91AF919F918A
:101DD0008F913F912F910F900FBE0F901F901895EC
:101DE0002FB7F8946091690270916A0280916B023A
:101DF00090916C022FBF08953FB7F89480916D02C7
:101E000090916E02A0916F02B091700226B5A89BCE
:101E100005C02F3F19F00196A11DB11D3FBF6627D8
:101E2000782F892F9A2F620F711D811D911D42E01D
:101E3000660F771F881F991F4A95D1F70895CF9293
:101E4000DF92EF92FF92CF93DF936B017C010E94B0
:101E5000FC0EEB01C114D104E104F10479F00E94FD
:101E6000FC0E6C1B7D0B683E7340A0F381E0C81A2A
:101E7000D108E108F108C851DC4FECCFDF91CF91D8
:101E8000FF90EF90DF90CF900895789484B58260B2
:101E900084BD84B5816084BD85B5826085BD85B50E
:101EA000816085BDEEE6F0E0808181608083E1E8BD
:101EB000F0E01082808182608083808181608083F5
:101EC000E0E8F0E0808181608083E1EBF0E08081F8
:101ED00084608083E0EBF0E0808181608083EAE7CA
:101EE000F0E0808184608083808182608083808153
:101EF000816080838081806880831092C100089512
:101F0000FC0124853585F901E05CFF4F80819181DA
:101F1000F901EE5BFF4F20813181821B930B8F73A0
:101F200099270895FC0184859585FC01E05CFF4FAD
:101F300040815181FC01EE5BFF4F208131814217CE
:101F4000530741F00190F081E02DE80FF91F8081E7
:101F500090E008958FEF9FEF0895FC0184859585AB
:101F6000FC01E05CFF4F40815181FC01EE5BFF4FC3
:101F7000208131814217530779F0A081B181A80FE8
:101F8000B91F8C91208131812F5F3F4F2F733327F1
:101F90003183208390E008958FEF9FEF0895FC0137
:101FA00081A1882329F0A489B5898C9186FFFBCF74
:101FB00011A20895CF93DF93FC0126853785D901BF
:101FC000A05CBF4F8D919C91119701968F739927BB
:101FD000E901CE5BDF4F4881598184179507D9F31A
:101FE0000D90BC91A02DA20FB31F6C93A685B78551
:101FF000A05CBF4F11969C938E93A689B7892C91B4
:1020000081E090E0078C02C0880F991F0A94E2F7E4
:10201000282B2C9381E081A30488F589E02D808111
:102020008064808381E090E0DF91CF9108950895EE
:102030001F920F920FB60F9211242F933F934F933D
:102040008F939F93EF93FF938091C00082FD1CC0FC
:102050004091C600809117039091180301968F73E9
:1020600099272091190330911A038217930771F071
:10207000E0911703F0911803E952FD4F40839093CC
:1020800018038093170302C08091C600FF91EF915F
:102090009F918F914F913F912F910F900FBE0F9075
:1020A0001F90189581E792E00E94800F892B11F014
:1020B0000C94171008951F920F920FB60F921124CF
:1020C0002F933F938F939F93EF93FF932091D3028E
:1020D0003091D4028091D5029091D6022817390709
:1020E00031F48091C1008F7D8093C10014C0E091D4
:1020F000D502F091D602ED56FD4F20818091D50298
:102100009091D60201968F7399279093D60280936F
:10211000D5022093C600FF91EF919F918F913F913F
:102120002F910F900FBE0F901F9018951092740270
:102130001092730288EE93E0A0E0B0E08093750205
:1021400090937602A0937702B093780288E191E0B1
:10215000909372028093710287ED92E090937E02D9
:1021600080937D0283E992E09093800280937F02C6
:1021700085EC90E0909382028093810284EC90E061
:10218000909384028093830280EC90E09093860287
:102190008093850281EC90E090938802809387027F
:1021A00082EC90E090938A028093890286EC90E022
:1021B00090938C0280938B0284E080938D0283E065
:1021C00080938E0287E080938F0285E08093900257
:1021D00081E08093910208950E94450F0E948B0137
:1021E000C2E5D0E10E9465032097E1F30E945210FE
:1021F000F9CFCF92DF92EF92FF920F931F93CF937D
:10220000DF936C017A01EB01E60EF71E00E010E0AF
:10221000CE15DF0561F06991D601ED91FC91019039
:10222000F081E02DC6010995080F191FF1CFC801F3
:10223000DF91CF911F910F91FF90EF90DF90CF90A2
:10224000089597FB072E16F4009407D077FD09D068
:102250000E943B1107FC05D03EF4909581959F4F5D
:102260000895709561957F4F0895EE0FFF1F0590BB
:10227000F491E02D0994AA1BBB1B51E107C0AA1FD2
:10228000BB1FA617B70710F0A61BB70B881F991F17
:102290005A95A9F780959095BC01CD01089511E05C
:1022A000C8E8D1E004C0FE010E9437112296CE3862
:0822B000D107C9F7F894FFCF34
:1022B800083F0E01000000005807F910C806AE06D6
:1022C800DE06D60600000000DA0FF910800FAD0F09
:0422D800920FCF0F83
:00000001FF
