:100000000C94C7000C94EF000C94EF000C94F408CF
:100010000C942F0A0C94890A0C94EF000C94EF00B6
:100020000C94EF000C94EF000C94EF000C94EF0094
:100030000C94EF000C94EF000C94EF000C94EF0084
:100040000C94610B0C94EF000C940F0F0C94520F56
:100050000C94EF000C94EF000C94EF000C94EF0064
:100060000C94EF000C94EF001D0B600B600B600B09
:10007000600B600B2F0B3F0B4F0B600B600BBB0A31
:10008000CB0ADD0AED0AFD0A0D0B00C201000100DA
:10009000110011000C0000E100000A0025002500FD
:1000A0002100009600001900390039003600127A4C
:1000B00000001F004600460044008070000022003F
:1000C0004D004D004A00004B0000360075007500E1
:1000D0007200403800004A009C009C009900802576
:1000E00000007200EC00EC00E900C0120000E90022
:1000F000DA01DA01D70160090000D701B603B603BF
:10010000B303B0040000B3036E076E076B07580219
:1001100000006E07DC0EDC0ED80E2C010000DC0E99
:10012000C11DC11DBE1D000000070002010000032B
:100130000406000000000000000001020408102076
:100140004080010204081020010204081020040469
:10015000040404040404020202020202030303036F
:100160000303000000002300260029000000000017
:10017000250028002B0000000000240027002A0092
:10018000470238046C048D0F58023C04700411249B
:100190001FBECFEFD8E0DEBFCDBF11E0A0E0B1E0E1
:1001A000E0E8F0E202C005900D92A434B107D9F75F
:1001B00012E0A4E4B1E001C01D92AF3CB107E1F749
:1001C00011E0C8E8D1E004C02297FE010E942F1080
:1001D000C038D107C9F70E94780D0C9433100C94E5
:1001E000000088E491E00E94CE0240E855E260E021
:1001F00070E084E591E00E94C40681E080935301A1
:100200008BE00E94D30C892BD9F3109245011092F8
:10021000440164EF71E080E090E00C94DA0B8F927F
:100220009F92AF92BF92CF92DF92EF92FF920F9385
:100230001F93CF93DF93CDB7DEB72A970FB6F8940D
:10024000DEBF0FBECDBF009144011091450189E191
:10025000882E912CE12CF12CC12CD12CA12CB12C6D
:1002600083E10E94FC0CA80EB91E84E10E94FC0CE4
:10027000C80ED91E82E10E94FC0CE80EF91E65E052
:1002800070E080E090E00E94DA0B81E0881A91082B
:100290008114910429F729E130E0C501B9010E94D8
:1002A000E30F5B01C601B9010E94E30F6B01C701B7
:1002B000B9010E94E30F7B0164E071E085E292E006
:1002C0000E94C30D4AE050E0B50185E292E00E9431
:1002D0006F0E6EE071E085E292E00E94C30D4AE08D
:1002E00050E0B60185E292E00E946F0E68E171E095
:1002F00085E292E00E94C30D4AE050E0B70185E23A
:1003000092E00E946F0E9924939481E9A81681E0EF
:10031000B8060CF0912CCE0CDF1CFF24F39482E97C
:10032000C81681E0D8060CF0F12CCE0106960E948A
:100330004004911005C0F11003C081E08A8746C0D7
:1003400001301105C1F01CF4012B41F03EC0023018
:100350001105F1F00330110541F137C0992031F05A
:1003600060E070E0CE0106960E944104FF2069F132
:1003700062E070E026C0992031F061E070E0CE01CB
:1003800006960E944104FF2001F163E070E019C06D
:10039000992031F062E070E0CE0106960E9441049F
:1003A000FF2099F061E070E00CC0992031F063E02B
:1003B00070E0CE0106960E944104FF2031F060E01B
:1003C00070E0CE0106960E9441041A8685E0FE0187
:1003D0003696DE01119601900D928A95E1F785E03F
:1003E000FE013196DE01169601900D928A95E1F795
:1003F000FD80FF2019F00E94910402C00E949A041F
:10040000FA86609144017091450180914601909176
:1004100047010E811F81288539854F2D0E9460027A
:100420008C018430910529F40E949D040E948E0461
:1004300004C00E9497040E9494044091440150918A
:1004400045016091460170914701980188E491E06F
:100450000E94F703109345010093440160E971E0A5
:1004600080E090E00E94DA0B2A960FB6F894DEBF87
:100470000FBECDBFDF91CF911F910F91FF90EF90F5
:10048000DF90CF90BF90AF909F908F90089584E5BC
:1004900091E00E94950688E491E00E94B1021092DA
:1004A00047011092460110924501109244010895AF
:1004B00088E491E00E94CD0284E591E00C94A007CD
:1004C0000F931F93CF93DF9300D000D01F92CDB72F
:1004D000DEB7411132C061307105E9F01CF4672BC1
:1004E00041F02AC06230710569F063307105E1F0B6
:1004F00023C021112AC0011122C0311122C01123B1
:10050000D9F021C011111FC021111FC0011117C046
:10051000332391F016C0311114C0111114C02111F0
:1005200014C0002349F00BC0011109C0311109C0EA
:10053000111109C0211109C00AC084E007C080E080
:1005400005C083E003C081E001C082E090E00F902D
:100550000F900F900F900F90DF91CF911F910F91FF
:100560000895CF93DF93EC010E94A60488E790E002
:100570009A8389838CE890E09C838B8380E590E06C
:100580009E838D838CE99FEF98878F838EE190E027
:100590009A878987DF91CF91089508950E94D004AA
:1005A0000C948B04CF93DF93EC016F8178850E94CC
:1005B0000C056D817E81CE010E9448050E94A30436
:1005C00060ED72E080E090E00E94DA0BCE010E94C4
:1005D000CE020E94A0046B817C8162537109CE011E
:1005E0000E94480569817A8162537109CE010E9497
:1005F0000C0564E670E080E090E00E94DA0BCE012A
:10060000DF91CF910C94CE02CF93DF93EC016D81FB
:100610007E810E940C056F817885CE010E9448057D
:100620000E94A30460ED72E080E090E00E94DA0B8B
:10063000CE010E94CE020E94A0046B817C81625395
:100640007109CE010E94480569817A81625371095E
:10065000CE010E940C0564E670E080E090E00E940C
:10066000DA0BCE01DF91CF910C94CE02CF93DF93C2
:10067000EC010E940403CE01DF91CF910C9404039E
:1006800061307105A9F01CF4672B41F008956230C8
:100690007105B9F063307105E9F0089542305105F4
:1006A00021F14330510519F14130510511F51BC0BD
:1006B00042305105E1F043305105B9F0452BC9F402
:1006C00012C04130510589F04330510561F0452B8E
:1006D00081F40DC04130510551F04230510519F0FF
:1006E000452B39F402C00C9436030C9404030C948B
:1006F000D202089585E10E94FC0C8132934014F4EB
:1007000080E0089580E10E94FC0C81329340C4F3A4
:1007100081E10E94FC0C21E0813293400CF420E046
:10072000822F0895EF92FF920F931F93CF93DF9341
:10073000EC0183E10E94FC0C813991409CF00E9405
:1007400091040E949404CE010E940403CE010E94F1
:100750000403CE01DF91CF911F910F91FF90EF9095
:100760000C9404030E94A0046B817C816253710984
:10077000CE010E94480569817A8162537109CE01D8
:100780000E940C0568EC70E080E090E00E94DA0BBB
:10079000CE010E947A03811121C00B811C8185E169
:1007A0000E94FC0C081B190BE980FA8080E10E9472
:1007B000FC0CB701681B790B1016110614F00985A3
:1007C0001A851616170614F069857A85CE010E94DF
:1007D0000C05B801CE010E944805DACFCE01DF91A9
:1007E000CF911F910F91FF90EF900C94CE02AF929A
:1007F000BF92CF92DF92EF92FF920F931F93CF930E
:10080000DF935C016A017B01E90187012417350749
:1008100021F0A901B6010E944003C130D10589F041
:1008200034F42097A9F487010750110911C0C23090
:10083000D10559F0C330D10559F487010150110990
:1008400007C08701095F1F4F03C087010F5F1F4F5C
:10085000C5010E949203BE01C801DF91CF911F9193
:100860000F91FF90EF90DF90CF90BF90AF900895E1
:1008700080E791E00C94950680E791E00C94A00746
:100880000895FC016130710571F01CF4672B41F093
:1008900008956230710551F06330710551F008958B
:1008A00081E08083089581E08183089581E08283DF
:1008B000089581E08383089580918C0181110BC09C
:1008C00040E855E260E070E08DE891E00E94C406E7
:1008D00081E080938C0108958DE891E00C94950659
:1008E0008DE891E00C94A007CF93DF931F92CDB7D2
:1008F000DEB789830E945C048981682F8DE891E0CE
:100900000E94FC056AE070E080E090E00F90DF91CB
:10091000CF910C94DA0B81E00C94740482E00C9477
:10092000740483E00C94740484E00C94740485E0F3
:100930000C94740486E00C94740487E00C947404A2
:1009400088E00C94740489E00C94740461E087E0FE
:100950000E94640C61E088E00E94640C61E082E027
:100960000E94640C61E084E00C94640C61E082E01D
:100970000E949D0C61E084E00E949D0C60E070E0AC
:1009800085E00C94190D61E087E00E949D0C61E008
:1009900088E00E949D0C60E070E086E00C94190DE8
:1009A000CF93DF93EC010E94B604CE01DF91CF918B
:1009B0000C94C304CF93C62F61E082E00E949D0C8B
:1009C00060E084E00E949D0C6C2F70E085E00E9446
:1009D000190DE091EB01F091EC01309711F081E0FD
:1009E0008087CF910895CF93C62F60E082E00E9468
:1009F0009D0C61E084E00E949D0C6C2F70E085E00E
:100A00000E94190DE091EB01F091EC01309711F08B
:100A10008FEF8087CF9108951616170614F40C9463
:100A2000DA047195619571090C94F304CF93C62F84
:100A300061E087E00E949D0C60E088E00E949D0CD0
:100A40006C2F70E086E00E94190DE091EB01F091AF
:100A5000EC01309711F081E08187CF910895CF9319
:100A6000C62F60E087E00E949D0C61E088E00E9454
:100A70009D0C6C2F70E086E00E94190DE091EB0157
:100A8000F091EC01309711F08FEF8187CF910895AD
:100A90001616170614F40C941605719561957109D4
:100AA0000C942F059091A9018091AA01981789F0C3
:100AB000E091A901F0E0E555FE4F80812091A90168
:100AC00030E02F5F3F4F2F7333272093A90190E031
:100AD00008958FEF9FEF08958091AA012091A901B9
:100AE00090E0805C9F4F821B910960E470E00E945F
:100AF000F70F08958FB7F8941092AA011092A901E8
:100B00008FBF08959091A9018091AA01981751F083
:100B1000E091A901F0E0E555FE4F8081992787FD1E
:100B2000909508958FEF9FEF089520E001972FEFA4
:100B30008F3F9207D9F70895EF92FF920F931F937B
:100B4000CF93DF93EC018B899C890E94950508E087
:100B500010E0EE24E394F12C8D899E890E94950586
:100B6000EE85FF8580819D85892311F0FE2803C0D5
:100B70008E2D8095F822EE0C0150110901151105FA
:100B800059F78F89988D0E9495058091AA0120912F
:100B9000A90190E001968F73992730E0821793079F
:100BA00079F0E091AA01F0E0E555FE4FF0828091E6
:100BB000AA0190E001968F7399278093AA0103C040
:100BC0008B8D81608B8FDF91CF911F910F91FF9063
:100BD000EF900895DC015196ED91FC91529750965B
:100BE0009C91611105C02081892F8095822302C0CC
:100BF0008081892B80830895DF92EF92FF920F937B
:100C00001F93CF93DF93EC01D62E898D9A8D892B7C
:100C100039F481E090E09B838A8380E090E036C0E5
:100C2000EFB6F894E989FA899081888980958923BB
:100C30008083898D9A8D05960E94950508E010E0C5
:100C4000FF24F3948F2D8D2129F061E0CE010E94C5
:100C5000EA0507C0E989FA89908188898095892306
:100C60008083898D9A8D0E949505FF0C0150110992
:100C70000115110539F761E0CE010E94EA05EFBECA
:100C8000898D9A8D0E94950581E090E0DF91CF914A
:100C90001F910F91FF90EF90DF9008951F93CF93D6
:100CA000DF93EC01162F61E0812F0E94640C61E05C
:100CB000812F0E949D0C812F90E0FC01E65CFE4F8D
:100CC000E491E88BFC01E25BFE4FE491F0E0EE0F73
:100CD000FF1FE459FE4F859194919A8B898BDF9188
:100CE000CF911F9108951F93CF93DF93EC01162F9F
:100CF00060E0812F0E94640C1C87612F70E0FB0173
:100D0000E65CFE4FE491ED87FB01E25BFE4FE49170
:100D1000F0E0EE0FFF1FEE59FE4F859194919F87F3
:100D20008E87DF91CF911F910895CF93DF93EC01D0
:100D30001B821A8248EE53E060E070E04C835D83D2
:100D40006E837F8387E291E0998388831C8A1B8A64
:100D50001E8A1D8A188E1F8A1A8E198E8B8D8E7F81
:100D60008B8F64E08FE090E00E94B10AD093EE0197
:100D7000C093ED016EE0CE010E944E066FE0CE0101
:100D8000DF91CF910C9473060F931F93CF93DF9352
:100D9000DC015A961C921E92599758961C921E92EC
:100DA000579756961C921E925597CAE8D0E080E05D
:100DB00090E0FE01059115912591349104171507D6
:100DC0002607370759F54CE0489F9001499F300DA1
:100DD0001124F901E257FF4F8591949154969C9309
:100DE0008E935397F901E057FF4F85919491569652
:100DF0009C938E935597F901EE56FF4F85919491F0
:100E000058969C938E9357972C563F4FF901859196
:100E100094915A969C938E9359970AC001962C965A
:100E20008D30910509F0C5CF54961C921E925397B0
:100E300057968D919C915897892B09F44DC01C961B
:100E40008C911C978631F0F520916800883050F025
:100E500091E08E3008F490E081E001C0880F9A950F
:100E6000EAF701C084E0822B809368001C962C91E5
:100E70001C97283038F02E3040F0263148F0E0E062
:100E8000F0E008C0EDE6F0E005C0EBE6F0E002C0FF
:100E9000ECE6F0E03081283030F481E001C0880FCA
:100EA0002A95EAF70DC0822F90E02E3010F40897B3
:100EB00001C00E9791E001C0990F8A95EAF7892F3A
:100EC000832B808359968D919C915A97DF91CF9176
:100ED0001F910F910C949505DF91CF911F910F9168
:100EE0000895FC014485463150F5483028F04E30D5
:100EF00030F4EBE6F0E005C0EDE6F0E002C0ECE631
:100F0000F0E05081483040F481E090E0042E01C0D0
:100F1000880F0A94EAF710C0242F30E04E3018F4FE
:100F20002850310902C02E50310981E090E0022E94
:100F300001C0880F0A94EAF780958523808308957D
:100F400027E231E0FC01318320830C9471070F9379
:100F50001F93FC0161157105B1F06130710529F530
:100F60000185112707FD1095212F312F44815581CF
:100F700066817781400F511F621F731F4483558321
:100F80006683778312C00085112707FD1095212FF6
:100F9000312F4081518162817381400F511F621F47
:100FA000731F40835183628373831F910F91089550
:100FB000CF92DF92EF92FF92E82FF0E0DF01A15194
:100FC000BE4F8C918230F9F078F4813009F052C034
:100FD000EE0FFF1FE85FFD4F0190F081E02DFF90C5
:100FE000EF90DF90CF900994833021F1843009F0A5
:100FF00041C08091ED019091EE01FF90EF90DF9064
:10100000CF900C949C05C0900002D0900102E0901B
:101010000202F09003020E94B70B22E3C20ED11C21
:10102000E11CF11CC616D706E806F90618F560E0C3
:1010300070E016C0C0900402D0900502E090060255
:10104000F09007020E94B70B22E3C20ED11CE11CF4
:10105000F11CC616D706E806F90660F461E070E0F8
:101060008091EB019091EC01FF90EF90DF90CF9099
:101070000C94A707FF90EF90DF90CF900895CF9347
:10108000C82F8091020181FF02C0C1FF46C080913C
:10109000020181FD2CC0C1FF2AC08091F60182307F
:1010A00051F40E94B70B6093000270930102809389
:1010B0000202909303028091F601833051F40E9462
:1010C000B70B60930402709305028093060290931D
:1010D00007028091F601813051F40E94AB0B6093BE
:1010E000FC017093FD018093FE019093FF018091BC
:1010F000020182FF16C0C2FD14C088E00E94D8071A
:101100008091020183FF3EC0C3FD3CC089E00E9484
:10111000D807C0930201CF91089587E00E94D807B5
:10112000E6CF8091020182FDEBCFC2FFE9CF809133
:10113000F701823051F40E94B70B60930002709364
:10114000010280930202909303028091F7018330A1
:1011500051F40E94B70B60930402709305028093D0
:101160000602909307028091F701813049F60E94B0
:10117000AB0B6093FC017093FD018093FE01909393
:10118000FF01BECF8091020182FDC3CFC2FFC1CF5C
:101190008091F801823051F40E94B70B60930002F5
:1011A0007093010280930202909303028091F801F0
:1011B000833051F40E94B70B6093040270930502D0
:1011C00080930602909307028091F801813009F024
:1011D000A0CF0E94AB0B6093FC017093FD01809344
:1011E000FE019093FF0195CF1F920F920FB60F92C1
:1011F00011242F933F934F935F936F937F938F931C
:101200009F93AF93BF93EF93FF9393B18091FB01B3
:1012100089230E943F08FF91EF91BF91AF919F9169
:101220008F917F916F915F914F913F912F910F908F
:101230000FBE0F901F901895CF93C82F809101017A
:1012400080FF02C0C0FF53C08091010180FD1EC01D
:10125000C0FF1CC08091EF01823051F40E94AB0BA3
:101260006093000270930102809302029093030244
:101270008091EF01833051F40E94AB0B6093040224
:1012800070930502809306029093070280910101FA
:1012900081FF31C0C1FD2FC081E00E94D80780913D
:1012A000010182FF4CC0C2FD4AC082E00E94D80703
:1012B0008091010183FF67C0C3FD65C083E00E9488
:1012C000D8078091010184FF82C0C4FD80C084E002
:1012D0000E94D8078091010185FF9DC0C5FD9BC07C
:1012E00085E00E94D807C0930101CF91089580E066
:1012F0000E94D807CBCF8091010181FDD0CFC1FFE3
:10130000CECF8091F001823051F40E94AB0B6093FC
:101310000002709301028093020290930302809175
:10132000F001833009F0BBCF0E94AB0B6093040245
:10133000709305028093060290930702B0CF8091CC
:10134000010182FDB5CFC2FFB3CF8091F1018230A0
:1013500051F40E94AB0B60930002709301028093E2
:101360000202909303028091F101833009F0A0CF33
:101370000E94AB0B609304027093050280930602F7
:101380009093070295CF8091010183FD9ACFC3FF0F
:1013900098CF8091F201823051F40E94AB0B6093A0
:1013A00000027093010280930202909303028091E5
:1013B000F201833009F085CF0E94AB0B60930402E9
:1013C0007093050280930602909307027ACF809172
:1013D000010184FD7FCFC4FF7DCF8091F301823076
:1013E00051F40E94AB0B6093000270930102809352
:1013F0000202909303028091F301833009F06ACFD7
:101400000E94AB0B60930402709305028093060266
:10141000909307025FCF8091010185FD64CFC5FFE6
:1014200062CF8091F401823051F40E94AB0B609343
:101430000002709301028093020290930302809154
:10144000F401833009F04FCF0E94AB0B609304028C
:1014500070930502809306029093070244CF1F9277
:101460000F920FB60F9211242F933F934F935F93D8
:101470006F937F938F939F93AF93BF93EF93FF935C
:1014800096B18091FA0189230E941C09FF91EF9186
:10149000BF91AF919F918F917F916F915F914F918C
:1014A0003F912F910F900FBE0F901F901895CF93E3
:1014B000C82F8091000183FF02C0C3FF26C0809126
:1014C000000183FD1EC0C3FF1CC08091F501823066
:1014D00051F40E94AB0B6093000270930102809361
:1014E0000202909303028091F501833051F40E942F
:1014F000AB0B6093040270930502809306029093F5
:101500000702C0930001CF91089586E00E94D8079A
:10151000F8CF1F920F920FB60F9211242F933F9383
:101520004F935F936F937F938F939F93AF93BF93EB
:10153000EF93FF9399B18091F90189230E94570A93
:10154000FF91EF91BF91AF919F918F917F916F919B
:101550005F914F913F912F910F900FBE0F901F9071
:10156000189503978131910508F0AAC08C5C9F4FB4
:10157000FC010C942D1080916C00816080936C00B4
:10158000809168008260809368006093EF01809191
:10159000FA0181600FC080916C00826080936C00C2
:1015A000809168008260809368006093F001809170
:1015B000FA0182608093FA01089580916C00846042
:1015C00080936C00809168008260809368006093D3
:1015D000F1018091FA018460EDCF80916C00886008
:1015E00080936C00809168008260809368006093B3
:1015F000F2018091FA018860DDCF80916C008061FA
:1016000080936C0080916800826080936800609392
:10161000F3018091FA018061CDCF80916C008062EE
:1016200080936C0080916800826080936800609372
:10163000F4018091FA018062BDCF80916D008860D5
:1016400080936D008091680084608093680060934F
:10165000F5018091F90188608093F90108958091E6
:101660006B00826080936B00809168008160809342
:1016700068006093F6018091FB0182601FC0809139
:101680006B00846080936B00809168008160809320
:1016900068006093F7018091FB0184600FC0809126
:1016A0006B00886080936B008091680081608093FC
:1016B00068006093F8018091FB0188608093FB01D2
:1016C00008951F920F920FB60F9211242F933F93FC
:1016D0008F939F93AF93BF9380911D0290911E02B1
:1016E000A0911F02B091200230911C0223E0230F31
:1016F0002D3720F40196A11DB11D05C026E8230F4A
:101700000296A11DB11D20931C0280931D0290938F
:101710001E02A0931F02B09320028091210290919B
:101720002202A0912302B09124020196A11DB11DB5
:101730008093210290932202A0932302B09324026B
:10174000BF91AF919F918F913F912F910F900FBEBD
:101750000F901F9018952FB7F89460911D0270910B
:101760001E0280911F02909120022FBF08953FB763
:10177000F8948091210290912202A0912302B091CD
:10178000240226B5A89B05C02F3F19F00196A11D84
:10179000B11D3FBF6627782F892F9A2F620F711DC9
:1017A000811D911D42E0660F771F881F991F4A9582
:1017B000D1F70895CF92DF92EF92FF92CF93DF930C
:1017C0006B017C010E94B70BEB01C114D104E10451
:1017D000F10479F00E94B70B6C1B7D0B683E7340DF
:1017E000A0F381E0C81AD108E108F108C851DC4F24
:1017F000ECCFDF91CF91FF90EF90DF90CF900895E5
:10180000789484B5826084BD84B5816084BD85B5DB
:10181000826085BD85B5816085BDEEE6F0E08081A2
:1018200081608083E1E8F0E01082808182608083C3
:10183000808181608083E0E8F0E080818160808346
:10184000E1EBF0E0808184608083E0EBF0E0808178
:1018500081608083EAE7F0E080818460808380811A
:1018600082608083808181608083808180688083C2
:101870001092C1000895833081F028F4813099F0EE
:101880008230A1F008958630A9F08730B9F0843015
:10189000D1F4809180008F7D03C0809180008F778C
:1018A00080938000089584B58F7702C084B58F7DC2
:1018B00084BD08958091B0008F7703C08091B000FF
:1018C0008F7D8093B0000895CF93DF9390E0FC016B
:1018D000E65CFE4F2491FC01E25BFE4F849188237D
:1018E00049F190E0880F991FFC01EA58FE4FA5913D
:1018F000B49184599E4FFC01C591D4919FB7611159
:1019000008C0F8948C91209582238C93888182233F
:101910000AC0623051F4F8948C91322F30958323B1
:101920008C938881822B888304C0F8948C91822BBD
:101930008C939FBFDF91CF9108950F931F93CF9307
:10194000DF931F92CDB7DEB7282F30E0F901EA5DB3
:10195000FE4F8491F901E65CFE4F1491F901E25BC0
:10196000FE4F04910023C9F0882321F069830E946F
:101970003B0C6981E02FF0E0EE0FFF1FE459FE4FB2
:10198000A591B4919FB7F8948C91611103C0109503
:10199000812301C0812B8C939FBF0F90DF91CF914A
:1019A0001F910F910895CF93DF93282F30E0F90115
:1019B000EA5DFE4F8491F901E65CFE4FD491F90196
:1019C000E25BFE4FC491CC2391F081110E943B0C4D
:1019D000EC2FF0E0EE0FFF1FEE59FE4FA591B491F2
:1019E0002C912D2381E090E021F480E002C080E082
:1019F00090E0DF91CF9108958E3008F08E5087707F
:101A00002091030190E4299F90011124822B80935F
:101A10007C0080917A00806480937A0080917A00C3
:101A200086FDFCCF809178002091790090E0922B88
:101A300008951F93CF93DF93182FEB0161E00E946D
:101A4000640C209711F460E004C0CF3FD10539F455
:101A500061E0812FDF91CF911F910C949D0CE12FBC
:101A6000F0E0EA5DFE4FE491E330F9F048F4E13054
:101A7000B9F0E230A1F584B5806284BDC8BD34C040
:101A8000E630E9F0E73019F1E43049F58091800063
:101A9000806280938000D0938B00C0938A0024C022
:101AA00084B5806884BDC7BD1FC0809180008068F8
:101AB00080938000D0938900C093880015C08091E6
:101AC000B00080688093B000C093B3000DC08091D7
:101AD000B00080628093B000C093B40005C0C038ED
:101AE000D1050CF0B5CFAFCFDF91CF911F91089505
:101AF0000E94000C0E94F100C9E4DFE00E940F0187
:101B00002097E1F30E94490FF9CFCF92DF92EF9235
:101B1000FF920F931F93CF93DF936C017A01EB0138
:101B2000E60EF71E00E010E0CE15DF0561F06991CA
:101B3000D601ED91FC910190F081E02DC60109954F
:101B4000080F191FF1CFC801DF91CF911F910F919D
:101B5000FF90EF90DF90CF9008956115710581F0AF
:101B6000DB010D900020E9F7AD0141505109461B02
:101B7000570BDC01ED91FC910280F381E02D09947B
:101B800080E090E008950C94AD0DDC01ED91FC91A6
:101B90000190F081E02D09948F929F92AF92BF92B5
:101BA000CF92DF92EF92FF920F931F93CF93DF9329
:101BB000CDB7DEB7A1970FB6F894DEBF0FBECDBF8D
:101BC0007C01C42EE52FCB01D22E19A221E02D15C8
:101BD00010F02AE0D22E8E010F5D1F4F8D2C912C1C
:101BE000A12CB12C6C2D7E2FA50194010E940B100D
:101BF0008C2DD29E80191124015011098A3014F4C1
:101C0000805D01C0895CF8018083211531054105A3
:101C1000510521F0C22EE32FCA01E4CFB801C7015C
:101C20000E94AD0DA1960FB6F894DEBF0FBECDBFDA
:101C3000DF91CF911F910F91FF90EF90DF90CF90A8
:101C4000BF90AF909F908F900895CF92DF92EF92C8
:101C5000FF920F931F93CF93DF93EC016A017B01F7
:101C60002115310579F4E881F9810190F081E02DA9
:101C7000642FDF91CF911F910F91FF90EF90DF9034
:101C8000CF9009942A303105E9F477FF1AC06DE24C
:101C90000E94C50D8C0144275527BA014C195D09D6
:101CA0006E097F092AE0CE010E94CC0D800F911FA2
:101CB000DF91CF911F910F91FF90EF90DF90CF9028
:101CC00008952AE0B701A601CE01DF91CF911F91BF
:101CD0000F91FF90EF90DF90CF900C94CC0D9A0174
:101CE000AB01662757FD6095762F0C94250EFC01FD
:101CF00024853585F901E05CFF4F80819181F901F0
:101D0000EE5BFF4F20813181821B930B8F739927EC
:101D10000895FC0184859585FC01E05CFF4F4081BE
:101D20005181FC01EE5BFF4F208131814217530747
:101D300041F00190F081E02DE80FF91F808190E0E3
:101D400008958FEF9FEF0895FC0184859585FC0130
:101D5000E05CFF4F40815181FC01EE5BFF4F208131
:101D600031814217530779F0A081B181A80FB91FC3
:101D70008C91208131812F5F3F4F2F733327318327
:101D8000208390E008958FEF9FEF0895FC0181A1DB
:101D9000882329F0A489B5898C9186FFFBCF11A2F5
:101DA0000895CF93DF93FC0126853785D901A05C88
:101DB000BF4F8D919C91119701968F739927E901DF
:101DC000CE5BDF4F4881598184179507D9F30D9079
:101DD000BC91A02DA20FB31F6C93A685B785A05C04
:101DE000BF4F11969C938E93A689B7892C9181E061
:101DF00090E0078C02C0880F991F0A94E2F7282B05
:101E00002C9381E081A30488F589E02D8081806492
:101E1000808381E090E0DF91CF91089508951F9233
:101E20000F920FB60F9211242F933F934F938F93DE
:101E30009F93EF93FF938091C00082FD1CC040915F
:101E4000C6008091CB029091CC0201968F739927A6
:101E50002091CD023091CE028217930771F0E0916C
:101E6000CB02F091CC02E557FD4F40839093CC021A
:101E70008093CB0202C08091C600FF91EF919F91A9
:101E80008F914F913F912F910F900FBE0F901F9008
:101E9000189585E292E00E94770E892B11F00C9440
:101EA0000E0F08951F920F920FB60F9211242F93C9
:101EB0003F938F939F93EF93FF93209187023091ED
:101EC00088028091890290918A022817390731F49B
:101ED0008091C1008F7D8093C10014C0E091890280
:101EE000F0918A02E95BFD4F2081809189029091F7
:101EF0008A0201968F73992790938A0280938902B0
:101F00002093C600FF91EF919F918F913F912F9168
:101F10000F900FBE0F901F901895109228021092EC
:101F2000270288EE93E0A0E0B0E08093290290932E
:101F30002A02A0932B02B0932C0287E391E09093A6
:101F40002602809325028BE892E0909332028093E0
:101F5000310287E492E0909334028093330285EC5F
:101F600090E0909336028093350284EC90E0909359
:101F700038028093370280EC90E090933A0280938D
:101F8000390281EC90E090933C0280933B0282EC1A
:101F900090E090933E0280933D0286EC90E0909317
:101FA000400280933F0284E08093410283E080936B
:101FB000420287E08093430285E08093440281E0FF
:101FC000809345020895AA1BBB1B51E107C0AA1FBD
:101FD000BB1FA617B70710F0A61BB70B881F991FCA
:101FE0005A95A9F780959095BC01CD01089597FB6E
:101FF000072E16F4009407D077FD09D00E94E30F56
:1020000007FC05D03EF4909581959F4F08957095FB
:1020100061957F4F0895A1E21A2EAA1BBB1BFD01FB
:102020000DC0AA1FBB1FEE1FFF1FA217B307E407B7
:10203000F50720F0A21BB30BE40BF50B661F771F0F
:10204000881F991F1A9469F76095709580959095EF
:102050009B01AC01BD01CF010895EE0FFF1F05905C
:10206000F491E02D099411E0C8E8D1E004C0FE012C
:102070000E942F102296CE38D107C9F7F894FFCFCF
:10208000083F0E010A2046726F6E743A20000A2043
:102090004261636B523A20000A2046726F6E74529E
:1020A0003A200000000000FC05850D6C05520582F9
:1020B000057A0500000000D10E850D770EA40E896B
:0420C0000EC60E003A
:00000001FF
