:100000000C94C7000C94EF000C94EF000C94F808CB
:100010000C94330A0C948D0A0C94EF000C94EF00AE
:100020000C94EF000C94EF000C94EF000C94EF0094
:100030000C94EF000C94EF000C94EF000C94EF0084
:100040000C94A20C0C94EF000C94140E0C94570E0C
:100050000C94EF000C94EF000C94EF000C94EF0064
:100060000C94EF000C94EF00210B640B640B640BF9
:10007000640B640B330B430B530B640B640BBF0A11
:10008000CF0AE10AF10A010B110B00C201000100C5
:10009000110011000C0000E100000A0025002500FD
:1000A0002100009600001900390039003600127A4C
:1000B00000001F004600460044008070000022003F
:1000C0004D004D004A00004B0000360075007500E1
:1000D0007200403800004A009C009C009900802576
:1000E00000007200EC00EC00E900C0120000E90022
:1000F000DA01DA01D70160090000D701B603B603BF
:10010000B303B0040000B3036E076E076B07580219
:1001100000006E07DC0EDC0ED80E2C010000DC0E99
:10012000C11DC11DBE1D000000070002010000032B
:100130000406000000000000000001020408102076
:100140004080010204081020010204081020040469
:10015000040404040404020202020202030303036F
:100160000303000000002300260029000000000017
:10017000250028002B0000000000240027002A0092
:100180004B02EB037004920E5C02EF037404112423
:100190001FBECFEFD8E0DEBFCDBF11E0A0E0B1E0E1
:1001A000EEEDF2E202C005900D92A432B107D9F74C
:1001B00012E0A4E2B1E001C01D92AF3AB107E1F74D
:1001C00011E0C8E8D1E004C02297FE010E94330F7D
:1001D000C038D107C9F70E94E80E0C9462110C9444
:1001E0000000FC0180819181FB0120813181821B13
:1001F000930B089588E291E00E94810240E855E265
:1002000060E070E084E391E00E941C0681E080934E
:1002100033018BE00E94FD0B892BD9F3109225014D
:100220001092240164EF71E080E090E00C941B0DCB
:100230002F923F924F925F926F927F928F929F92F6
:10024000AF92BF92CF92DF92EF92FF920F931F93E4
:10025000CF93DF93CDB7DEB764970FB6F894DEBFC8
:100260000FBECDBF00912401109125014DB75EB79F
:100270005C8B4B8BCE0101967C016E0197E0C90E21
:10028000D11C5E01EDE0AE0EB11C46012701360126
:10029000150183E10E94260CF701819391937F0160
:1002A00084E10E94260CF601819391936F0182E113
:1002B0000E94260CF501819391935F0165E070E047
:1002C00080E090E00E941B0DE814F90411F721EF83
:1002D00030E042E050E063E070E0C2010E948B0F2A
:1002E00021EF30E042E050E063E070E0C3010E94A3
:1002F0008B0F21EF30E042E050E063E070E0C1019D
:100300000E948B0F2B813C8189859A850FB6F894CA
:10031000DEBF0FBECDBFEE24E394213931400CF097
:10032000E12C880F991FFF24F394823991400CF03F
:10033000F12CC3010E94F303E11007C0F11005C0C6
:1003400081E08B8785E0F30144C001301105B9F0ED
:100350001CF4012B41F039C002301105E1F00330EB
:10036000110529F132C0EE2029F060E070E0C301F0
:100370000E94F403FF2049F162E070E023C0EE2008
:1003800029F061E070E0C3010E94F403FF20E9F06E
:1003900063E070E017C0EE2029F062E070E0C30176
:1003A0000E94F403FF2089F061E070E00BC0EE20B2
:1003B00029F063E070E0C3010E94F403FF2029F0FC
:1003C00060E070E0C3010E94F4031B8685E0FE013B
:1003D0003796D20101900D928A95E1F785E0F201FE
:1003E000DE01179601900D928A95E1F7FD80FF20BE
:1003F00019F00E94950402C00E949E04FB86609141
:1004000024017091250180912601909127010F818F
:10041000188529853A854F2D0E940F048C01843060
:10042000910529F40E94A1040E94920404C00E9434
:100430009B040E94980440912401509125016091F1
:10044000260170912701980188E291E00E94AA0399
:10045000109325010093240160E971E080E090E0B1
:100460000E941B0D64960FB6F894DEBF0FBECDBF81
:10047000DF91CF911F910F91FF90EF90DF90CF9080
:10048000BF90AF909F908F907F906F905F904F90B4
:100490003F902F90089584E391E00E94ED0588E25B
:1004A00091E00E946402109227011092260110929E
:1004B000250110922401089588E291E00E948002B3
:1004C00084E391E00C94F806CF93DF93EC010E9453
:1004D000FF0688E790E09A8389838CE890E09C830C
:1004E0008B8380E590E09E838D838CE99FEF9887D6
:1004F0008F838EE190E09A878987DF91CF9108956D
:1005000008950E9429070C948F04CF93DF93EC0188
:100510006F8178850E9465076D817E81CE010E9482
:10052000A1070E94A70460ED72E080E090E00E94C5
:100530001B0DCE010E9481020E94A4046B817C816C
:1005400062537109CE010E94A10769817A816253C9
:100550007109CE010E94650764E670E080E090E0DA
:100560000E941B0DCE01DF91CF910C948102CF939D
:10057000DF93EC016D817E810E9465076F81788534
:10058000CE010E94A1070E94A70460ED72E080E006
:1005900090E00E941B0DCE010E9481020E94A404E3
:1005A0006B817C8162537109CE010E94A107698130
:1005B0007A8162537109CE010E94650764E670E09A
:1005C00080E090E00E941B0DCE01DF91CF910C9452
:1005D0008102CF93DF93EC010E94B702CE01DF913D
:1005E000CF910C94B70261307105A9F01CF4672B10
:1005F00041F0089562307105B9F063307105E9F09A
:1006000008954230510521F14330510519F141302F
:10061000510511F51BC042305105E1F04330510541
:10062000B9F0452BC9F412C04130510589F043306F
:10063000510561F0452B81F40DC04130510551F059
:100640004230510519F0452B39F402C00C94E902EF
:100650000C94B7020C948502089585E10E94260C43
:100660008132934014F480E0089580E10E94260CCA
:1006700081329340C4F381E10E94260C21E0813253
:1006800093400CF420E0822F0895EF92FF920F9395
:100690001F93CF93DF93EC0183E10E94260C8139F5
:1006A00091409CF00E9495040E949804CE010E9403
:1006B000B702CE010E94B702CE01DF91CF911F9108
:1006C0000F91FF90EF900C94B7020E94A4046B81ED
:1006D0007C8162537109CE010E94A10769817A81F0
:1006E00062537109CE010E94650768EC70E080E0FA
:1006F00090E00E941B0DCE010E942D03811121C0AC
:100700000B811C8185E10E94260C081B190BE980D6
:10071000FA8080E10E94260CB701681B790B101645
:10072000110614F009851A851616170614F0698546
:100730007A85CE010E946507B801CE010E94A1070B
:10074000DACFCE01DF91CF911F910F91FF90EF9003
:100750000C948102AF92BF92CF92DF92EF92FF9200
:100760000F931F93CF93DF935C016A017B01E90133
:1007700087012417350721F0A901B6010E94F30271
:10078000C130D10589F034F42097A9F487010750CE
:10079000110911C0C230D10559F0C330D10559F447
:1007A00087010150110907C08701095F1F4F03C06E
:1007B00087010F5F1F4FC5010E944503BE01C8019D
:1007C000DF91CF911F910F91FF90EF90DF90CF902D
:1007D000BF90AF90089580E591E00C94ED0580E521
:1007E00091E00C94F8060895FC016130710571F0F8
:1007F0001CF4672B41F008956230710551F06330AD
:10080000710551F0089581E08083089581E081832E
:10081000089581E08283089581E0838308950F9392
:100820001F93CF93DF9300D000D01F92CDB7DEB7D8
:10083000411132C061307105E9F01CF4672B41F0C1
:100840002AC06230710569F063307105E1F023C0A0
:1008500021112AC0011122C0311122C01123D9F067
:1008600021C011111FC021111FC0011117C0332356
:1008700091F016C0311114C0111114C0211114C00F
:10088000002349F00BC0011109C0311109C0111139
:1008900009C0211109C00AC084E007C080E005C07A
:1008A00083E003C081E001C082E090E00F900F90F0
:1008B0000F900F900F90DF91CF911F910F9108959E
:1008C00080916C0181110BC040E855E260E070E05E
:1008D0008DE691E00E941C0681E080936C010895F2
:1008E0008DE691E00C94ED058DE691E00C94F80610
:1008F000CF93DF931F92CDB7DEB789830E94600448
:100900008981682F8DE691E00E9454056AE070E0CD
:1009100080E090E00F90DF91CF910C941B0D81E06F
:100920000C94780482E00C94780483E00C947804AE
:1009300084E00C94780485E00C94780486E00C94B0
:10094000780487E00C94780488E00C94780489E0BB
:100950000C9478049091890180918A01981789F00C
:10096000E0918901F0E0E557FE4F808120918901F7
:1009700030E02F5F3F4F2F7333272093890190E0A2
:1009800008958FEF9FEF089580918A01209189014A
:1009900090E0805C9F4F821B910960E470E00E94B0
:1009A0001D0F08958FB7F89410928A011092890153
:1009B0008FBF08959091890180918A01981751F015
:1009C000E0918901F0E0E557FE4F8081992787FD8E
:1009D000909508958FEF9FEF089520E001972FEFF6
:1009E0008F3F9207D9F70895EF92FF920F931F93CD
:1009F000CF93DF93EC018B899C890E94ED0408E082
:100A000010E0EE24E394F12C8D899E890E94ED0480
:100A1000EE85FF8580819D85892311F0FE2803C026
:100A20008E2D8095F822EE0C01501109011511054B
:100A300059F78F89988D0E94ED0480918A01209149
:100A4000890190E001968F73992730E08217930710
:100A500079F0E0918A01F0E0E557FE4FF082809155
:100A60008A0190E001968F73992780938A0103C0D1
:100A70008B8D81608B8FDF91CF911F910F91FF90B4
:100A8000EF900895DC015196ED91FC9152975096AC
:100A90009C91611105C02081892F8095822302C01D
:100AA0008081892B80830895DF92EF92FF920F93CC
:100AB0001F93CF93DF93EC01D62E898D9A8D892BCE
:100AC00039F481E090E09B838A8380E090E036C037
:100AD000EFB6F894E989FA8990818889809589230D
:100AE0008083898D9A8D05960E94ED0408E010E0C0
:100AF000FF24F3948F2D8D2129F061E0CE010E9417
:100B0000420507C0E989FA899081888980958923FF
:100B10008083898D9A8D0E94ED04FF0C015011098C
:100B20000115110539F761E0CE010E944205EFBEC3
:100B3000898D9A8D0E94ED0481E090E0DF91CF9144
:100B40001F910F91FF90EF90DF9008951F93CF9327
:100B5000DF93EC01162F61E0812F0E948E0B61E084
:100B6000812F0E94C70B812F90E0FC01E65CFE4FB5
:100B7000E491E88BFC01E25BFE4FE491F0E0EE0FC4
:100B8000FF1FE459FE4F859194919A8B898BDF91D9
:100B9000CF911F9108951F93CF93DF93EC01162FF0
:100BA00060E0812F0E948E0B1C87612F70E0FB019B
:100BB000E65CFE4FE491ED87FB01E25BFE4FE491C2
:100BC000F0E0EE0FFF1FEE59FE4F859194919F8745
:100BD0008E87DF91CF911F910895CF93DF93EC0122
:100BE0001B821A8248EE53E060E070E04C835D8324
:100BF0006E837F8388E091E0998388831C8A1B8AB7
:100C00001E8A1D8A188E1F8A1A8E198E8B8D8E7FD2
:100C10008B8F64E08FE090E00E94B50AD093CE0104
:100C2000C093CD016EE0CE010E94A6056FE0CE011B
:100C3000DF91CF910C94CB050F931F93CF93DF934C
:100C4000DC015A961C921E92599758961C921E923D
:100C5000579756961C921E925597CAE8D0E080E0AE
:100C600090E0FE0105911591259134910417150727
:100C70002607370759F54CE0489F9001499F300DF2
:100C80001124F901E257FF4F8591949154969C935A
:100C90008E935397F901E057FF4F859194915696A3
:100CA0009C938E935597F901EE56FF4F8591949141
:100CB00058969C938E9357972C563F4FF9018591E8
:100CC00094915A969C938E9359970AC001962C96AC
:100CD0008D30910509F0C5CF54961C921E92539702
:100CE00057968D919C915897892B09F44DC01C966D
:100CF0008C911C978631F0F520916800883050F077
:100D000091E08E3008F490E081E001C0880F9A9560
:100D1000EAF701C084E0822B809368001C962C9136
:100D20001C97283038F02E3040F0263148F0E0E0B3
:100D3000F0E008C0EDE6F0E005C0EBE6F0E002C050
:100D4000ECE6F0E03081283030F481E001C0880F1B
:100D50002A95EAF70DC0822F90E02E3010F4089704
:100D600001C00E9791E001C0990F8A95EAF7892F8B
:100D7000832B808359968D919C915A97DF91CF91C7
:100D80001F910F910C94ED04DF91CF911F910F9162
:100D90000895FC014485463150F5483028F04E3026
:100DA00030F4EBE6F0E005C0EDE6F0E002C0ECE682
:100DB000F0E05081483040F481E090E0042E01C022
:100DC000880F0A94EAF710C0242F30E04E3018F450
:100DD0002850310902C02E50310981E090E0022EE6
:100DE00001C0880F0A94EAF78095852380830895CF
:100DF00028E031E0FC01318320830C94C90661E0D6
:100E000087E00E948E0B61E088E00E948E0B61E01B
:100E100082E00E948E0B61E084E00C948E0B61E016
:100E200082E00E94C70B61E084E00E94C70B60E093
:100E300070E085E00C94430C61E087E00E94C70BF2
:100E400061E088E00E94C70B60E070E086E00C94EF
:100E5000430CCF93DF93EC010E940F07CE01DF918B
:100E6000CF910C941C07CF93C62F61E082E00E94C3
:100E7000C70B60E084E00E94C70B6C2F70E085E038
:100E80000E94430CE091CB01F091CC01309711F01E
:100E900081E08087CF910895CF93C62F60E082E0F4
:100EA0000E94C70B61E084E00E94C70B6C2F70E0CA
:100EB00085E00E94430CE091CB01F091CC0130978A
:100EC00011F08FEF8087CF9108951616170614F44E
:100ED0000C9433077195619571090C944C07CF936D
:100EE000C62F61E087E00E94C70B60E088E00E94A7
:100EF000C70B6C2F70E086E00E94430CE091CB01A1
:100F0000F091CC01309711F081E08187CF91089565
:100F1000CF93C62F60E087E00E94C70B61E088E0B6
:100F20000E94C70B6C2F70E086E00E94430CE0919A
:100F3000CB01F091CC01309711F08FEF8187CF91E9
:100F400008951616170614F40C946F0771956195A1
:100F500071090C9488070F931F93FC0161157105AB
:100F6000B1F06130710529F50185112707FD109554
:100F7000212F312F4481558166817781400F511F88
:100F8000621F731F448355836683778312C0008575
:100F9000112707FD1095212F312F4081518162814A
:100FA0007381400F511F621F731F408351836283FF
:100FB00073831F910F910895CF92DF92EF92FF926A
:100FC000E82FF0E0DF01A153BE4F8C918230F9F0A1
:100FD00078F4813009F052C0EE0FFF1FE851FE4F48
:100FE0000190F081E02DFF90EF90DF90CF90099479
:100FF000833021F1843009F041C08091CD0190917E
:10100000CE01FF90EF90DF90CF900C94F404C0904D
:10101000E001D090E101E090E201F090E3010E9454
:10102000F80C22E3C20ED11CE11CF11CC616D70637
:10103000E806F90618F560E070E016C0C090E4011B
:10104000D090E501E090E601F090E7010E94F80CF5
:1010500022E3C20ED11CE11CF11CC616D706E8061D
:10106000F90660F461E070E08091CB019091CC01D1
:10107000FF90EF90DF90CF900C94AB07FF90EF9034
:10108000DF90CF900895CF93C82F8091020181FF08
:1010900002C0C1FF46C08091020181FD2CC0C1FF8A
:1010A0002AC08091D601823051F40E94F80C6093DE
:1010B000E0017093E1018093E2019093E30180915C
:1010C000D601833051F40E94F80C6093E4017093D0
:1010D000E5018093E6019093E7018091D60181308C
:1010E00051F40E94EC0C6093DC017093DD0180935D
:1010F000DE019093DF018091020182FF16C0C2FDE4
:1011000014C088E00E94DC078091020183FF3EC08A
:10111000C3FD3CC089E00E94DC07C0930201CF916F
:10112000089587E00E94DC07E6CF8091020182FDEE
:10113000EBCFC2FFE9CF8091D701823051F40E94FA
:10114000F80C6093E0017093E1018093E2019093C9
:10115000E3018091D701833051F40E94F80C609331
:10116000E4017093E5018093E6019093E70180919B
:10117000D701813049F60E94EC0C6093DC0170933A
:10118000DD018093DE019093DF01BECF80910201EB
:1011900082FDC3CFC2FFC1CF8091D801823051F40C
:1011A0000E94F80C6093E0017093E1018093E201EA
:1011B0009093E3018091D801833051F40E94F80CA0
:1011C0006093E4017093E5018093E6019093E70159
:1011D0008091D801813009F0A0CF0E94EC0C60937F
:1011E000DC017093DD018093DE019093DF0195CFE8
:1011F0001F920F920FB60F9211242F933F934F938C
:101200005F936F937F938F939F93AF93BF93EF936E
:10121000FF9393B18091DB0189230E944308FF91E2
:10122000EF91BF91AF919F918F917F916F915F915E
:101230004F913F912F910F900FBE0F901F901895D7
:10124000CF93C82F8091010180FF02C0C0FF53C01F
:101250008091010180FD1EC0C0FF1CC08091CF01A4
:10126000823051F40E94EC0C6093E0017093E10134
:101270008093E2019093E3018091CF01833051F498
:101280000E94EC0C6093E4017093E5018093E60109
:101290009093E7018091010181FF31C0C1FD2FC012
:1012A00081E00E94DC078091010182FF4CC0C2FDF9
:1012B0004AC082E00E94DC078091010183FF67C081
:1012C000C3FD65C083E00E94DC078091010184FFBB
:1012D00082C0C4FD80C084E00E94DC0780910101CF
:1012E00085FF9DC0C5FD9BC085E00E94DC07C093C3
:1012F0000101CF91089580E00E94DC07CBCF80915F
:10130000010181FDD0CFC1FFCECF8091D0018230CD
:1013100051F40E94EC0C6093E0017093E101809322
:10132000E2019093E3018091D001833009F0BBCFBB
:101330000E94EC0C6093E4017093E5018093E60158
:101340009093E701B0CF8091010182FDB5CFC2FF3C
:10135000B3CF8091D101823051F40E94EC0C6093A4
:10136000E0017093E1018093E2019093E3018091A9
:10137000D101833009F0A0CF0E94EC0C6093E4010E
:101380007093E5018093E6019093E70195CF8091FA
:10139000010183FD9ACFC3FF98CF8091D2018230A3
:1013A00051F40E94EC0C6093E0017093E101809392
:1013B000E2019093E3018091D201833009F085CF5F
:1013C0000E94EC0C6093E4017093E5018093E601C8
:1013D0009093E7017ACF8091010184FD7FCFC4FF14
:1013E0007DCF8091D301823051F40E94EC0C609348
:1013F000E0017093E1018093E2019093E301809119
:10140000D301833009F06ACF0E94EC0C6093E401B1
:101410007093E5018093E6019093E7015FCF80919F
:10142000010185FD64CFC5FF62CF8091D401823078
:1014300051F40E94EC0C6093E0017093E101809301
:10144000E2019093E3018091D401833009F04FCF02
:101450000E94EC0C6093E4017093E5018093E60137
:101460009093E70144CF1F920F920FB60F92112471
:101470002F933F934F935F936F937F938F939F939C
:10148000AF93BF93EF93FF9396B18091DA018923D5
:101490000E942009FF91EF91BF91AF919F918F9191
:1014A0007F916F915F914F913F912F910F900FBE60
:1014B0000F901F901895CF93C82F8091000183FF44
:1014C00002C0C3FF26C08091000183FD1EC0C3FF80
:1014D0001CC08091D501823051F40E94EC0C6093C5
:1014E000E0017093E1018093E2019093E301809128
:1014F000D501833051F40E94EC0C6093E4017093A9
:10150000E5018093E6019093E701C0930001CF913C
:10151000089586E00E94DC07F8CF1F920F920FB665
:101520000F9211242F933F934F935F936F937F9369
:101530008F939F93AF93BF93EF93FF9399B1809154
:10154000D90189230E945B0AFF91EF91BF91AF916E
:101550009F918F917F916F915F914F913F912F91CB
:101560000F900FBE0F901F90189503978131910532
:1015700008F0AAC08C5C9F4FFC010C94310F809145
:101580006C00816080936C00809168008260809321
:1015900068006093CF018091DA0181600FC0809173
:1015A0006C00826080936C00809168008260809300
:1015B00068006093D0018091DA0182608093DA0143
:1015C000089580916C00846080936C008091680025
:1015D0008260809368006093D1018091DA01846019
:1015E000EDCF80916C00886080936C0080916800E2
:1015F0008260809368006093D2018091DA018860F4
:10160000DDCF80916C00806180936C0080916800D8
:101610008260809368006093D3018091DA018061D9
:10162000CDCF80916C00806280936C0080916800C7
:101630008260809368006093D4018091DA018062B7
:10164000BDCF80916D00886080936D0080916800AF
:101650008460809368006093D5018091D90188608F
:101660008093D901089580916B00826080936B0014
:10167000809168008160809368006093D6018091BA
:10168000DB0182601FC080916B00846080936B00DF
:10169000809168008160809368006093D701809199
:1016A000DB0184600FC080916B00886080936B00C9
:1016B000809168008160809368006093D801809178
:1016C000DB0188608093DB010895833081F028F48A
:1016D000813099F08230A1F008958630A9F08730EA
:1016E000B9F08430D1F4809180008F7D03C0809167
:1016F00080008F7780938000089584B58F7702C033
:1017000084B58F7D84BD08958091B0008F7703C02C
:101710008091B0008F7D8093B0000895CF93DF93C8
:1017200090E0FC01E65CFE4F2491FC01E25BFE4F81
:101730008491882349F190E0880F991FFC01EA58B1
:10174000FE4FA591B49184599E4FFC01C591D4914F
:101750009FB7611108C0F8948C91209582238C93D7
:10176000888182230AC0623051F4F8948C91322F20
:10177000309583238C938881822B888304C0F894CE
:101780008C91822B8C939FBFDF91CF9108950F9303
:101790001F93CF93DF931F92CDB7DEB7282F30E092
:1017A000F901EA5DFE4F8491F901E65CFE4F149168
:1017B000F901E25BFE4F04910023C9F0882321F078
:1017C00069830E94650B6981E02FF0E0EE0FFF1F37
:1017D000E459FE4FA591B4919FB7F8948C91611193
:1017E00003C01095812301C0812B8C939FBF0F9064
:1017F000DF91CF911F910F910895CF93DF93282F01
:1018000030E0F901EA5DFE4F8491F901E65CFE4F9C
:10181000D491F901E25BFE4FC491CC2391F0811188
:101820000E94650BEC2FF0E0EE0FFF1FEE59FE4F0C
:10183000A591B4912C912D2381E090E021F480E0DA
:1018400002C080E090E0DF91CF9108958E3008F0E3
:101850008E5087702091030190E4299F90011124FC
:10186000822B80937C0080917A00806480937A0040
:1018700080917A0086FDFCCF8091780020917900DC
:1018800090E0922B08951F93CF93DF93182FEB01D5
:1018900061E00E948E0B209711F460E004C0CF3FFE
:1018A000D10539F461E0812FDF91CF911F910C9424
:1018B000C70BE12FF0E0EA5DFE4FE491E330F9F071
:1018C00048F4E130B9F0E230A1F584B5806284BD1E
:1018D000C8BD34C0E630E9F0E73019F1E43049F52D
:1018E00080918000806280938000D0938B00C093B1
:1018F0008A0024C084B5806884BDC7BD1FC08091A4
:101900008000806880938000D0938900C093880015
:1019100015C08091B00080688093B000C093B30080
:101920000DC08091B00080628093B000C093B4007D
:1019300005C0C038D1050CF0B5CFAFCFDF91CF9146
:101940001F9108951F920F920FB60F9211242F939B
:101950003F938F939F93AF93BF938091FD0190919D
:10196000FE01A091FF01B09100023091FC0123E043
:10197000230F2D3720F40196A11DB11D05C026E8C7
:10198000230F0296A11DB11D2093FC018093FD0140
:101990009093FE01A093FF01B09300028091010299
:1019A00090910202A0910302B09104020196A11D40
:1019B000B11D8093010290930202A0930302B093A1
:1019C0000402BF91AF919F918F913F912F910F9002
:1019D0000FBE0F901F9018952FB7F8946091FD01DE
:1019E0007091FE018091FF01909100022FBF089538
:1019F0003FB7F8948091010290910202A0910302F6
:101A0000B091040226B5A89B05C02F3F19F001969E
:101A1000A11DB11D3FBF6627782F892F9A2F620F16
:101A2000711D811D911D42E0660F771F881F991F50
:101A30004A95D1F70895CF92DF92EF92FF92CF931C
:101A4000DF936B017C010E94F80CEB01C114D104FF
:101A5000E104F10479F00E94F80C6C1B7D0B683EE8
:101A60007340A0F381E0C81AD108E108F108C85119
:101A7000DC4FECCFDF91CF91FF90EF90DF90CF90D4
:101A80000895789484B5826084BD84B5816084BDF6
:101A900085B5826085BD85B5816085BDEEE6F0E0E7
:101AA000808181608083E1E8F0E010828081826043
:101AB0008083808181608083E0E8F0E080818160C4
:101AC0008083E1EBF0E0808184608083E0EBF0E0F4
:101AD000808181608083EAE7F0E080818460808398
:101AE0008081826080838081816080838081806842
:101AF00080831092C1000895FC0124853585F90189
:101B0000E05CFF4F80819181F901EE5BFF4F208106
:101B10003181821B930B8F7399270895FC01848573
:101B20009585FC01E05CFF4F40815181FC01EE5B3B
:101B3000FF4F208131814217530741F00190F0811E
:101B4000E02DE80FF91F808190E008958FEF9FEF5F
:101B50000895FC0184859585FC01E05CFF4F408180
:101B60005181FC01EE5BFF4F208131814217530709
:101B700079F0A081B181A80FB91F8C9120813181AA
:101B80002F5F3F4F2F7333273183208390E00895D9
:101B90008FEF9FEF0895FC0181A1882329F0A4898C
:101BA000B5898C9186FFFBCF11A20895CF93DF9367
:101BB000FC0126853785D901A05CBF4F8D919C9192
:101BC000119701968F739927E901CE5BDF4F48810A
:101BD000598184179507D9F30D90BC91A02DA20FC0
:101BE000B31F6C93A685B785A05CBF4F11969C93DD
:101BF0008E93A689B7892C9181E090E0078C02C072
:101C0000880F991F0A94E2F7282B2C9381E081A377
:101C10000488F589E02D80818064808381E090E0F4
:101C2000DF91CF91089508951F920F920FB60F92F2
:101C300011242F933F934F938F939F93EF93FF9391
:101C40008091C00082FD1CC04091C6008091AB0213
:101C50009091AC0201968F7399272091AD0230913B
:101C6000AE028217930771F0E091AB02F091AC02E3
:101C7000E559FD4F40839093AC028093AB0202C0C4
:101C80008091C600FF91EF919F918F914F913F916D
:101C90002F910F900FBE0F901F90189585E092E046
:101CA0000E947C0D892B11F00C94130E08951F9245
:101CB0000F920FB60F9211242F933F938F939F9300
:101CC000EF93FF932091670230916802809169023F
:101CD00090916A022817390731F48091C1008F7DF5
:101CE0008093C10014C0E0916902F0916A02E95D3D
:101CF000FD4F20818091690290916A0201968F7355
:101D0000992790936A02809369022093C600FF91FD
:101D1000EF919F918F913F912F910F900FBE0F9058
:101D20001F901895109208021092070288EE93E017
:101D3000A0E0B0E08093090290930A02A0930B0206
:101D4000B0930C0288E191E0909306028093050223
:101D50008BE692E0909312028093110287E292E068
:101D6000909314028093130285EC90E090931602F6
:101D70008093150284EC90E09093180280931702F0
:101D800080EC90E090931A028093190281EC90E02D
:101D900090931C0280931B0282EC90E090931E02B1
:101DA00080931D0286EC90E09093200280931F02A6
:101DB00084E08093210283E08093220287E0809375
:101DC000230285E08093240281E080932502089518
:101DD0000E94410D0E94FA00CEE4DEE00E9418014C
:101DE0002097E1F30E944E0EF9CFCF92DF92EF924F
:101DF000FF920F931F93CF93DF936C017A01EB0156
:101E0000E60EF71E00E010E0CE15DF0561F06991E7
:101E1000D601ED91FC910190F081E02DC60109956C
:101E2000080F191FF1CFC801DF91CF911F910F91BA
:101E3000FF90EF90DF90CF90089597FB072E16F458
:101E4000009407D077FD09D00E94370F07FC05D01A
:101E50003EF4909581959F4F0895709561957F4FC1
:101E60000895EE0FFF1F0590F491E02D0994AA1B31
:101E7000BB1B51E107C0AA1FBB1FA617B70710F075
:101E8000A61BB70B881F991F5A95A9F780959095A7
:101E9000BC01CD010895DC01FB018C9190819D93E3
:101EA00081934150510914161506BCF30895A0E022
:101EB000B0E0EDE5FFE00C9435116C017B018A0187
:101EC000E901F9010995B80197FF0FC0C701FE01AB
:101ED000099597FD08C0B801C601FE01099597FD57
:101EE00014C0860112C0870110C0C701FE01099508
:101EF0001816190644F0B801C601FE01099597FFAE
:101F000004C0C60103C0C70101C0C801CDB7DEB718
:101F1000E8E00C945111ACE0B0E0E1E9FFE00C9492
:101F20002B118C016B015C874B8779015195419591
:101F3000510958874F832B853C85200F311F3A83E9
:101F4000298337E0C316D10470F589809A804B85C8
:101F50005C85C49E5001C59EB00CD49EB00C11246B
:101F6000A00EB11E8A149B0408F071C1340106153D
:101F70001705A0F463018B859C85C81AD90AB301A3
:101F8000C601F70109951816190644F44B855C85BE
:101F9000B601C3010E944B0F3601E9CF2B853C856A
:101FA000820E931EDFCFC601969587954B855C8583
:101FB000849F5001859FB00C949FB00C1124A00EFB
:101FC000B11EC60101979E838D8397E0C916D10487
:101FD00009F44CC0ED81FE81E49F3001E59F700C57
:101FE000F49F700C1124600E711EF9E2CF16D1041B
:101FF000A8F1C60123E0969587952A95E1F7849F7D
:102000004001859F900C949F900C11241401220C88
:10201000331CA801420D531DB801680D791D9701AD
:10202000C8010E94570F2C01A501480D591D91941C
:10203000819491089701B501C501880D991D0E94F1
:10204000570F5C01B301680D791D9701A301C3010E
:10205000821993090E94570F3C0101C02801970182
:10206000A301B501C2010E94570F5C014B855C853D
:10207000B501C8010E944B0F89809A804D815E8115
:102080008B859C85489F9001499F300D589F300D4E
:1020900011243C832B833901600E711E13015401FE
:1020A00020E030E06A147B0408F441C0B801C501A7
:1020B00029873A87F701099529853A85181619065F
:1020C000B4F1892B89F44B855C85B50189819A81AE
:1020D0000E944B0F29813A814B855C85240F351F67
:1020E0003A83298321E030E08B859C85A80EB91EB8
:1020F000D9CFB801C30129873A87F7010995230190
:102100004B855C85441A550A29853A8597FD13C08D
:10211000892B61F44B855C85B101C3010E944B0F93
:102120002B853C85221A330A21E030E032016A1403
:102130007B04F8F60EC04B855C85B301C5010E9497
:102140004B0F4B855C85A40EB51E320121E030E0BB
:10215000A9CF232B09F450C04B805C804F81588558
:10216000441A550A400E511E650129813A81C21A4E
:10217000D30AA901401B510BC416D5060CF4A601C5
:102180001416150634F4B501641B750BC8010E94C2
:102190004B0F410186189708A201421953098B85FC
:1021A0009C85481B590B8416950608F4A401141647
:1021B000150634F4B201641B750BC5010E944B0F68
:1021C000EB85FC85EC15FD0548F4C601BF010E94B6
:1021D000370F9701AF01C8010E948B0F2B853C85FB
:1021E00028153905A0F5820108191909C401B9019A
:1021F0000E94370F6B019FCE8B859C85C89E500136
:10220000C99EB00CD89EB00C1124A00EB11E8A1429
:102210009B04E8F4340106151705A0F463018B85CF
:102220009C85C81AD90AB301C601F7010995181689
:10223000190644F44B855C85B601C3010E944B0F1F
:102240003601E9CF2B853C85820E931EE0CF2C967C
:10225000E2E10C9447112F923F924F925F926F925E
:102260007F928F929F92AF92BF92CF92DF92EF9226
:10227000FF920F931F93CF93DF93CDB7DEB7CA1BA7
:10228000DB0B0FB6F894DEBF0FBECDBF09942A88D2
:10229000398848885F846E847D848C849B84AA847A
:1022A000B984C884DF80EE80FD800C811B81AA8107
:1022B000B981CE0FD11D0FB6F894DEBF0FBECDBFD2
:1022C000ED01089511E0C8E8D1E004C0FE010E94CC
:0E22D000330F2296CE38D107C9F7F894FFCF0E
:1022DE00083F0E01000000005405F50EC404AA04C8
:1022EE00DA04D20400000000D60DF50E7C0DA90D07
:0422FE008E0DCB0D69
:00000001FF
