:100000000C94C7000C94EF000C94EF000C94020EBB
:100010000C943D0F0C94970F0C94EF000C94EF0090
:100020000C94EF000C94EF000C94EF000C94EF0094
:100030000C94EF000C94EF000C94EF000C94EF0084
:100040000C94AC110C94EF000C941E130C946113DF
:100050000C94EF000C94EF000C94EF000C94EF0064
:100060000C94EF000C94EF002B106E106E106E10BD
:100070006E106E103D104D105D106E106E10C90F99
:10008000D90FEB0FFB0F0B101B1000C2010001007A
:10009000110011000C0000E100000A0025002500FD
:1000A0002100009600001900390039003600127A4C
:1000B00000001F004600460044008070000022003F
:1000C0004D004D004A00004B0000360075007500E1
:1000D0007200403800004A009C009C009900802576
:1000E00000007200EC00EC00E900C0120000E90022
:1000F000DA01DA01D70160090000D701B603B603BF
:10010000B303B0040000B3036E076E076B07580219
:1001100000006E07DC0EDC0ED80E2C010000DC0E99
:10012000C11DC11DBE1D000000070002010000032B
:100130000406000000000000000001020408102076
:100140004080010204081020010204081020040469
:10015000040404040404020202020202030303036F
:100160000303000000002300260029000000000017
:10017000250028002B0000000000240027002A0092
:10018000B1038A0677099C13CC038E067B091124E0
:100190001FBECFEFD8E0DEBFCDBF11E0A0E0B1E0E1
:1001A000E4ECF8E202C005900D92A432B107D9F751
:1001B00013E0A4E2B1E001C01D92AC31B107E1F758
:1001C00011E0C8E8D1E004C02297FE010E943D146E
:1001D000C038D107C9F70E94F2130C9455140C943F
:1001E000000080E991E00E94F90340E855E260E0F8
:1001F00070E081EA91E00E94260B81E08093A001EB
:1002000064EF71E080E090E00C9425122F923F9211
:100210004F925F926F927F928F929F92AF92BF9216
:10022000CF92DF92EF92FF920F931F93CF93DF93C2
:10023000CDB7DEB760970FB6F894DEBF0FBECDBF67
:100240001C861B8624E030E03E872D8740918C0180
:1002500050918D0160918E0170918F0184E291E047
:100260000E945A098111DFC120918C0130918D01CA
:1002700083E12F87388B0E9430112C0184E10E948A
:1002800030114C0182E10E9430116C016AE070E093
:1002900080E090E00E94251283E10E9430113C0131
:1002A00084E10E9430115C0182E10E9430111C0146
:1002B0006AE070E080E090E00E94251283E10E94F5
:1002C00030117C0184E10E9430118C0182E10E9496
:1002D00030112F853889641475042CF4E414F50466
:1002E0004CF4720107C04614570424F4E614F704D2
:1002F0000CF47301A814B9042CF4081519054CF476
:10030000840107C08A149B0424F40A151B050CF40D
:1003100085012C143D042CF48C159D054CF4C6016C
:1003200007C0C214D30424F4821593050CF4C10150
:10033000DD24D39449ECE416F1040CF0D12C080F21
:10034000191FFF24F3940A3C11050CF0F12CCE0187
:1003500006962F87388B0E9492062F853889D110F8
:1003600005C0F11003C081E08A8746C02130310505
:10037000C1F01CF4232B41F03EC022303105F1F0D6
:100380002330310541F137C0DD2031F060E070E00D
:10039000CE0106960E949306FF2069F162E070E0AC
:1003A00026C0DD2031F061E070E0CE0106960E94AB
:1003B0009306FF2001F163E070E019C0DD2031F009
:1003C00062E070E0CE0106960E949306FF2099F04D
:1003D00061E070E00CC0DD2031F063E070E0CE0140
:1003E00006960E949306FF2031F060E070E0CE0197
:1003F00006960E9493061A86FE013696DE01119635
:1004000085E001900D928A95E1F7FE013196DE01BB
:10041000169685E001900D928A95E1F71D811123D2
:1004200019F00E949C0902C00E94A509E0918A016E
:10043000F0918B011A8760918C0170918D018091F0
:100440008E0190918F012DB73EB72E5031090FB616
:10045000F8943EBF0FBE2DBFADB7BEB711962EE0CC
:1004600001900D922A95E1F70E811F81288539852B
:100470004A850E9477078C010FB6F894DEBF0FBE45
:10048000CDBF8230910589F52B853C852230310521
:1004900008F056C020918C0130918D0140918C0163
:1004A00050918D0160918E0170918F0184E291E0F5
:1004B0000E944A0920918C0130918D0140918C015C
:1004C00050918D0160918E0170918F0180E991E0D2
:1004D0000E94490660938C0170938D0180938E0178
:1004E00090938F0100E010E08FC08430910541F5BA
:1004F0000E94A8090E94990980E991E00E94C50420
:1005000080918C0190918D018230910559F02CF4ED
:1005100097FD11C082E090E00AC0039761F481E08A
:1005200090E005C010928D0110928C0104C0909350
:100530008D0180938C0100918C0110918D0164C01C
:100540008D859E850817190789F50E949C090E94D0
:100550009F0920918C0130918D0140918C01509127
:100560008D0160918E0170918F0184E291E00E9473
:100570004A0920918C0130918D0140918C0150915C
:100580008D0160918E0170918F0180E991E00E9450
:10059000490660938C0170938D0180938E01909336
:1005A0008F0164EF71E080E090E02CC00E94A2090E
:1005B0000E949F0940918C0150918D0160918E01A4
:1005C00070918F01980184E291E00E944A09409164
:1005D0008C0150918D0160918E0170918F01980175
:1005E00080E991E00E94490660938C0170938D012F
:1005F00080938E0190938F01062F172F62E370E096
:1006000080E090E00E9425120E94A2090E94A509A4
:100610000E94A8092B853C852F5F3F4F3C872B8785
:100620001E870D8713CE60960FB6F894DEBF0FBEFF
:10063000CDBFDF91CF911F910F91FF90EF90DF9091
:10064000CF90BF90AF909F908F907F906F905F9072
:100650004F903F902F90089540918C0150918D01C3
:1006600060918E0170918F0184E291E00E945A099D
:10067000811122C040918C0150918D0160918E01B9
:1006800070918F0184E291E00E94520940918C01A7
:1006900050918D0160918E0170918F019C0180E9D4
:1006A00091E00E94490660938C0170938D018093C4
:1006B0008E0190938F01D0CF0895CF93DF930E9446
:1006C0009F098BE00E940711892BD9F3CAE0D0E083
:1006D00083E10E94301182E10E94301184E10E9486
:1006E000301163E270E080E090E00E9425122197D3
:1006F000209771F70E94AE0690938B0180938A0138
:10070000FC018481958190938F0180938E011092DA
:100710008D0110928C010E9406010E94990968EED9
:1007200073E080E090E00E9425120E949F098BE018
:100730000E940711892BD9F30E94AE0690938B017A
:1007400080938A01FC018481958190938F0180932D
:100750008E0110928D0110928C01DF91CF910C943B
:100760002C0381EA91E00E94F70A80E991E00E945F
:10077000D40310928F0110928E0110928D0110926D
:100780008C010E94AE0690938B0180938A01BC017C
:1007900084E291E00C942D0980E991E00E94F80335
:1007A00081EA91E00C94020CCF93DF93EC01019667
:1007B0000E94090C8AE590E09B838A838EE690E094
:1007C0009D838C8380E590E09F838E838CE99FEFEF
:1007D000998788871B861A8680E293E09D878C879D
:1007E00086E193E09F878E871882DF91CF910895ED
:1007F000089501960E94330C0C94960985E10E949D
:1008000030118132934014F480E0089580E10E9419
:10081000301181329340C4F381E10E94301121E014
:10082000813293400CF420E0822F08958F929F92A2
:10083000AF92BF92CF92DF92EF92FF920F931F93EE
:10084000CF93DF93EC0183E10E94301184E10E9499
:1008500030114C0182E10E9430116C016AE070E0BD
:1008600080E090E00E94251283E10E94301184E133
:100870000E9430115C0182E10E9430117C016AE02B
:1008800070E080E090E00E94251283E10E94301128
:1008900084E10E9430118C0182E10E9430119C01A0
:1008A000A814B9042CF4081519054CF4840107C0E8
:1008B0008A149B0424F40A151B050CF48501EC141E
:1008C000FD042CF42C153D054CF4960107C0CE1404
:1008D000DF0424F42E153F050CF49701293C310563
:1008E0000CF446C0093C11050CF442C0C901801B40
:1008F000910B97FF03C09195819591098997C4F158
:10090000CE0101967C012017310774F46E817F813E
:100910000E946F0C68857985C7010E94AB0C0E940C
:100920009C090E94AE090DC0688579850E946F0CF4
:100930006E817F81C7010E94AB0C0E94B1090E94A9
:100940009C0964E670E080E090E00E942512CE01F0
:100950000E94F903DF91CF911F910F91FF90EF90CB
:10096000DF90CF90BF90AF909F908F900C94A5098F
:10097000DF91CF911F910F91FF90EF90DF90CF907B
:10098000BF90AF909F908F9008950F931F93CF9338
:10099000DF93EC010E94160481E0FE0181938F0138
:1009A00068857985CF010E946F0C6E817F81C801B7
:1009B0000E94AB0C0E94B1098E859F8597FD019620
:1009C000BC01759567956C5E7F4F882777FD809594
:1009D000982F0E942512CE010E94F9036BE470E06B
:1009E00080E090E00E94251268857985C8010E9408
:1009F0006F0C6E817F81C8010E94AB0C0E94B1090F
:100A00008E859F8597FD0196BC01759567956C5EF7
:100A10007F4F882777FD8095982F0E942512CE0161
:100A20000E94F9036AE070E080E090E00E942512E5
:100A3000CE01DF91CF911F910F910C941604CF93AB
:100A4000DF93EC010E94C504CE01DF91CF910C949D
:100A5000C504CF92DF92EF92FF920F931F93CF9333
:100A6000DF93EC0183E10E943011893C91057CF019
:100A70000E949C090E949F09CE01DF91CF911F9196
:100A80000F91FF90EF90DF90CF900C94C504FE0182
:100A900011928F010E94AB096C817D8162537109B3
:100AA000C8010E94AB0C6A817B8162537109C80145
:100AB0000E946F0C60E971E080E090E00E942512D6
:100AC000CE010E94FE03811121C0EC80FD8085E1F2
:100AD0000E943011E81AF90ACA80DB8080E10E9486
:100AE0003011B601681B790B8A859B85E816F906DB
:100AF0000CF47C01681779070CF4BC01C8010E9452
:100B00006F0CB701C8010E94AB0CDACFCE01DF91A8
:100B1000CF911F910F91FF90EF90DF90CF900C94A9
:100B2000F9030F931F93CF93DF93EC018881882300
:100B300041F00E949909DF91CF911F910F910C9480
:100B40009F09CE010E941604FE0111928F016E8151
:100B50007F81CF010E946F0C68857985C8010E9452
:100B6000AB0C0E94AE098C859D8597FD0196BC015A
:100B7000759567956C5E7F4F882777FD8095982FD8
:100B80000E942512CE010E94F9036BE470E080E020
:100B900090E00E9425126E817F81C8010E946F0C37
:100BA00068857985C8010E94AB0C0E94AE098C85CE
:100BB0009D8597FD0196BC01759567956C5E7F4F8D
:100BC000882777FD8095982F0E942512CE010E94DC
:100BD000F9036AE070E080E090E00E9425120E9434
:100BE000AB096C817D8162537109C8010E94AB0C15
:100BF0006A817B8162537109C8010E946F0C6AE0AF
:100C000070E080E090E00E942512CE010E94F9037E
:100C1000CE01DF91CF911F910F910C94160461309A
:100C20007105A9F01CF4672B41F00895623071053D
:100C3000B9F063307105E9F008954230510521F1B2
:100C40004330510519F14130510511F51BC04230B7
:100C50005105E1F043305105B9F0452BC9F412C0FC
:100C60004130510589F04330510561F0452B81F445
:100C70000DC04130510551F04230510519F0452B5E
:100C800039F402C00C941F050C9491050C94C50412
:100C90000895AF92BF92CF92DF92EF92FF920F939F
:100CA0001F93CF93DF935C016A017B01E901870108
:100CB0002417350721F0A901B6010E940F06C130A3
:100CC000D10589F034F42097A9F487010750110960
:100CD00011C0C230D10559F0C330D10559F4870194
:100CE0000150110907C08701095F1F4F03C0870129
:100CF0000F5F1F4FC5010E942905BE01C801DF918A
:100D0000CF911F910F91FF90EF90DF90CF90BF9008
:100D1000AF9008958DEB91E00C94F70A8DEB91E084
:100D20000C94020C0895FC016130710571F01CF403
:100D3000672B41F008956230710551F06330710501
:100D400051F0089581E08083089581E081830895C2
:100D500081E08283089581E083830895CF93DF93B8
:100D6000CDB7DEB72E970FB6F894DEBF0FBECDBF5E
:100D700060E083E00E94981060E089E00E94981093
:100D800083E00E9407118130910599F422E030E060
:100D90003C832B8327E030E03A8729873C872B87E9
:100DA00024EB30E03E872D8721E330E03E832D8326
:100DB00014C082E090E09C838B8386E090E09A8769
:100DC00089879C878B8780EF90E09E878D8780E363
:100DD00090E09E838D8381E090E098878F8389E007
:100DE0000E940711CE0101962E960FB6F894DEBF31
:100DF0000FBECDBFDF91CF910895AF92BF92CF923A
:100E0000DF92EF92FF920F931F93CF93DF93CDB7B3
:100E1000DEB72E970FB6F894DEBF0FBECDBFCB82E4
:100E2000DC822B813C812130310559F59C01215018
:100E300031092830310508F447C08F30910509F495
:100E400043C08E30910509F43FC09C012551310902
:100E500022303105C8F19C012C5131092230310575
:100E600098F19C01235231092230310568F19C012F
:100E70002A5231092630310538F141E0C19729F570
:100E800023C022303105E1F487309105E9F08E303E
:100E90009105D1F085319105B9F08C319105A1F022
:100EA0008332910589F09C012A52310925303105A0
:100EB00058F08133910541F041E08F9731F404C03F
:100EC00041E02330310509F040E0842F2E960FB623
:100ED000F894DEBF0FBECDBFDF91CF911F910F9170
:100EE000FF90EF90DF90CF90BF90AF9008952F923A
:100EF0003F924F925F926F927F928F929F92AF92AA
:100F0000BF92CF92DF92EF92FF920F931F93CF93F6
:100F1000DF9300D000D01F92CDB7DEB72B013C018C
:100F2000202E812E922E332E411175C181E048165C
:100F3000510409F4BFC01CF4452861F06BC182E084
:100F40004816510409F45EC083E04816510409F4C0
:100F500009C160C12223A1F0AA8CBB8CCC8CDD8C92
:100F6000EE8CFF8C08A119A12AA13BA14CA15DA187
:100F70006EA17FA1C30101960E94FD06811153C19C
:100F80002220A1F0AA8CBB8CCC8CDD8CEE8CFF8C4B
:100F900008A119A12AA13BA14CA15DA16EA17FA12D
:100FA000C30107970E94FD06811137C13320A1F0CC
:100FB000AA8CBB8CCC8CDD8CEE8CFF8C08A119A18B
:100FC0002AA13BA14CA15DA16EA17FA1C301019704
:100FD0000E94FD06811123C1882051F1AA8CBB8C8F
:100FE000CC8CDD8CEE8CFF8C08A119A12AA13BA131
:100FF0004CA15DA16EA17FA1C30107960E94FD06D1
:1010000081110FC18820A1F0AA8CBB8CCC8CDD8C07
:10101000EE8CFF8C08A119A12AA13BA14CA15DA1D6
:101020006EA17FA1C30107960E94FD068111F9C040
:101030009920A1F0AA8CBB8CCC8CDD8CEE8CFF8C23
:1010400008A119A12AA13BA14CA15DA16EA17FA17C
:10105000C30101960E94FD068111E5C02220A1F086
:10106000AA8CBB8CCC8CDD8CEE8CFF8C08A119A1DA
:101070002AA13BA14CA15DA16EA17FA1C30107974D
:101080000E94FD068111C9C0332051F1AA8CBB8C8E
:10109000CC8CDD8CEE8CFF8C08A119A12AA13BA180
:1010A0004CA15DA16EA17FA1C30101970E94FD0625
:1010B0008111B5C03320A1F0AA8CBB8CCC8CDD8C07
:1010C000EE8CFF8C08A119A12AA13BA14CA15DA126
:1010D0006EA17FA1C30101970E94FD0681119FC0EF
:1010E0008820A1F0AA8CBB8CCC8CDD8CEE8CFF8C84
:1010F00008A119A12AA13BA14CA15DA16EA17FA1CC
:10110000C30107960E94FD0681118BC09920A1F0B2
:10111000AA8CBB8CCC8CDD8CEE8CFF8C08A119A129
:101120002AA13BA14CA15DA16EA17FA1C3010196A3
:101130000E94FD06811177C0222051F1AA8CBB8C40
:10114000CC8CDD8CEE8CFF8C08A119A12AA13BA1CF
:101150004CA15DA16EA17FA1C30107970E94FD066E
:1011600081115BC02220A1F0AA8CBB8CCC8CDD8CC1
:10117000EE8CFF8C08A119A12AA13BA14CA15DA175
:101180006EA17FA1C30107970E94FD06811145C092
:101190003320A1F0AA8CBB8CCC8CDD8CEE8CFF8C28
:1011A00008A119A12AA13BA14CA15DA16EA17FA11B
:1011B000C30101970E94FD06811131C08820A1F072
:1011C000AA8CBB8CCC8CDD8CEE8CFF8C08A119A179
:1011D0002AA13BA14CA15DA16EA17FA1C3010796ED
:1011E0000E94FD0681111DC09920A1F0AA8CBB8C24
:1011F000CC8CDD8CEE8CFF8C08A119A12AA13BA11F
:101200004CA15DA16EA17FA1C30101960E94FD06C4
:10121000811109C00AC084E007C080E005C083E0F6
:1012200003C081E001C082E090E00F900F900F902A
:101230000F900F90DF91CF911F910F91FF90EF9042
:10124000DF90CF90BF90AF909F908F907F906F90E6
:101250005F904F903F902F900895FC01EC59FF4F05
:1012600071836083FC0122E330E04FEF5FEF419335
:1012700051932150310921153105C9F7DB0114962D
:10128000ED91FC911597EE0FFF1FE80FF91F1182EA
:1012900010820895FB01EE0FFF1FE80FF91F318345
:1012A00020830895FB01EE0FFF1FE80FF91F8081D7
:1012B000918108958C599F4FDC01ED91FC9181E063
:1012C000268137812617370709F080E0089580913D
:1012D000D90181110BC040E855E260E070E08AED71
:1012E00091E00E94260B81E08093D90108958AED58
:1012F00091E00C94F70A8AED91E00C94020CCF93E4
:10130000DF931F92CDB7DEB789830E946709898179
:10131000682F8AED91E00E945E0A6AE070E080E04A
:1013200090E00F90DF91CF910C94251281E00C9406
:101330007F0982E00C947F0983E00C947F0984E0AC
:101340000C947F0985E00C947F0986E00C947F095A
:1013500087E00C947F0988E00C947F0989E00C9465
:101360007F098AE00C947F099091F6018091F70142
:10137000981789F0E091F601F0E0E850FE4F808187
:101380002091F60130E02F5F3F4F2F7333272093DA
:10139000F60190E008958FEF9FEF08958091F70197
:1013A0002091F60190E0805C9F4F821B910960E4E0
:1013B00070E00E94271408958FB7F8941092F701F7
:1013C0001092F6018FBF08959091F6018091F70178
:1013D000981751F0E091F601F0E0E850FE4F80815F
:1013E000992787FD909508958FEF9FEF089520E04E
:1013F00001972FEF8F3F9207D9F70895EF92FF9251
:101400000F931F93CF93DF93EC018B899C890E94EC
:10141000F70908E010E0EE24E394F12C8D899E8911
:101420000E94F709EE85FF8580819D85892311F053
:10143000FE2803C08E2D8095F822EE0C0150110974
:101440000115110559F78F89988D0E94F709809130
:10145000F7012091F60190E001968F73992730E013
:101460008217930779F0E091F701F0E0E850FE4F22
:10147000F0828091F70190E001968F739927809315
:10148000F70103C08B8D81608B8FDF91CF911F910E
:101490000F91FF90EF900895DC015196ED91FC9132
:1014A000529750969C91611105C02081892F80959B
:1014B000822302C08081892B80830895DF92EF927E
:1014C000FF920F931F93CF93DF93EC01D62E898D5C
:1014D0009A8D892B39F481E090E09B838A8380E0A8
:1014E00090E036C0EFB6F894E989FA89908188894E
:1014F000809589238083898D9A8D05960E94F709AE
:1015000008E010E0FF24F3948F2D8D2129F061E095
:10151000CE010E944C0A07C0E989FA899081888926
:10152000809589238083898D9A8D0E94F709FF0C0D
:10153000015011090115110539F761E0CE010E9432
:101540004C0AEFBE898D9A8D0E94F70981E090E0E8
:10155000DF91CF911F910F91FF90EF90DF90089551
:101560001F93CF93DF93EC01162F61E0812F0E9430
:10157000981061E0812F0E94D110812F90E0FC0132
:10158000E65CFE4FE491E88BFC01E25BFE4FE491E8
:10159000F0E0EE0FFF1FE459FE4F859194919A8B76
:1015A000898BDF91CF911F9108951F93CF93DF9384
:1015B000EC01162F60E0812F0E9498101C87612F8C
:1015C00070E0FB01E65CFE4FE491ED87FB01E25B1E
:1015D000FE4FE491F0E0EE0FFF1FEE59FE4F8591B4
:1015E00094919F878E87DF91CF911F910895CF931C
:1015F000DF93EC011B821A8248EE53E060E070E05A
:101600004C835D836E837F8388E091E09983888338
:101610001C8A1B8A1E8A1D8A188E1F8A1A8E198E92
:101620008B8D8E7F8B8F64E08FE090E00E94BF0FE8
:10163000D0933B02C0933A026EE0CE010E94B00A02
:101640006FE0CE01DF91CF910C94D50A0F931F93D9
:10165000CF93DF93DC015A961C921E9259975896AD
:101660001C921E92579756961C921E925597CAE846
:10167000D0E080E090E0FE01059115912591349134
:10168000041715072607370759F54CE0489F9001C6
:10169000499F300D1124F901E257FF4F8591949134
:1016A00054969C938E935397F901E057FF4F859181
:1016B000949156969C938E935597F901EE56FF4F51
:1016C0008591949158969C938E9357972C563F4FA3
:1016D000F901859194915A969C938E9359970AC0DB
:1016E00001962C968D30910509F0C5CF54961C9229
:1016F0001E92539757968D919C915897892B09F478
:101700004DC01C968C911C978631F0F52091680095
:10171000883050F091E08E3008F490E081E001C014
:10172000880F9A95EAF701C084E0822B80936800C5
:101730001C962C911C97283038F02E3040F0263122
:1017400048F0E0E0F0E008C0EDE6F0E005C0EBE6D0
:10175000F0E002C0ECE6F0E03081283030F481E0C7
:1017600001C0880F2A95EAF70DC0822F90E02E3035
:1017700010F4089701C00E9791E001C0990F8A9567
:10178000EAF7892F832B808359968D919C915A97E4
:10179000DF91CF911F910F910C94F709DF91CF91B9
:1017A0001F910F910895FC014485463150F5483052
:1017B00028F04E3030F4EBE6F0E005C0EDE6F0E066
:1017C00002C0ECE6F0E05081483040F481E090E067
:1017D000042E01C0880F0A94EAF710C0242F30E0CD
:1017E0004E3018F42850310902C02E50310981E0E2
:1017F00090E0022E01C0880F0A94EAF780958523B5
:101800008083089528E031E0FC01318320830C942B
:10181000D30B61E087E00E94981061E088E00E94AD
:10182000981061E082E00E94981061E084E00C94DE
:10183000981061E082E00E94D11061E084E00E9493
:10184000D11060E070E085E00C944D1161E087E01C
:101850000E94D11061E088E00E94D11060E070E049
:1018600086E00C944D11CF93DF93EC010E94190C8C
:10187000CE01DF91CF910C94260CCF93C62F61E05F
:1018800082E00E94D11060E084E00E94D1106C2FB1
:1018900070E085E00E944D11E0913802F09139022C
:1018A000309711F081E08087CF910895CF93C62FB4
:1018B00060E082E00E94D11061E084E00E94D110DB
:1018C0006C2F70E085E00E944D11E0913802F0919C
:1018D0003902309711F08FEF8087CF910895161657
:1018E000170614F40C943D0C7195619571090C94D4
:1018F000560CCF93C62F61E087E00E94D11060E0C4
:1019000088E00E94D1106C2F70E086E00E944D119B
:10191000E0913802F0913902309711F081E081872F
:10192000CF910895CF93C62F60E087E00E94D11039
:1019300061E088E00E94D1106C2F70E086E00E9488
:101940004D11E0913802F0913902309711F08FEF8C
:101950008187CF9108951616170614F40C94790C0C
:101960007195619571090C94920C0F931F93FC0172
:1019700061157105B1F06130710529F501851127F7
:1019800007FD1095212F312F448155816681778184
:10199000400F511F621F731F4483558366837783F3
:1019A00012C00085112707FD1095212F312F40818E
:1019B000518162817381400F511F621F731F4083E9
:1019C0005183628373831F910F910895CF92DF92A9
:1019D000EF92FF92E82FF0E0DF01A45CBD4F8C9105
:1019E0008230F9F078F4813009F052C0EE0FFF1F19
:1019F000EB5AFD4F0190F081E02DFF90EF90DF90CA
:101A0000CF900994833021F1843009F041C0809156
:101A10003A0290913B02FF90EF90DF90CF900C94B0
:101A2000FE09C0904D02D0904E02E0904F02F0901F
:101A300050020E94021222E3C20ED11CE11CF11CD2
:101A4000C616D706E806F90618F560E070E016C07D
:101A5000C0905102D0905202E0905302F090540294
:101A60000E94021222E3C20ED11CE11CF11CC61618
:101A7000D706E806F90660F461E070E0809138026C
:101A800090913902FF90EF90DF90CF900C94B50CBD
:101A9000FF90EF90DF90CF900895CF93C82F809163
:101AA000020181FF02C0C1FF46C08091020181FD99
:101AB0002CC0C1FF2AC080914302823051F40E94A1
:101AC000021260934D0270934E0280934F029093E6
:101AD000500280914302833051F40E9402126093BD
:101AE000510270935202809353029093540280915A
:101AF0004302813051F40E94F611609349027093C1
:101B00004A0280934B0290934C028091020182FF23
:101B100016C0C2FD14C088E00E94E60C809102014C
:101B200083FF3EC0C3FD3CC089E00E94E60CC09329
:101B30000201CF91089587E00E94E60CE6CF8091E4
:101B4000020182FDEBCFC2FFE9CF809144028230D7
:101B500051F40E94021260934D0270934E028093E2
:101B60004F029093500280914402833051F40E94BE
:101B70000212609351027093520280935302909329
:101B8000540280914402813049F60E94F61160931C
:101B9000490270934A0280934B0290934C02BECF4D
:101BA0008091020182FDC3CFC2FFC1CF8091450267
:101BB000823051F40E94021260934D0270934E02E3
:101BC00080934F029093500280914502833051F4EC
:101BD0000E9402126093510270935202809353024A
:101BE0009093540280914502813009F0A0CF0E9469
:101BF000F6116093490270934A0280934B029093CE
:101C00004C0295CF1F920F920FB60F9211242F9373
:101C10003F934F935F936F937F938F939F93AF9374
:101C2000BF93EF93FF9393B18091480289230E9461
:101C30004D0DFF91EF91BF91AF919F918F917F914A
:101C40006F915F914F913F912F910F900FBE0F9029
:101C50001F901895CF93C82F8091010180FF02C07B
:101C6000C0FF53C08091010180FD1EC0C0FF1CC099
:101C700080913C02823051F40E94F61160934D0233
:101C800070934E0280934F029093500280913C02D9
:101C9000833051F40E94F611609351027093520206
:101CA00080935302909354028091010181FF31C0CF
:101CB000C1FD2FC081E00E94E60C8091010182FFEE
:101CC0004CC0C2FD4AC082E00E94E60C8091010136
:101CD00083FF67C0C3FD65C083E00E94E60C80916E
:101CE000010184FF82C0C4FD80C084E00E94E60C34
:101CF0008091010185FF9DC0C5FD9BC085E00E94CC
:101D0000E60CC0930101CF91089580E00E94E60C9B
:101D1000CBCF8091010181FDD0CFC1FFCECF80918B
:101D20003D02823051F40E94F61160934D0270938F
:101D30004E0280934F029093500280913D02833077
:101D400009F0BBCF0E94F6116093510270935202CA
:101D50008093530290935402B0CF8091010182FD91
:101D6000B5CFC2FFB3CF80913E02823051F40E94C2
:101D7000F61160934D0270934E0280934F02909340
:101D8000500280913E02833009F0A0CF0E94F611EC
:101D900060935102709352028093530290935402C5
:101DA00095CF8091010183FD9ACFC3FF98CF809199
:101DB0003F02823051F40E94F61160934D027093FD
:101DC0004E0280934F029093500280913F028330E5
:101DD00009F085CF0E94F611609351027093520270
:101DE00080935302909354027ACF8091010184FD35
:101DF0007FCFC4FF7DCF80914002823051F40E949A
:101E0000F61160934D0270934E0280934F029093AF
:101E1000500280914002833009F06ACF0E94F6118F
:101E20006093510270935202809353029093540234
:101E30005FCF8091010185FD64CFC5FF62CF8091A6
:101E40004102823051F40E94F61160934D0270936A
:101E50004E0280934F029093500280914102833052
:101E600009F04FCF0E94F611609351027093520215
:101E7000809353029093540244CF1F920F920FB657
:101E80000F9211242F933F934F935F936F937F9300
:101E90008F939F93AF93BF93EF93FF9396B18091EE
:101EA000470289230E942A0EFF91EF91BF91AF91C3
:101EB0009F918F917F916F915F914F913F912F9162
:101EC0000F900FBE0F901F901895CF93C82F809141
:101ED000000183FF02C0C3FF26C08091000183FD83
:101EE0001EC0C3FF1CC080914202823051F40E9488
:101EF000F61160934D0270934E0280934F029093BF
:101F0000500280914202833051F40E94F611609396
:101F10005102709352028093530290935402C093E3
:101F20000001CF91089586E00E94E60CF8CF1F9241
:101F30000F920FB60F9211242F933F934F935F93FD
:101F40006F937F938F939F93AF93BF93EF93FF9381
:101F500099B18091460289230E94650FFF91EF910C
:101F6000BF91AF919F918F917F916F915F914F91B1
:101F70003F912F910F900FBE0F901F9018950397D0
:101F80008131910508F0AAC08C5C9F4FFC010C9434
:101F90003B1480916C00816080936C00809168009C
:101FA00082608093680060933C0280914702816068
:101FB0000FC080916C00826080936C0080916800FB
:101FC00082608093680060933D0280914702826046
:101FD00080934702089580916C00846080936C0028
:101FE0008091680082608093680060933E028091D7
:101FF00047028460EDCF80916C00886080936C0014
:102000008091680082608093680060933F028091B5
:1020100047028860DDCF80916C00806180936C0006
:102020008091680082608093680060934002809194
:1020300047028061CDCF80916C00806280936C00FC
:102040008091680082608093680060934102809173
:1020500047028062BDCF80916D00886080936D00E3
:102060008091680084608093680060934202809150
:102070004602886080934602089580916B008260DA
:1020800080936B008091680081608093680060930A
:1020900043028091480282601FC080916B0084607F
:1020A00080936B00809168008160809368006093EA
:1020B00044028091480284600FC080916B00886068
:1020C00080936B00809168008160809368006093CA
:1020D00045028091480288608093480208958330C9
:1020E00081F028F4813099F08230A1F00895863093
:1020F000A9F08730B9F08430D1F4809180008F7DD1
:1021000003C0809180008F7780938000089584B50C
:102110008F7702C084B58F7D84BD08958091B00013
:102120008F7703C08091B0008F7D8093B0000895B9
:10213000CF93DF9390E0FC01E65CFE4F2491FC011D
:10214000E25BFE4F8491882349F190E0880F991F4C
:10215000FC01EA58FE4FA591B49184599E4FFC01B1
:10216000C591D4919FB7611108C0F8948C912095C6
:1021700082238C93888182230AC0623051F4F894C0
:102180008C91322F309583238C938881822B888386
:1021900004C0F8948C91822B8C939FBFDF91CF91D8
:1021A00008950F931F93CF93DF931F92CDB7DEB7A0
:1021B000282F30E0F901EA5DFE4F8491F901E65CD9
:1021C000FE4F1491F901E25BFE4F04910023C9F028
:1021D000882321F069830E946F106981E02FF0E06D
:1021E000EE0FFF1FE459FE4FA591B4919FB7F894ED
:1021F0008C91611103C01095812301C0812B8C93B8
:102200009FBF0F90DF91CF911F910F910895CF93B2
:10221000DF93282F30E0F901EA5DFE4F8491F90148
:10222000E65CFE4FD491F901E25BFE4FC491CC23F2
:1022300091F081110E946F10EC2FF0E0EE0FFF1F64
:10224000EE59FE4FA591B4912C912D2381E090E0A1
:1022500021F480E002C080E090E0DF91CF9108950A
:102260008E3008F08E5087702091030190E4299FF2
:1022700090011124822B80937C0080917A008064ED
:1022800080937A0080917A0086FDFCCF809178005F
:102290002091790090E0922B08951F93CF93DF93C4
:1022A000182FEB0161E00E949810209711F460E074
:1022B00004C0CF3FD10539F461E0812FDF91CF9188
:1022C0001F910C94D110E12FF0E0EA5DFE4FE491F4
:1022D000E330F9F048F4E130B9F0E230A1F584B52B
:1022E000806284BDC8BD34C0E630E9F0E73019F142
:1022F000E43049F580918000806280938000D09323
:102300008B00C0938A0024C084B5806884BDC7BD9B
:102310001FC080918000806880938000D0938900E6
:10232000C093880015C08091B00080688093B00091
:10233000C093B3000DC08091B00080628093B00064
:10234000C093B40005C0C038D1050CF0B5CFAFCFF5
:10235000DF91CF911F9108951F920F920FB60F92A8
:1023600011242F933F938F939F93AF93BF938091AB
:102370006A0290916B02A0916C02B0916D02309153
:10238000690223E0230F2D3720F40196A11DB11D12
:1023900005C026E8230F0296A11DB11D20936902F6
:1023A00080936A0290936B02A0936C02B0936D02CB
:1023B00080916E0290916F02A0917002B0917102B3
:1023C0000196A11DB11D80936E0290936F02A093A0
:1023D0007002B0937102BF91AF919F918F913F9125
:1023E0002F910F900FBE0F901F9018952FB7F89454
:1023F00060916A0270916B0280916C0290916D0203
:102400002FBF08953FB7F89480916E0290916F02AC
:10241000A0917002B091710226B5A89B05C02F3F14
:1024200019F00196A11DB11D3FBF6627782F892F96
:102430009A2F620F711D811D911D42E0660F771F5B
:10244000881F991F4A95D1F70895CF92DF92EF9296
:10245000FF92CF93DF936B017C010E940212EB018C
:10246000C114D104E104F10479F00E9402126C1B42
:102470007D0B683E7340A0F381E0C81AD108E108E3
:10248000F108C851DC4FECCFDF91CF91FF90EF9076
:10249000DF90CF900895789484B5826084BD84B530
:1024A000816084BD85B5826085BD85B5816085BD4F
:1024B000EEE6F0E0808181608083E1E8F0E0108268
:1024C000808182608083808181608083E0E8F0E0A9
:1024D000808181608083E1EBF0E080818460808393
:1024E000E0EBF0E0808181608083EAE7F0E08081CA
:1024F000846080838081826080838081816080832A
:102500008081806880831092C1000895FC01248539
:102510003585F901E05CFF4F80819181F901EE5B27
:10252000FF4F20813181821B930B8F739927089570
:10253000FC0184859585FC01E05CFF4F4081518161
:10254000FC01EE5BFF4F208131814217530741F0C0
:102550000190F081E02DE80FF91F808190E008954F
:102560008FEF9FEF0895FC0184859585FC01E05C69
:10257000FF4F40815181FC01EE5BFF4F2081318193
:102580004217530779F0A081B181A80FB91F8C9130
:10259000208131812F5F3F4F2F7333273183208379
:1025A00090E008958FEF9FEF0895FC0181A18823AB
:1025B00029F0A489B5898C9186FFFBCF11A20895DB
:1025C000CF93DF93FC0126853785D901A05CBF4FEF
:1025D0008D919C91119701968F739927E901CE5B9C
:1025E000DF4F4881598184179507D9F30D90BC912D
:1025F000A02DA20FB31F6C93A685B785A05CBF4F1B
:1026000011969C938E93A689B7892C9181E090E0D6
:10261000078C02C0880F991F0A94E2F7282B2C938D
:1026200081E081A30488F589E02D80818064808326
:1026300081E090E0DF91CF91089508951F920F926D
:102640000FB60F9211242F933F934F938F939F9325
:10265000EF93FF938091C00082FD1CC04091C600A3
:10266000809118039091190301968F7399272091F7
:102670001A0330911B038217930771F0E09118033E
:10268000F0911903E852FD4F408390931903809312
:10269000180302C08091C600FF91EF919F918F9126
:1026A0004F913F912F910F900FBE0F901F90189553
:1026B00082E792E00E948612892B11F00C941D1380
:1026C00008951F920F920FB60F9211242F933F93EC
:1026D0008F939F93EF93FF932091D4023091D50273
:1026E0008091D6029091D7022817390731F4809152
:1026F000C1008F7D8093C10014C0E091D602F0919B
:10270000D702EC56FD4F20818091D6029091D702DE
:1027100001968F7399279093D7028093D6022093C6
:10272000C600FF91EF919F918F913F912F910F9054
:102730000FBE0F901F9018951092750210927402A0
:1027400088EE93E0A0E0B0E0809376029093770269
:10275000A0937802B093790288E191E0909373029C
:102760008093720288ED92E090937F0280937E02C4
:1027700084E992E0909381028093800285EC90E05E
:10278000909383028093820284EC90E09093850280
:102790008093840280EC90E090938702809386027D
:1027A00081EC90E0909389028093880282EC90E023
:1027B00090938B0280938A0286EC90E090938D0236
:1027C00080938C0284E080938E0283E080938F025A
:1027D00087E08093900285E08093910281E080936E
:1027E000920208950E944B120E94F100C8E5D3E1C5
:1027F0000E945D032097E1F30E945813F9CFCF9216
:10280000DF92EF92FF920F931F93CF93DF936C01B0
:102810007A01EB01E60EF71E00E010E0CE15DF05B1
:1028200061F06991D601ED91FC910190F081E02D6C
:10283000C6010995080F191FF1CFC801DF91CF918B
:102840001F910F91FF90EF90DF90CF90089597FB2D
:10285000072E16F4009407D077FD09D00E9441148A
:1028600007FC05D03EF4909581959F4F0895709593
:1028700061957F4F0895EE0FFF1F0590F491E02DB5
:102880000994AA1BBB1B51E107C0AA1FBB1FA617B7
:10289000B70710F0A61BB70B881F991F5A95A9F709
:1028A00080959095BC01CD01089511E0C8E8D1E074
:1028B00004C0FE010E943D142296CE38D107C9F70C
:0428C000F894FFCFBA
:1028C400083F0E01000000005E0AFF13CE09B409A0
:1028D400E409DC0900000000E012FF138612B312C1
:0428E4009812D5125F
:00000001FF
