:100000000C94C7000C94EF000C94EF000C94F809CA
:100010000C94330B0C948D0B0C94EF000C94EF00AC
:100020000C94EF000C94EF000C94EF000C94EF0094
:100030000C94EF000C94EF000C94EF000C94EF0084
:100040000C94A20D0C94EF000C94140F0C94570F09
:100050000C94EF000C94EF000C94EF000C94EF0064
:100060000C94EF000C94EF00210C640C640C640CF5
:10007000640C640C330C430C530C640C640CBF0B09
:10008000CF0BE10BF10B010C110C00C201000100C0
:10009000110011000C0000E100000A0025002500FD
:1000A0002100009600001900390039003600127A4C
:1000B00000001F004600460044008070000022003F
:1000C0004D004D004A00004B0000360075007500E1
:1000D0007200403800004A009C009C009900802576
:1000E00000007200EC00EC00E900C0120000E90022
:1000F000DA01DA01D70160090000D701B603B603BF
:10010000B303B0040000B3036E076E076B07580219
:1001100000006E07DC0EDC0ED80E2C010000DC0E99
:10012000C11DC11DBE1D000000070002010000032B
:100130000406000000000000000001020408102076
:100140004080010204081020010204081020040469
:10015000040404040404020202020202030303036F
:100160000303000000002300260029000000000017
:10017000250028002B0000000000240027002A0092
:10018000B80262047005920FD3026604740511244C
:100190001FBECFEFD8E0DEBFCDBF11E0A0E0B1E0E1
:1001A000EEEDF4E202C005900D92A432B107D9F74A
:1001B00013E0A4E2B1E001C01D92A731B107E1F75D
:1001C00011E0C8E8D1E004C02297FE010E9433107C
:1001D000C038D107C9F70E94E80F0C9462120C9442
:1001E0000000FC0180819181FB0120813181821B13
:1001F000930B089580E991E00E94F80240E855E2EF
:1002000060E070E08CE991E00E941C0781E080933F
:100210009B0164EF71E080E090E00C941B0E4F9224
:100220005F926F927F928F929F92AF92BF92CF9286
:10023000DF92EF92FF920F931F93CF93DF93CDB78F
:10024000DEB767970FB6F894DEBF0FBECDBF7E0155
:1002500027E0E20EF11C4424439435E0532E4091F4
:100260008C0150918D0160918E0170918F0184E21B
:1002700091E00E945305811109C100918C011091F8
:100280008D01CE0101966C014701FE013D965F0193
:1002900083E10E94260DF601819391936F0184E121
:1002A0000E94260DF401819391934F0182E10E94F7
:1002B000260DF501819391935F0165E070E080E088
:1002C00090E00E941B0ECE14DF0411F721EF30E006
:1002D00042E050E063E070E0CE0101960E948B1096
:1002E00021EF30E042E050E063E070E0C7010E949F
:1002F0008B1021EF30E042E050E063E070E0CE018F
:100300000D960E948B102B813C8189859A850FB6B2
:10031000F894DEBF0FBECDBFCC24C3942139314049
:100320000CF0C12C880F991FDD24D39482399140A1
:100330000CF0D12CCE0101960E946A04C11004C0B9
:10034000D11002C04D8246C001301105C1F01CF42D
:10035000012B41F03EC002301105F1F003301105D0
:1003600041F137C0CC2031F060E070E0CE01019661
:100370000E946B04DD2069F162E070E026C0CC20B1
:1003800031F061E070E0CE0101960E946B04DD2047
:1003900001F163E070E019C0CC2031F062E070E060
:1003A000CE0101960E946B04DD2099F061E070E0BF
:1003B0000CC0CC2031F063E070E0CE0101960E94C9
:1003C0006B04DD2031F060E070E0CE0101960E9408
:1003D0006B041D82FE013196DE015396852D01903E
:1003E0000D928A95E1F7FE017396DE011196852D37
:1003F00001900D928A95E1F7DF88DD2019F00E94C7
:10040000950502C00E949E05DD8260918C0170916D
:100410008D0180918E0190918F0109811A812B812C
:100420003C814D2D0E94D5048C018430910529F426
:100430000E94A1050E94920504C00E949B050E9493
:10044000980540918C0150918D0160918E017091C1
:100450008F01980184E291E00E94430540918C0154
:1004600050918D0160918E0170918F01980180E90A
:1004700091E00E94210410938D0100938C0168EC9F
:1004800070E080E090E00E941B0EE9CE67960FB608
:10049000F894DEBF0FBECDBFDF91CF911F910F91BA
:1004A000FF90EF90DF90CF90BF90AF909F908F9094
:1004B0007F906F905F904F90089540918C01509184
:1004C0008D0160918E0170918F0184E291E00E9414
:1004D0005305811122C040918C0150918D01609192
:1004E0008E0170918F0184E291E00E944B05409152
:1004F0008C0150918D0160918E0170918F019C0152
:1005000080E991E00E94210460938C0170938D0139
:1005100080938E0190938F01D0CF08958BE00E943D
:10052000FD0C892BD9F3E0918A01F0918B01848134
:10053000958190938F0180938E0110928D0110927E
:100540008C010E940F018BE00E94FD0C892BD9F3D6
:10055000E0918A01F0918B018481958190938F01C4
:1005600080938E0110928D0110928C010C945D028B
:100570008CE991E00E94ED0680E991E00E94DB02A7
:1005800010928F0110928E0110928D0110928C01A9
:100590000E94860490938B0180938A01BC0184E2BF
:1005A00091E00C94260580E991E00E94F7028CE925
:1005B00091E00C94F807CF93DF93EC010E94FF07C2
:1005C00088E790E09A8389838CE890E09C838B8312
:1005D00080E590E09E838D838CE99FEF98878F83E1
:1005E0008EE190E09A878987DF91CF9108950895F1
:1005F0000E9429080C948F05CF93DF93EC016F8143
:1006000078850E9465086D817E81CE010E94A108D7
:100610000E94A70560ED72E080E090E00E941B0E52
:10062000CE010E94F8020E94A4056B817C81625376
:100630007109CE010E94A10869817A816253710912
:10064000CE010E94650864E670E080E090E00E94C0
:100650001B0ECE01DF91CF910C94F802CF93DF9364
:10066000EC016D817E810E9465086F817885CE01E5
:100670000E94A1080E94A70560ED72E080E090E072
:100680000E941B0ECE010E94F8020E94A4056B81FD
:100690007C8162537109CE010E94A10869817A812F
:1006A00062537109CE010E94650864E670E080E043
:1006B00090E00E941B0ECE01DF91CF910C94F802C6
:1006C000CF93DF93EC010E942E03CE01DF91CF91F7
:1006D0000C942E0361307105A9F01CF4672B41F0D6
:1006E000089562307105B9F063307105E9F008953D
:1006F0004230510521F14330510519F14130510586
:1007000011F51BC042305105E1F043305105B9F0FD
:10071000452BC9F412C04130510589F043305105D1
:1007200061F0452B81F40DC04130510551F042304C
:10073000510519F0452B39F402C00C9460030C9458
:100740002E030C94FC02089585E10E94260D81324F
:10075000934014F480E0089580E10E94260D8132D8
:100760009340C4F381E10E94260D21E08132934041
:100770000CF420E0822F0895EF92FF920F931F93C5
:10078000CF93DF93EC0183E10E94260D81399140E4
:100790009CF00E9495050E949805CE010E942E03B0
:1007A000CE010E942E03CE01DF91CF911F910F91B8
:1007B000FF90EF900C942E030E94A4056B817C8126
:1007C00062537109CE010E94A10869817A81625346
:1007D0007109CE010E94650868EC70E080E090E04D
:1007E0000E941B0ECE010E94A403811121C00B8127
:1007F0001C8185E10E94260D081B190BE980FA80F7
:1008000080E10E94260DB701681B790B10161106B6
:1008100014F009851A851616170614F069857A856D
:10082000CE010E946508B801CE010E94A108DACF6E
:10083000CE01DF91CF911F910F91FF90EF900C941B
:10084000F802AF92BF92CF92DF92EF92FF920F9396
:100850001F93CF93DF935C016A017B01E90187015C
:100860002417350721F0A901B6010E946A03C1309F
:10087000D10589F034F42097A9F4870107501109B4
:1008800011C0C230D10559F0C330D10559F48701E8
:100890000150110907C08701095F1F4F03C087017D
:1008A0000F5F1F4FC5010E94BC03BE01C801DF914D
:1008B000CF911F910F91FF90EF90DF90CF90BF905D
:1008C000AF90089588EB91E00C94ED0688EB91E0F1
:1008D0000C94F8070895FC016130710571F01CF467
:1008E000672B41F008956230710551F06330710556
:1008F00051F0089581E08083089581E08183089517
:1009000081E08283089581E083830895CF93DF930C
:10091000CDB7DEB72E970FB6F894DEBF0FBECDBFB2
:1009200060E083E00E948E0C60E089E00E948E0C03
:1009300083E00E94FD0C8130910599F49C838B83A8
:1009400085E090E09A8789879C878B8784EB90E08D
:100950009E878D8780E390E09E838D8389E090E081
:1009600014C082E090E09C838B8386E090E09A87BD
:1009700089879C878B8780EF90E09E878D8780E3B7
:1009800090E09E838D8381E090E098878F8389E05B
:100990000E94FD0CCE0101962E960FB6F894DEBF94
:1009A0000FBECDBFDF91CF9108950F931F93CF93CB
:1009B000DF9300D000D01F92CDB7DEB7411132C017
:1009C00061307105E9F01CF4672B41F02AC06230F8
:1009D000710569F063307105E1F023C021112AC06F
:1009E000011122C0311122C01123D9F021C01111EF
:1009F0001FC021111FC0011117C0332391F016C071
:100A0000311114C0111114C0211114C0002349F078
:100A10000BC0011109C0311109C0111109C0211108
:100A200009C00AC084E007C080E005C083E003C0BD
:100A300081E001C082E090E00F900F900F900F9046
:100A40000F90DF91CF911F910F910895FC01EC5908
:100A5000FF4F71836083FC0122E330E04FEF5FEFD3
:100A6000419351932150310921153105C9F7DB011B
:100A70001496ED91FC911597EE0FFF1FE80FF91FEB
:100A8000118210820895FB01EE0FFF1FE80FF91F7E
:100A9000318320830895FB01EE0FFF1FE80FF91F3C
:100AA0008081918108958C599F4FDC01ED91FC91DB
:100AB00081E0268137812617370709F080E0089505
:100AC0008091D40181110BC040E855E260E070E0F4
:100AD00085ED91E00E941C0781E08093D401089588
:100AE00085ED91E00C94ED0685ED91E00C94F8070E
:100AF000CF93DF931F92CDB7DEB789830E94600545
:100B00008981682F85ED91E00E9454066AE070E0CB
:100B100080E090E00F90DF91CF910C941B0E81E06C
:100B20000C94780582E00C94780583E00C947805A9
:100B300084E00C94780585E00C94780586E00C94AC
:100B4000780587E00C94780588E00C94780589E0B6
:100B50000C9478059091F1018091F201981789F039
:100B6000E091F101F0E0ED50FE4F80812091F10124
:100B700030E02F5F3F4F2F7333272093F10190E038
:100B800008958FEF9FEF08958091F2012091F10178
:100B900090E0805C9F4F821B910960E470E00E94AE
:100BA0001D1008958FB7F8941092F2011092F10180
:100BB0008FBF08959091F1018091F201981751F043
:100BC000E091F101F0E0ED50FE4F8081992787FD23
:100BD000909508958FEF9FEF089520E001972FEFF4
:100BE0008F3F9207D9F70895EF92FF920F931F93CB
:100BF000CF93DF93EC018B899C890E94ED0508E07F
:100C000010E0EE24E394F12C8D899E890E94ED057D
:100C1000EE85FF8580819D85892311F0FE2803C024
:100C20008E2D8095F822EE0C015011090115110549
:100C300059F78F89988D0E94ED058091F2012091DE
:100C4000F10190E001968F73992730E082179307A6
:100C500079F0E091F201F0E0ED50FE4FF0828091EA
:100C6000F20190E001968F7399278093F20103C0FF
:100C70008B8D81608B8FDF91CF911F910F91FF90B2
:100C8000EF900895DC015196ED91FC9152975096AA
:100C90009C91611105C02081892F8095822302C01B
:100CA0008081892B80830895DF92EF92FF920F93CA
:100CB0001F93CF93DF93EC01D62E898D9A8D892BCC
:100CC00039F481E090E09B838A8380E090E036C035
:100CD000EFB6F894E989FA8990818889809589230B
:100CE0008083898D9A8D05960E94ED0508E010E0BD
:100CF000FF24F3948F2D8D2129F061E0CE010E9415
:100D0000420607C0E989FA899081888980958923FC
:100D10008083898D9A8D0E94ED05FF0C0150110989
:100D20000115110539F761E0CE010E944206EFBEC0
:100D3000898D9A8D0E94ED0581E090E0DF91CF9141
:100D40001F910F91FF90EF90DF9008951F93CF9325
:100D5000DF93EC01162F61E0812F0E948E0C61E081
:100D6000812F0E94C70C812F90E0FC01E65CFE4FB2
:100D7000E491E88BFC01E25BFE4FE491F0E0EE0FC2
:100D8000FF1FE459FE4F859194919A8B898BDF91D7
:100D9000CF911F9108951F93CF93DF93EC01162FEE
:100DA00060E0812F0E948E0C1C87612F70E0FB0198
:100DB000E65CFE4FE491ED87FB01E25BFE4FE491C0
:100DC000F0E0EE0FFF1FEE59FE4F859194919F8743
:100DD0008E87DF91CF911F910895CF93DF93EC0120
:100DE0001B821A8248EE53E060E070E04C835D8322
:100DF0006E837F8388E091E0998388831C8A1B8AB5
:100E00001E8A1D8A188E1F8A1A8E198E8B8D8E7FD0
:100E10008B8F64E08FE090E00E94B50BD093360298
:100E2000C09335026EE0CE010E94A6066FE0CE01AF
:100E3000DF91CF910C94CB060F931F93CF93DF9349
:100E4000DC015A961C921E92599758961C921E923B
:100E5000579756961C921E925597CAE8D0E080E0AC
:100E600090E0FE0105911591259134910417150725
:100E70002607370759F54CE0489F9001499F300DF0
:100E80001124F901E257FF4F8591949154969C9358
:100E90008E935397F901E057FF4F859194915696A1
:100EA0009C938E935597F901EE56FF4F859194913F
:100EB00058969C938E9357972C563F4FF9018591E6
:100EC00094915A969C938E9359970AC001962C96AA
:100ED0008D30910509F0C5CF54961C921E92539700
:100EE00057968D919C915897892B09F44DC01C966B
:100EF0008C911C978631F0F520916800883050F075
:100F000091E08E3008F490E081E001C0880F9A955E
:100F1000EAF701C084E0822B809368001C962C9134
:100F20001C97283038F02E3040F0263148F0E0E0B1
:100F3000F0E008C0EDE6F0E005C0EBE6F0E002C04E
:100F4000ECE6F0E03081283030F481E001C0880F19
:100F50002A95EAF70DC0822F90E02E3010F4089702
:100F600001C00E9791E001C0990F8A95EAF7892F89
:100F7000832B808359968D919C915A97DF91CF91C5
:100F80001F910F910C94ED05DF91CF911F910F915F
:100F90000895FC014485463150F5483028F04E3024
:100FA00030F4EBE6F0E005C0EDE6F0E002C0ECE680
:100FB000F0E05081483040F481E090E0042E01C020
:100FC000880F0A94EAF710C0242F30E04E3018F44E
:100FD0002850310902C02E50310981E090E0022EE4
:100FE00001C0880F0A94EAF78095852380830895CD
:100FF00028E031E0FC01318320830C94C90761E0D3
:1010000087E00E948E0C61E088E00E948E0C61E017
:1010100082E00E948E0C61E084E00C948E0C61E012
:1010200082E00E94C70C61E084E00E94C70C60E08F
:1010300070E085E00C94430D61E087E00E94C70CEE
:1010400061E088E00E94C70C60E070E086E00C94EC
:10105000430DCF93DF93EC010E940F08CE01DF9187
:10106000CF910C941C08CF93C62F61E082E00E94C0
:10107000C70C60E084E00E94C70C6C2F70E085E034
:101080000E94430DE0913302F0913402309711F049
:1010900081E08087CF910895CF93C62F60E082E0F2
:1010A0000E94C70C61E084E00E94C70C6C2F70E0C6
:1010B00085E00E94430DE0913302F09134023097B5
:1010C00011F08FEF8087CF9108951616170614F44C
:1010D0000C9433087195619571090C944C08CF9369
:1010E000C62F61E087E00E94C70C60E088E00E94A4
:1010F000C70C6C2F70E086E00E94430DE091330234
:10110000F0913402309711F081E08187CF910895FA
:10111000CF93C62F60E087E00E94C70C61E088E0B3
:101120000E94C70C6C2F70E086E00E94430DE09196
:101130003302F0913402309711F08FEF8187CF9115
:1011400008951616170614F40C946F08719561959E
:1011500071090C9488080F931F93FC0161157105A8
:10116000B1F06130710529F50185112707FD109552
:10117000212F312F4481558166817781400F511F86
:10118000621F731F448355836683778312C0008573
:10119000112707FD1095212F312F40815181628148
:1011A0007381400F511F621F731F408351836283FD
:1011B00073831F910F910895CF92DF92EF92FF9268
:1011C000E82FF0E0DF01A95CBD4F8C918230F9F08F
:1011D00078F4813009F052C0EE0FFF1FE05BFD4F45
:1011E0000190F081E02DFF90EF90DF90CF90099477
:1011F000833021F1843009F041C080913502909113
:101200003602FF90EF90DF90CF900C94F405C090E1
:101210004802D0904902E0904A02F0904B020E94AE
:10122000F80D22E3C20ED11CE11CF11CC616D70634
:10123000E806F90618F560E070E016C0C0904C02B0
:10124000D0904D02E0904E02F0904F020E94F80DB7
:1012500022E3C20ED11CE11CF11CC616D706E8061B
:10126000F90660F461E070E08091330290913402FD
:10127000FF90EF90DF90CF900C94AB08FF90EF9031
:10128000DF90CF900895CF93C82F8091020181FF06
:1012900002C0C1FF46C08091020181FD2CC0C1FF88
:1012A0002AC080913E02823051F40E94F80D609372
:1012B00048027093490280934A0290934B028091B6
:1012C0003E02833051F40E94F80D60934C027093FB
:1012D0004D0280934E0290934F0280913E028130E6
:1012E00051F40E94EC0D6093440270934502809388
:1012F0004602909347028091020182FF16C0C2FD10
:1013000014C088E00E94DC088091020183FF3EC087
:10131000C3FD3CC089E00E94DC08C0930201CF916C
:10132000089587E00E94DC08E6CF8091020182FDEB
:10133000EBCFC2FFE9CF80913F02823051F40E948F
:10134000F80D609348027093490280934A0290938B
:101350004B0280913F02833051F40E94F80D60935C
:101360004C0270934D0280934E0290934F028091F5
:101370003F02813049F60E94EC0D60934402709365
:1013800045028093460290934702BECF80910201AE
:1013900082FDC3CFC2FFC1CF80914002823051F4A1
:1013A0000E94F80D609348027093490280934A02AC
:1013B00090934B0280914002833051F40E94F80DCB
:1013C00060934C0270934D0280934E0290934F02B3
:1013D00080914002813009F0A0CF0E94EC0D609313
:1013E000440270934502809346029093470295CF42
:1013F0001F920F920FB60F9211242F933F934F938A
:101400005F936F937F938F939F93AF93BF93EF936C
:10141000FF9393B18091430289230E944309FF9176
:10142000EF91BF91AF919F918F917F916F915F915C
:101430004F913F912F910F900FBE0F901F901895D5
:10144000CF93C82F8091010180FF02C0C0FF53C01D
:101450008091010180FD1EC0C0FF1CC08091370239
:10146000823051F40E94EC0D60934802709349025F
:1014700080934A0290934B0280913702833051F45B
:101480000E94EC0D60934C0270934D0280934E02CB
:1014900090934F028091010181FF31C0C1FD2FC0A7
:1014A00081E00E94DC088091010182FF4CC0C2FDF6
:1014B0004AC082E00E94DC088091010183FF67C07E
:1014C000C3FD65C083E00E94DC088091010184FFB8
:1014D00082C0C4FD80C084E00E94DC0880910101CC
:1014E00085FF9DC0C5FD9BC085E00E94DC08C093C0
:1014F0000101CF91089580E00E94DC08CBCF80915C
:10150000010181FDD0CFC1FFCECF80913802823062
:1015100051F40E94EC0D609348027093490280934D
:101520004A0290934B0280913802833009F0BBCF7E
:101530000E94EC0D60934C0270934D0280934E021A
:1015400090934F02B0CF8091010182FDB5CFC2FFD1
:10155000B3CF80913902823051F40E94EC0D609338
:1015600048027093490280934A0290934B02809103
:101570003902833009F0A0CF0E94EC0D60934C0239
:1015800070934D0280934E0290934F0295CF8091BD
:10159000010183FD9ACFC3FF98CF80913A02823038
:1015A00051F40E94EC0D60934802709349028093BD
:1015B0004A0290934B0280913A02833009F085CF22
:1015C0000E94EC0D60934C0270934D0280934E028A
:1015D00090934F027ACF8091010184FD7FCFC4FFA9
:1015E0007DCF80913B02823051F40E94EC0D6093DC
:1015F00048027093490280934A0290934B02809173
:101600003B02833009F06ACF0E94EC0D60934C02DC
:1016100070934D0280934E0290934F025FCF809162
:10162000010185FD64CFC5FF62CF80913C0282300D
:1016300051F40E94EC0D609348027093490280932C
:101640004A0290934B0280913C02833009F04FCFC5
:101650000E94EC0D60934C0270934D0280934E02F9
:1016600090934F0244CF1F920F920FB60F92112406
:101670002F933F934F935F936F937F938F939F939A
:10168000AF93BF93EF93FF9396B18091420289236A
:101690000E94200AFF91EF91BF91AF919F918F918E
:1016A0007F916F915F914F913F912F910F900FBE5E
:1016B0000F901F901895CF93C82F8091000183FF42
:1016C00002C0C3FF26C08091000183FD1EC0C3FF7E
:1016D0001CC080913D02823051F40E94EC0D609359
:1016E00048027093490280934A0290934B02809182
:1016F0003D02833051F40E94EC0D60934C027093D4
:101700004D0280934E0290934F02C0930001CF91FF
:10171000089586E00E94DC08F8CF1F920F920FB662
:101720000F9211242F933F934F935F936F937F9367
:101730008F939F93AF93BF93EF93FF9399B1809152
:10174000410289230E945B0BFF91EF91BF91AF9102
:101750009F918F917F916F915F914F913F912F91C9
:101760000F900FBE0F901F90189503978131910530
:1017700008F0AAC08C5C9F4FFC010C943110809142
:101780006C00816080936C0080916800826080931F
:101790006800609337028091420281600FC080919F
:1017A0006C00826080936C008091680082608093FE
:1017B0006800609338028091420282608093420206
:1017C000089580916C00846080936C008091680023
:1017D0008260809368006093390280914202846045
:1017E000EDCF80916C00886080936C0080916800E0
:1017F00082608093680060933A0280914202886020
:10180000DDCF80916C00806180936C0080916800D6
:1018100082608093680060933B0280914202806105
:10182000CDCF80916C00806280936C0080916800C5
:1018300082608093680060933C02809142028062E3
:10184000BDCF80916D00886080936D0080916800AD
:1018500084608093680060933D02809141028860BB
:1018600080934102089580916B00826080936B00A9
:101870008091680081608093680060933E0280914F
:10188000430282601FC080916B00846080936B0074
:101890008091680081608093680060933F0280912E
:1018A000430284600FC080916B00886080936B005E
:1018B000809168008160809368006093400280910D
:1018C00043028860809343020895833081F028F4B6
:1018D000813099F08230A1F008958630A9F08730E8
:1018E000B9F08430D1F4809180008F7D03C0809165
:1018F00080008F7780938000089584B58F7702C031
:1019000084B58F7D84BD08958091B0008F7703C02A
:101910008091B0008F7D8093B0000895CF93DF93C6
:1019200090E0FC01E65CFE4F2491FC01E25BFE4F7F
:101930008491882349F190E0880F991FFC01EA58AF
:10194000FE4FA591B49184599E4FFC01C591D4914D
:101950009FB7611108C0F8948C91209582238C93D5
:10196000888182230AC0623051F4F8948C91322F1E
:10197000309583238C938881822B888304C0F894CC
:101980008C91822B8C939FBFDF91CF9108950F9301
:101990001F93CF93DF931F92CDB7DEB7282F30E090
:1019A000F901EA5DFE4F8491F901E65CFE4F149166
:1019B000F901E25BFE4F04910023C9F0882321F076
:1019C00069830E94650C6981E02FF0E0EE0FFF1F34
:1019D000E459FE4FA591B4919FB7F8948C91611191
:1019E00003C01095812301C0812B8C939FBF0F9062
:1019F000DF91CF911F910F910895CF93DF93282FFF
:101A000030E0F901EA5DFE4F8491F901E65CFE4F9A
:101A1000D491F901E25BFE4FC491CC2391F0811186
:101A20000E94650CEC2FF0E0EE0FFF1FEE59FE4F09
:101A3000A591B4912C912D2381E090E021F480E0D8
:101A400002C080E090E0DF91CF9108958E3008F0E1
:101A50008E5087702091030190E4299F90011124FA
:101A6000822B80937C0080917A00806480937A003E
:101A700080917A0086FDFCCF8091780020917900DA
:101A800090E0922B08951F93CF93DF93182FEB01D3
:101A900061E00E948E0C209711F460E004C0CF3FFB
:101AA000D10539F461E0812FDF91CF911F910C9422
:101AB000C70CE12FF0E0EA5DFE4FE491E330F9F06E
:101AC00048F4E130B9F0E230A1F584B5806284BD1C
:101AD000C8BD34C0E630E9F0E73019F1E43049F52B
:101AE00080918000806280938000D0938B00C093AF
:101AF0008A0024C084B5806884BDC7BD1FC08091A2
:101B00008000806880938000D0938900C093880013
:101B100015C08091B00080688093B000C093B3007E
:101B20000DC08091B00080628093B000C093B4007B
:101B300005C0C038D1050CF0B5CFAFCFDF91CF9144
:101B40001F9108951F920F920FB60F9211242F9399
:101B50003F938F939F93AF93BF9380916502909132
:101B60006602A0916702B09168023091640223E09E
:101B7000230F2D3720F40196A11DB11D05C026E8C5
:101B8000230F0296A11DB11D20936402809365026C
:101B900090936602A0936702B093680280916902F5
:101BA00090916A02A0916B02B0916C020196A11D06
:101BB000B11D8093690290936A02A0936B02B09367
:101BC0006C02BF91AF919F918F913F912F910F9098
:101BD0000FBE0F901F9018952FB7F8946091650273
:101BE0007091660280916702909168022FBF0895FC
:101BF0003FB7F8948091690290916A02A0916B02BC
:101C0000B0916C0226B5A89B05C02F3F19F0019634
:101C1000A11DB11D3FBF6627782F892F9A2F620F14
:101C2000711D811D911D42E0660F771F881F991F4E
:101C30004A95D1F70895CF92DF92EF92FF92CF931A
:101C4000DF936B017C010E94F80DEB01C114D104FC
:101C5000E104F10479F00E94F80D6C1B7D0B683EE5
:101C60007340A0F381E0C81AD108E108F108C85117
:101C7000DC4FECCFDF91CF91FF90EF90DF90CF90D2
:101C80000895789484B5826084BD84B5816084BDF4
:101C900085B5826085BD85B5816085BDEEE6F0E0E5
:101CA000808181608083E1E8F0E010828081826041
:101CB0008083808181608083E0E8F0E080818160C2
:101CC0008083E1EBF0E0808184608083E0EBF0E0F2
:101CD000808181608083EAE7F0E080818460808396
:101CE0008081826080838081816080838081806840
:101CF00080831092C1000895FC0124853585F90187
:101D0000E05CFF4F80819181F901EE5BFF4F208104
:101D10003181821B930B8F7399270895FC01848571
:101D20009585FC01E05CFF4F40815181FC01EE5B39
:101D3000FF4F208131814217530741F00190F0811C
:101D4000E02DE80FF91F808190E008958FEF9FEF5D
:101D50000895FC0184859585FC01E05CFF4F40817E
:101D60005181FC01EE5BFF4F208131814217530707
:101D700079F0A081B181A80FB91F8C9120813181A8
:101D80002F5F3F4F2F7333273183208390E00895D7
:101D90008FEF9FEF0895FC0181A1882329F0A4898A
:101DA000B5898C9186FFFBCF11A20895CF93DF9365
:101DB000FC0126853785D901A05CBF4F8D919C9190
:101DC000119701968F739927E901CE5BDF4F488108
:101DD000598184179507D9F30D90BC91A02DA20FBE
:101DE000B31F6C93A685B785A05CBF4F11969C93DB
:101DF0008E93A689B7892C9181E090E0078C02C070
:101E0000880F991F0A94E2F7282B2C9381E081A375
:101E10000488F589E02D80818064808381E090E0F2
:101E2000DF91CF91089508951F920F920FB60F92F0
:101E300011242F933F934F938F939F93EF93FF938F
:101E40008091C00082FD1CC04091C60080911303A8
:101E50009091140301968F73992720911503309167
:101E600016038217930771F0E0911303F0911403A6
:101E7000ED52FD4F4083909314038093130302C0EF
:101E80008091C600FF91EF919F918F914F913F916B
:101E90002F910F900FBE0F901F9018958DE692E036
:101EA0000E947C0E892B11F00C94130F08951F9241
:101EB0000F920FB60F9211242F933F938F939F93FE
:101EC000EF93FF932091CF023091D0028091D10205
:101ED0009091D2022817390731F48091C1008F7D8B
:101EE0008093C10014C0E091D102F091D202E15779
:101EF000FD4F20818091D1029091D20201968F7383
:101F000099279093D2028093D1022093C600FF912B
:101F1000EF919F918F913F912F910F900FBE0F9056
:101F20001F9018951092700210926F0288EE93E045
:101F3000A0E0B0E08093710290937202A0937302CC
:101F4000B093740288E191E090936E0280936D02E9
:101F500083ED92E090937A02809379028FE892E089
:101F600090937C0280937B0285EC90E090937E02BC
:101F700080937D0284EC90E09093800280937F02B6
:101F800080EC90E0909382028093810281EC90E05B
:101F9000909384028093830282EC90E09093860277
:101FA0008093850286EC90E090938802809387026C
:101FB00084E08093890283E080938A0287E08093A3
:101FC0008B0285E080938C0281E080938D020895DE
:101FD0000E94410E0E94FA00CEE4DFE00E948E02D1
:101FE0002097E1F30E944E0FF9CFCF92DF92EF924C
:101FF000FF920F931F93CF93DF936C017A01EB0154
:10200000E60EF71E00E010E0CE15DF0561F06991E5
:10201000D601ED91FC910190F081E02DC60109956A
:10202000080F191FF1CFC801DF91CF911F910F91B8
:10203000FF90EF90DF90CF90089597FB072E16F456
:10204000009407D077FD09D00E94371007FC05D017
:102050003EF4909581959F4F0895709561957F4FBF
:102060000895EE0FFF1F0590F491E02D0994AA1B2F
:10207000BB1B51E107C0AA1FBB1FA617B70710F073
:10208000A61BB70B881F991F5A95A9F780959095A5
:10209000BC01CD010895DC01FB018C9190819D93E1
:1020A00081934150510914161506BCF30895A0E020
:1020B000B0E0EDE5F0E10C9435126C017B018A0192
:1020C000E901F9010995B80197FF0FC0C701FE01A9
:1020D000099597FD08C0B801C601FE01099597FD55
:1020E00014C0860112C0870110C0C701FE01099506
:1020F0001816190644F0B801C601FE01099597FFAC
:1021000004C0C60103C0C70101C0C801CDB7DEB716
:10211000E8E00C945112ACE0B0E0E1E9F0E10C949D
:102120002B128C016B015C874B877901519541958E
:10213000510958874F832B853C85200F311F3A83E7
:10214000298337E0C316D10470F589809A804B85C6
:102150005C85C49E5001C59EB00CD49EB00C112469
:10216000A00EB11E8A149B0408F071C1340106153B
:102170001705A0F463018B859C85C81AD90AB301A1
:10218000C601F70109951816190644F44B855C85BC
:10219000B601C3010E944B103601E9CF2B853C8567
:1021A000820E931EDFCFC601969587954B855C8581
:1021B000849F5001859FB00C949FB00C1124A00EF9
:1021C000B11EC60101979E838D8397E0C916D10485
:1021D00009F44CC0ED81FE81E49F3001E59F700C55
:1021E000F49F700C1124600E711EF9E2CF16D10419
:1021F000A8F1C60123E0969587952A95E1F7849F7B
:102200004001859F900C949F900C11241401220C86
:10221000331CA801420D531DB801680D791D9701AB
:10222000C8010E9457102C01A501480D591D919419
:10223000819491089701B501C501880D991D0E94EF
:1022400057105C01B301680D791D9701A301C3010B
:10225000821993090E9457103C0101C0280197017F
:10226000A301B501C2010E9457105C014B855C853A
:10227000B501C8010E944B1089809A804D815E8112
:102280008B859C85489F9001499F300D589F300D4C
:1022900011243C832B833901600E711E13015401FC
:1022A00020E030E06A147B0408F441C0B801C501A5
:1022B00029873A87F701099529853A85181619065D
:1022C000B4F1892B89F44B855C85B50189819A81AC
:1022D0000E944B1029813A814B855C85240F351F64
:1022E0003A83298321E030E08B859C85A80EB91EB6
:1022F000D9CFB801C30129873A87F701099523018E
:102300004B855C85441A550A29853A8597FD13C08B
:10231000892B61F44B855C85B101C3010E944B1090
:102320002B853C85221A330A21E030E032016A1401
:102330007B04F8F60EC04B855C85B301C5010E9495
:102340004B104B855C85A40EB51E320121E030E0B8
:10235000A9CF232B09F450C04B805C804F81588556
:10236000441A550A400E511E650129813A81C21A4C
:10237000D30AA901401B510BC416D5060CF4A601C3
:102380001416150634F4B501641B750BC8010E94C0
:102390004B10410186189708A201421953098B85F9
:1023A0009C85481B590B8416950608F4A401141645
:1023B000150634F4B201641B750BC5010E944B1065
:1023C000EB85FC85EC15FD0548F4C601BF010E94B4
:1023D00037109701AF01C8010E948B102B853C85F7
:1023E00028153905A0F5820108191909C401B90198
:1023F0000E9437106B019FCE8B859C85C89E500133
:10240000C99EB00CD89EB00C1124A00EB11E8A1427
:102410009B04E8F4340106151705A0F463018B85CD
:102420009C85C81AD90AB301C601F7010995181687
:10243000190644F44B855C85B601C3010E944B101C
:102440003601E9CF2B853C85820E931EE0CF2C967A
:10245000E2E10C9447122F923F924F925F926F925B
:102460007F928F929F92AF92BF92CF92DF92EF9224
:10247000FF920F931F93CF93DF93CDB7DEB7CA1BA5
:10248000DB0B0FB6F894DEBF0FBECDBF09942A88D0
:10249000398848885F846E847D848C849B84AA8478
:1024A000B984C884DF80EE80FD800C811B81AA8105
:1024B000B981CE0FD11D0FB6F894DEBF0FBECDBFD0
:1024C000ED01089511E0C8E8D1E004C0FE010E94CA
:0E24D00033102296CE38D107C9F7F894FFCF0B
:1024DE00083F0E01000000005406F50FC405AA05C2
:1024EE00DA05D20500000000D60EF50F7C0EA90EFF
:0424FE008E0ECB0E65
:00000001FF
