:100000000C94C7000C94EF000C94EF000C94F70DC7
:100010000C94320F0C948C0F0C94EF000C94EF00A6
:100020000C94EF000C94EF000C94EF000C94EF0094
:100030000C94EF000C94EF000C94EF000C94EF0084
:100040000C94A1110C94EF000C9413130C94561300
:100050000C94EF000C94EF000C94EF000C94EF0064
:100060000C94EF000C94EF002010631063106310E9
:100070006310631032104210521063106310BE0FF1
:10008000CE0FE00FF00F0010101000C201000100B1
:10009000110011000C0000E100000A0025002500FD
:1000A0002100009600001900390039003600127A4C
:1000B00000001F004600460044008070000022003F
:1000C0004D004D004A00004B0000360075007500E1
:1000D0007200403800004A009C009C009900802576
:1000E00000007200EC00EC00E900C0120000E90022
:1000F000DA01DA01D70160090000D701B603B603BF
:10010000B303B0040000B3036E076E076B07580219
:1001100000006E07DC0EDC0ED80E2C010000DC0E99
:10012000C11DC11DBE1D000000070002010000032B
:100130000406000000000000000001020408102076
:100140004080010204081020010204081020040469
:10015000040404040404020202020202030303036F
:100160000303000000002300260029000000000017
:10017000250028002B0000000000240027002A0092
:10018000AB0384066C099113C60388067009112419
:100190001FBECFEFD8E0DEBFCDBF11E0A0E0B1E0E1
:1001A000EEEAF8E202C005900D92A432B107D9F749
:1001B00013E0A4E2B1E001C01D92AC31B107E1F758
:1001C00011E0C8E8D1E004C02297FE010E94321479
:1001D000C038D107C9F70E94E7130C944A140C9455
:1001E000000080E991E00E94F30340E855E260E0FE
:1001F00070E081EA91E00E941B0B81E08093A001F6
:1002000064EF71E080E090E00C941A122F923F921C
:100210004F925F926F927F928F929F92AF92BF9216
:10022000CF92DF92EF92FF920F931F93CF93DF93C2
:10023000CDB7DEB760970FB6F894DEBF0FBECDBF67
:100240001C861B8624E030E03E872D8740918C0180
:1002500050918D0160918E0170918F0184E291E047
:100260000E944F098111DFC120918C0130918D01D5
:1002700083E12F87388B0E9425112C0184E10E9495
:1002800025114C0182E10E9425116C016AE070E0A9
:1002900080E090E00E941A1283E10E9425113C0147
:1002A00084E10E9425115C0182E10E9425111C015C
:1002B0006AE070E080E090E00E941A1283E10E9400
:1002C00025117C0184E10E9425118C0182E10E94AC
:1002D00025112F853889641475042CF4E414F50471
:1002E0004CF4720107C04614570424F4E614F704D2
:1002F0000CF47301A814B9042CF4081519054CF476
:10030000840107C08A149B0424F40A151B050CF40D
:1003100085012C143D042CF48C159D054CF4C6016C
:1003200007C0C214D30424F4821593050CF4C10150
:10033000DD24D39449ECE416F1040CF0D12C080F21
:10034000191FFF24F3940A3C11050CF0F12CCE0187
:1003500006962F87388B0E948C062F853889D110FE
:1003600005C0F11003C081E08A8746C02130310505
:10037000C1F01CF4232B41F03EC022303105F1F0D6
:100380002330310541F137C0DD2031F060E070E00D
:10039000CE0106960E948D06FF2069F162E070E0B2
:1003A00026C0DD2031F061E070E0CE0106960E94AB
:1003B0008D06FF2001F163E070E019C0DD2031F00F
:1003C00062E070E0CE0106960E948D06FF2099F053
:1003D00061E070E00CC0DD2031F063E070E0CE0140
:1003E00006960E948D06FF2031F060E070E0CE019D
:1003F00006960E948D061A86FE013696DE0111963B
:1004000085E001900D928A95E1F7FE013196DE01BB
:10041000169685E001900D928A95E1F71D811123D2
:1004200019F00E94910902C00E949A09E0918A0184
:10043000F0918B011A8760918C0170918D018091F0
:100440008E0190918F012DB73EB72E5031090FB616
:10045000F8943EBF0FBE2DBFADB7BEB711962EE0CC
:1004600001900D922A95E1F70E811F81288539852B
:100470004A850E946C078C010FB6F894DEBF0FBE50
:10048000CDBF8230910589F52B853C852230310521
:1004900008F056C020918C0130918D0140918C0163
:1004A00050918D0160918E0170918F0184E291E0F5
:1004B0000E943F0920918C0130918D0140918C0167
:1004C00050918D0160918E0170918F0180E991E0D2
:1004D0000E94430660938C0170938D0180938E017E
:1004E00090938F0100E010E08FC08430910541F5BA
:1004F0000E949D090E948E0980E991E00E94BF043C
:1005000080918C0190918D018230910559F02CF4ED
:1005100097FD11C082E090E00AC0039761F481E08A
:1005200090E005C010928D0110928C0104C0909350
:100530008D0180938C0100918C0110918D0164C01C
:100540008D859E850817190789F50E9491090E94DB
:10055000940920918C0130918D0140918C01509132
:100560008D0160918E0170918F0184E291E00E9473
:100570003F0920918C0130918D0140918C01509167
:100580008D0160918E0170918F0180E991E00E9450
:10059000430660938C0170938D0180938E0190933C
:1005A0008F0164EF71E080E090E02CC00E94970919
:1005B0000E94940940918C0150918D0160918E01AF
:1005C00070918F01980184E291E00E943F0940916F
:1005D0008C0150918D0160918E0170918F01980175
:1005E00080E991E00E94430660938C0170938D0135
:1005F00080938E0190938F01062F172F62E370E096
:1006000080E090E00E941A120E9497090E949A09C5
:100610000E949D092B853C852F5F3F4F3C872B8790
:100620001E870D8713CE60960FB6F894DEBF0FBEFF
:10063000CDBFDF91CF911F910F91FF90EF90DF9091
:10064000CF90BF90AF909F908F907F906F905F9072
:100650004F903F902F90089540918C0150918D01C3
:1006600060918E0170918F0184E291E00E944F09A8
:10067000811122C040918C0150918D0160918E01B9
:1006800070918F0184E291E00E94470940918C01B2
:1006900050918D0160918E0170918F019C0180E9D4
:1006A00091E00E94430660938C0170938D018093CA
:1006B0008E0190938F01D0CF0895CF93DF938BE07D
:1006C0000E94FC10892BD9F3CAE0D0E083E10E949C
:1006D000251182E10E94251184E10E94251163E227
:1006E00070E080E090E00E941A122197209771F745
:1006F00068EC70E080E090E00E941A120E94A80668
:1007000090938B0180938A01FC0184819581909361
:100710008F0180938E0110928D0110928C010E94A6
:1007200006018BE00E94FC10892BD9F30E94A806D9
:1007300090938B0180938A01FC0184819581909331
:100740008F0180938E0110928D0110928C01DF91A8
:10075000CF910C942C0381EA91E00E94EC0A80E98D
:1007600091E00E94CE0310928F0110928E011092A0
:100770008D0110928C010E94A80690938B018093AA
:100780008A01BC0184E291E00C94220980E991E0A5
:100790000E94F20381EA91E00C94F70BCF93DF9370
:1007A000EC0101960E94FE0B8AE590E09B838A8310
:1007B0008EE690E09D838C8380E590E09F838E831E
:1007C0008CE99FEF998788871B861A8680E293E0E1
:1007D0009D878C8786E193E09F878E871882DF91C3
:1007E000CF910895089501960E94280C0C948B09CE
:1007F00085E10E9425118132934014F480E0089530
:1008000080E10E94251181329340C4F381E10E946E
:10081000251121E0813293400CF420E0822F0895CD
:100820008F929F92AF92BF92CF92DF92EF92FF9200
:100830000F931F93CF93DF93EC0183E10E94251167
:1008400084E10E9425114C0182E10E9425116C0176
:100850006AE070E080E090E00E941A1283E10E945A
:10086000251184E10E9425115C0182E10E9425117D
:100870007C016AE070E080E090E00E941A1283E15F
:100880000E94251184E10E9425118C0182E10E94C1
:1008900025119C01A814B9042CF4081519054CF471
:1008A000840107C08A149B0424F40A151B050CF468
:1008B0008501EC14FD042CF42C153D054CF4960137
:1008C00007C0CE14DF0424F42E153F050CF4970165
:1008D000293C31050CF446C0093C11050CF442C01A
:1008E000C901801B910B97FF03C0919581959109D8
:1008F0008997C4F1CE0101967C012017310774F469
:100900006E817F810E94640C68857985C7010E9491
:10091000A00C0E9491090E94A3090DC068857985E9
:100920000E94640C6E817F81C7010E94A00C0E940E
:10093000A6090E94910964E670E080E090E00E94C0
:100940001A12CE010E94F303DF91CF911F910F91F4
:10095000FF90EF90DF90CF90BF90AF909F908F90DF
:100960000C949A09DF91CF911F910F91FF90EF9016
:10097000DF90CF90BF90AF909F908F9008950F938E
:100980001F93CF93DF93EC010E94100481E0FE01DE
:1009900081938F0168857985CF010E94640C6E81F7
:1009A0007F81C8010E94A00C0E94A6098E859F85A8
:1009B00097FD0196BC01759567956C5E7F4F882702
:1009C00077FD8095982F0E941A12CE010E94F303A2
:1009D0006BE470E080E090E00E941A1268857985EF
:1009E000C8010E94640C6E817F81C8010E94A00C26
:1009F0000E94A6098E859F8597FD0196BC0175957D
:100A000067956C5E7F4F882777FD8095982F0E94B1
:100A10001A12CE010E94F3036AE070E080E090E0D9
:100A20000E941A12CE01DF91CF911F910F910C9469
:100A30001004CF93DF93EC010E94BF04CE01DF913D
:100A4000CF910C94BF04CF92DF92EF92FF920F935D
:100A50001F93CF93DF93EC0183E10E942511893C22
:100A600091057CF00E9491090E949409CE01DF91CA
:100A7000CF911F910F91FF90EF90DF90CF900C944A
:100A8000BF04FE0111928F010E94A0096C817D813B
:100A900062537109C8010E94A00C6A817B81625374
:100AA0007109C8010E94640C60E971E080E090E087
:100AB0000E941A12CE010E94F803811121C0EC801D
:100AC000FD8085E10E942511E81AF90ACA80DB80C1
:100AD00080E10E942511B601681B790B8A859B85F0
:100AE000E816F9060CF47C01681779070CF4BC01D0
:100AF000C8010E94640CB701C8010E94A00CDACFA3
:100B0000CE01DF91CF911F910F91FF90EF90DF9079
:100B1000CF900C94F3030F931F93CF93DF93EC01CB
:100B20008881882341F00E948E09DF91CF911F9127
:100B30000F910C949409CE010E941004FE011192B1
:100B40008F016E817F81CF010E94640C6885798559
:100B5000C8010E94A00C0E94A3098C859D8597FD69
:100B60000196BC01759567956C5E7F4F882777FD70
:100B70008095982F0E941A12CE010E94F3036BE415
:100B800070E080E090E00E941A126E817F81C801BF
:100B90000E94640C68857985C8010E94A00C0E949F
:100BA000A3098C859D8597FD0196BC017595679578
:100BB0006C5E7F4F882777FD8095982F0E941A12D0
:100BC000CE010E94F3036AE070E080E090E00E94B2
:100BD0001A120E94A0096C817D8162537109C801BB
:100BE0000E94A00C6A817B8162537109C8010E9436
:100BF000640C6AE070E080E090E00E941A12CE017E
:100C00000E94F303CE01DF91CF911F910F910C94BD
:100C1000100461307105A9F01CF4672B41F00895B0
:100C200062307105B9F063307105E9F00895423022
:100C3000510521F14330510519F14130510511F5AC
:100C40001BC042305105E1F043305105B9F0452B4E
:100C5000C9F412C04130510589F04330510561F0AB
:100C6000452B81F40DC04130510551F04230510502
:100C700019F0452B39F402C00C9419050C948B051E
:100C80000C94BF040895AF92BF92CF92DF92EF927F
:100C9000FF920F931F93CF93DF935C016A017B0157
:100CA000E90187012417350721F0A901B6010E9447
:100CB0000906C130D10589F034F42097A9F48701E1
:100CC0000750110911C0C230D10559F0C330D10508
:100CD00059F487010150110907C08701095F1F4FAF
:100CE00003C087010F5F1F4FC5010E942305BE018E
:100CF000C801DF91CF911F910F91FF90EF90DF908E
:100D0000CF90BF90AF9008958DEB91E00C94EC0ADA
:100D10008DEB91E00C94F70B0895FC0161307105A7
:100D200071F01CF4672B41F008956230710551F0A9
:100D30006330710551F0089581E08083089581E06A
:100D40008183089581E08283089581E083830895FB
:100D5000CF93DF93CDB7DEB72E970FB6F894DEBFF3
:100D60000FBECDBF60E083E00E948D1060E089E09F
:100D70000E948D1083E00E94FC108130910599F44F
:100D80009C838B8385E090E09A8789879C878B87FB
:100D900084EB90E09E878D8780E390E09E838D8337
:100DA00089E090E014C082E090E09C838B8386E031
:100DB00090E09A8789879C878B8780EF90E09E8759
:100DC0008D8780E390E09E838D8381E090E098871B
:100DD0008F8389E00E94FC10CE0101962E960FB6FB
:100DE000F894DEBF0FBECDBFDF91CF910895AF92D3
:100DF000BF92CF92DF92EF92FF920F931F93CF9308
:100E0000DF93CDB7DEB72E970FB6F894DEBF0FBED7
:100E1000CDBFCB82DC822B813C812130310549F56D
:100E20009C01215031092830310508F442C09C0151
:100E30002E50310922303105E0F19C012551310954
:100E400022303105B0F19C012C513109223031059D
:100E500080F19C01235231092230310550F19C016F
:100E60002A5231092630310520F121E0C19711F5D0
:100E700020C022303105E1F487309105D1F08E3069
:100E80009105B9F085319105A1F08C31910589F07A
:100E90008332910571F09C012A52310925303105C8
:100EA00040F08133910529F021E08F9719F401C0BA
:100EB00002C020E0822F2E960FB6F894DEBF0FBE40
:100EC000CDBFDF91CF911F910F91FF90EF90DF90F9
:100ED000CF90BF90AF9008952F923F924F925F9224
:100EE0006F927F928F929F92AF92BF92CF92DF923A
:100EF000EF92FF920F931F93CF93DF9300D000D018
:100F00001F92CDB7DEB72B013C01202E812E922EF1
:100F1000332E411175C181E04816510409F4BFC058
:100F20001CF4452861F06BC182E04816510409F4B5
:100F30005EC083E04816510409F409C160C1222350
:100F4000A1F0AA8CBB8CCC8CDD8CEE8CFF8C08A124
:100F500019A12AA13BA14CA15DA16EA17FA1C30152
:100F600001960E94F706811153C12220A1F0AA8C9C
:100F7000BB8CCC8CDD8CEE8CFF8C08A119A12AA136
:100F80003BA14CA15DA16EA17FA1C30107970E9467
:100F9000F706811137C13320A1F0AA8CBB8CCC8C11
:100FA000DD8CEE8CFF8C08A119A12AA13BA14CA1DC
:100FB0005DA16EA17FA1C30101970E94F706811177
:100FC00023C1882051F1AA8CBB8CCC8CDD8CEE8C9B
:100FD000FF8C08A119A12AA13BA14CA15DA16EA182
:100FE0007FA1C30107960E94F70681110FC18820D7
:100FF000A1F0AA8CBB8CCC8CDD8CEE8CFF8C08A174
:1010000019A12AA13BA14CA15DA16EA17FA1C301A1
:1010100007960E94F7068111F9C09920A1F0AA8CC9
:10102000BB8CCC8CDD8CEE8CFF8C08A119A12AA185
:101030003BA14CA15DA16EA17FA1C30101960E94BD
:10104000F7068111E5C02220A1F0AA8CBB8CCC8CC4
:10105000DD8CEE8CFF8C08A119A12AA13BA14CA12B
:101060005DA16EA17FA1C30107970E94F7068111C0
:10107000C9C0332051F1AA8CBB8CCC8CDD8CEE8C9A
:10108000FF8C08A119A12AA13BA14CA15DA16EA1D1
:101090007FA1C30101970E94F7068111B5C03320DB
:1010A000A1F0AA8CBB8CCC8CDD8CEE8CFF8C08A1C3
:1010B00019A12AA13BA14CA15DA16EA17FA1C301F1
:1010C00001970E94F70681119FC08820A1F0AA8C89
:1010D000BB8CCC8CDD8CEE8CFF8C08A119A12AA1D5
:1010E0003BA14CA15DA16EA17FA1C30107960E9407
:1010F000F70681118BC09920A1F0AA8CBB8CCC8CF7
:10110000DD8CEE8CFF8C08A119A12AA13BA14CA17A
:101110005DA16EA17FA1C30101960E94F706811116
:1011200077C0222051F1AA8CBB8CCC8CDD8CEE8C4C
:10113000FF8C08A119A12AA13BA14CA15DA16EA120
:101140007FA1C30107970E94F70681115BC022208F
:10115000A1F0AA8CBB8CCC8CDD8CEE8CFF8C08A112
:1011600019A12AA13BA14CA15DA16EA17FA1C30140
:1011700007970E94F706811145C03320A1F0AA8C81
:10118000BB8CCC8CDD8CEE8CFF8C08A119A12AA124
:101190003BA14CA15DA16EA17FA1C30101970E945B
:1011A000F706811131C08820A1F0AA8CBB8CCC8CB1
:1011B000DD8CEE8CFF8C08A119A12AA13BA14CA1CA
:1011C0005DA16EA17FA1C30107960E94F706811160
:1011D0001DC09920A1F0AA8CBB8CCC8CDD8CEE8C30
:1011E000FF8C08A119A12AA13BA14CA15DA16EA170
:1011F0007FA1C30101960E94F706811109C00AC0B0
:1012000084E007C080E005C083E003C081E001C046
:1012100082E090E00F900F900F900F900F90DF9171
:10122000CF911F910F91FF90EF90DF90CF90BF90E3
:10123000AF909F908F907F906F905F904F903F9076
:101240002F900895FC01EC59FF4F71836083FC01DE
:1012500022E330E04FEF5FEF41935193215031098A
:1012600021153105C9F7DB011496ED91FC91159715
:10127000EE0FFF1FE80FF91F118210820895FB0186
:10128000EE0FFF1FE80FF91F318320830895FB0144
:10129000EE0FFF1FE80FF91F8081918108958C598F
:1012A0009F4FDC01ED91FC9181E02681378126176B
:1012B000370709F080E008958091D90181110BC0B2
:1012C00040E855E260E070E08AED91E00E941B0B7F
:1012D00081E08093D90108958AED91E00C94EC0AA5
:1012E0008AED91E00C94F70BCF93DF931F92CDB76B
:1012F000DEB789830E945C098981682F8AED91E0BD
:101300000E94530A6AE070E080E090E00F90DF9165
:10131000CF910C941A1281E00C94740982E00C9421
:10132000740983E00C94740984E00C94740985E0DA
:101330000C94740986E00C94740987E00C94740989
:1013400088E00C94740989E00C9474098AE00C9488
:1013500074099091F6018091F701981789F0E09156
:10136000F601F0E0E850FE4F80812091F60130E078
:101370002F5F3F4F2F7333272093F60190E008959E
:101380008FEF9FEF08958091F7012091F60190E093
:10139000805C9F4F821B910960E470E00E941C14E6
:1013A00008958FB7F8941092F7011092F6018FBF4D
:1013B00008959091F6018091F701981751F0E0910E
:1013C000F601F0E0E850FE4F8081992787FD909567
:1013D00008958FEF9FEF089520E001972FEF8F3F43
:1013E0009207D9F70895EF92FF920F931F93CF932F
:1013F000DF93EC018B899C890E94EC0908E010E0E6
:10140000EE24E394F12C8D899E890E94EC09EE85EF
:10141000FF8580819D85892311F0FE2803C08E2DD4
:101420008095F822EE0C015011090115110559F7AC
:101430008F89988D0E94EC098091F7012091F60127
:1014400090E001968F73992730E08217930779F027
:10145000E091F701F0E0E850FE4FF0828091F70153
:1014600090E001968F7399278093F70103C08B8DCD
:1014700081608B8FDF91CF911F910F91FF90EF9043
:101480000895DC015196ED91FC91529750969C91F4
:10149000611105C02081892F8095822302C080813F
:1014A000892B80830895DF92EF92FF920F931F9311
:1014B000CF93DF93EC01D62E898D9A8D892B39F449
:1014C00081E090E09B838A8380E090E036C0EFB6B5
:1014D000F894E989FA8990818889809589238083A5
:1014E000898D9A8D05960E94EC0908E010E0FF2492
:1014F000F3948F2D8D2129F061E0CE010E94410AE5
:1015000007C0E989FA899081888980958923808339
:10151000898D9A8D0E94EC09FF0C0150110901156B
:10152000110539F761E0CE010E94410AEFBE898DB5
:101530009A8D0E94EC0981E090E0DF91CF911F919C
:101540000F91FF90EF90DF9008951F93CF93DF935B
:10155000EC01162F61E0812F0E948D1061E0812F38
:101560000E94C610812F90E0FC01E65CFE4FE491E2
:10157000E88BFC01E25BFE4FE491F0E0EE0FFF1F11
:10158000E459FE4F859194919A8B898BDF91CF918D
:101590001F9108951F93CF93DF93EC01162F60E006
:1015A000812F0E948D101C87612F70E0FB01E65C8B
:1015B000FE4FE491ED87FB01E25BFE4FE491F0E02A
:1015C000EE0FFF1FEE59FE4F859194919F878E87F6
:1015D000DF91CF911F910895CF93DF93EC011B8290
:1015E0001A8248EE53E060E070E04C835D836E83C6
:1015F0007F8388E091E0998388831C8A1B8A1E8AF6
:101600001D8A188E1F8A1A8E198E8B8D8E7F8B8F56
:1016100064E08FE090E00E94B40FD0933B02C0934F
:101620003A026EE0CE010E94A50A6FE0CE01DF9182
:10163000CF910C94CA0A0F931F93CF93DF93DC01D1
:101640005A961C921E92599758961C921E92579722
:1016500056961C921E925597CAE8D0E080E090E022
:10166000FE01059115912591349104171507260760
:10167000370759F54CE0489F9001499F300D1124E0
:10168000F901E257FF4F8591949154969C938E9364
:101690005397F901E057FF4F8591949156969C938B
:1016A0008E935597F901EE56FF4F85919491589678
:1016B0009C938E9357972C563F4FF90185919491A7
:1016C0005A969C938E9359970AC001962C968D300A
:1016D000910509F0C5CF54961C921E9253975796C8
:1016E0008D919C915897892B09F44DC01C968C9133
:1016F0001C978631F0F520916800883050F091E019
:101700008E3008F490E081E001C0880F9A95EAF7E6
:1017100001C084E0822B809368001C962C911C975A
:10172000283038F02E3040F0263148F0E0E0F0E08C
:1017300008C0EDE6F0E005C0EBE6F0E002C0ECE644
:10174000F0E03081283030F481E001C0880F2A9524
:10175000EAF70DC0822F90E02E3010F4089701C0F8
:101760000E9791E001C0990F8A95EAF7892F832B94
:10177000808359968D919C915A97DF91CF911F91BB
:101780000F910C94EC09DF91CF911F910F91089567
:10179000FC014485463150F5483028F04E3030F495
:1017A000EBE6F0E005C0EDE6F0E002C0ECE6F0E0CC
:1017B0005081483040F481E090E0042E01C0880F51
:1017C0000A94EAF710C0242F30E04E3018F4285065
:1017D000310902C02E50310981E090E0022E01C093
:1017E000880F0A94EAF7809585238083089528E07E
:1017F00031E0FC01318320830C94C80B61E087E069
:101800000E948D1061E088E00E948D1061E082E00E
:101810000E948D1061E084E00C948D1061E082E004
:101820000E94C61061E084E00E94C61060E070E093
:1018300085E00C94421161E087E00E94C61061E0EF
:1018400088E00E94C61060E070E086E00C944211CF
:10185000CF93DF93EC010E940E0CCE01DF91CF916C
:101860000C941B0CCF93C62F61E082E00E94C6103F
:1018700060E084E00E94C6106C2F70E085E00E945A
:101880004211E0913802F0913902309711F081E075
:101890008087CF910895CF93C62F60E082E00E94A9
:1018A000C61061E084E00E94C6106C2F70E085E0F5
:1018B0000E944211E0913802F0913902309711F004
:1018C0008FEF8087CF9108951616170614F40C94A5
:1018D000320C7195619571090C944B0CCF93C62F06
:1018E00061E087E00E94C61060E088E00E94C610B8
:1018F0006C2F70E086E00E944211E0913802F09176
:101900003902309711F081E08187CF910895CF930C
:10191000C62F60E087E00E94C61061E088E00E9468
:10192000C6106C2F70E086E00E944211E0913802F0
:10193000F0913902309711F08FEF8187CF910895A0
:101940001616170614F40C946E0C719561957109B6
:101950000C94870C0F931F93FC0161157105B1F076
:101960006130710529F50185112707FD1095212F9B
:10197000312F4481558166817781400F511F621F4D
:10198000731F448355836683778312C000851127B4
:1019900007FD1095212F312F408151816281738184
:1019A000400F511F621F731F4083518362837383F3
:1019B0001F910F910895CF92DF92EF92FF92E82F3F
:1019C000F0E0DF01A45CBD4F8C918230F9F078F437
:1019D000813009F052C0EE0FFF1FEB5AFD4F01900E
:1019E000F081E02DFF90EF90DF90CF90099483304D
:1019F00021F1843009F041C080913A0290913B027C
:101A0000FF90EF90DF90CF900C94F309C0904D02BF
:101A1000D0904E02E0904F02F09050020E94F711D9
:101A200022E3C20ED11CE11CF11CC616D706E80643
:101A3000F90618F560E070E016C0C0905102D09031
:101A40005202E0905302F09054020E94F71122E3F8
:101A5000C20ED11CE11CF11CC616D706E806F90619
:101A600060F461E070E08091380290913902FF905B
:101A7000EF90DF90CF900C94AA0CFF90EF90DF9046
:101A8000CF900895CF93C82F8091020181FF02C0AB
:101A9000C1FF46C08091020181FD2CC0C1FF2AC058
:101AA00080914302823051F40E94F71160934D02FD
:101AB00070934E0280934F029093500280914302A4
:101AC000833051F40E94F7116093510270935202D7
:101AD000809353029093540280914302813051F4D9
:101AE0000E94EB116093490270934A0280934B026B
:101AF00090934C028091020182FF16C0C2FD14C077
:101B000088E00E94DB0C8091020183FF3EC0C3FD90
:101B10003CC089E00E94DB0CC0930201CF91089584
:101B200087E00E94DB0CE6CF8091020182FDEBCFC3
:101B3000C2FFE9CF80914402823051F40E94F71134
:101B400060934D0270934E0280934F029093500227
:101B500080914402833051F40E94F7116093510246
:101B600070935202809353029093540280914402E6
:101B7000813049F60E94EB116093490270934A024A
:101B800080934B0290934C02BECF8091020182FD64
:101B9000C3CFC2FFC1CF80914502823051F40E9471
:101BA000F71160934D0270934E0280934F02909311
:101BB000500280914502833051F40E94F7116093E6
:101BC0005102709352028093530290935402809179
:101BD0004502813009F0A0CF0E94EB1160934902C9
:101BE00070934A0280934B0290934C0295CF1F92C0
:101BF0000F920FB60F9211242F933F934F935F9341
:101C00006F937F938F939F93AF93BF93EF93FF93C4
:101C100093B18091480289230E94420DFF91EF9178
:101C2000BF91AF919F918F917F916F915F914F91F4
:101C30003F912F910F900FBE0F901F901895CF934B
:101C4000C82F8091010180FF02C0C0FF53C0809166
:101C5000010180FD1EC0C0FF1CC080913C0282308B
:101C600051F40E94EB1160934D0270934E028093E9
:101C70004F029093500280913C02833051F40E94B5
:101C8000EB11609351027093520280935302909330
:101C900054028091010181FF31C0C1FD2FC081E05C
:101CA0000E94DB0C8091010182FF4CC0C2FD4AC042
:101CB00082E00E94DB0C8091010183FF67C0C3FDBD
:101CC00065C083E00E94DB0C8091010184FF82C02B
:101CD000C4FD80C084E00E94DB0C8091010185FF7F
:101CE0009DC0C5FD9BC085E00E94DB0CC093010137
:101CF000CF91089580E00E94DB0CCBCF8091010151
:101D000081FDD0CFC1FFCECF80913D02823051F412
:101D10000E94EB1160934D0270934E0280934F022C
:101D20009093500280913D02833009F0BBCF0E9416
:101D3000EB1160935102709352028093530290937F
:101D40005402B0CF8091010182FDB5CFC2FFB3CF65
:101D500080913E02823051F40E94EB1160934D025B
:101D600070934E0280934F029093500280913E02F6
:101D7000833009F0A0CF0E94EB1160935102709361
:101D80005202809353029093540295CF80910101A7
:101D900083FD9ACFC3FF98CF80913F02823051F4E8
:101DA0000E94EB1160934D0270934E0280934F029C
:101DB0009093500280913F02833009F085CF0E94BA
:101DC000EB116093510270935202809353029093EF
:101DD00054027ACF8091010184FD7FCFC4FF7DCF73
:101DE00080914002823051F40E94EB1160934D02C9
:101DF00070934E0280934F02909350028091400264
:101E0000833009F06ACF0E94EB1160935102709306
:101E1000520280935302909354025FCF809101014C
:101E200085FD64CFC5FF62CF80914102823051F4BD
:101E30000E94EB1160934D0270934E0280934F020B
:101E40009093500280914102833009F04FCF0E945D
:101E5000EB1160935102709352028093530290935E
:101E6000540244CF1F920F920FB60F9211242F935A
:101E70003F934F935F936F937F938F939F93AF9312
:101E8000BF93EF93FF9396B18091470289230E94FD
:101E90001F0EFF91EF91BF91AF919F918F917F9115
:101EA0006F915F914F913F912F910F900FBE0F90C7
:101EB0001F901895CF93C82F8091000183FF02C017
:101EC000C3FF26C08091000183FD1EC0C3FF1CC05C
:101ED00080914202823051F40E94EB1160934D02D6
:101EE00070934E0280934F02909350028091420271
:101EF000833051F40E94EB116093510270935202AF
:101F00008093530290935402C0930001CF9108959F
:101F100086E00E94DB0CF8CF1F920F920FB60F9253
:101F200011242F933F934F935F936F937F938F93DE
:101F30009F93AF93BF93EF93FF9399B18091460224
:101F400089230E945A0FFF91EF91BF91AF919F910A
:101F50008F917F916F915F914F913F912F910F9052
:101F60000FBE0F901F90189503978131910508F0CF
:101F7000AAC08C5C9F4FFC010C94301480916C00C3
:101F8000816080936C00809168008260809368001B
:101F900060933C028091470281600FC080916C0089
:101FA000826080936C0080916800826080936800FA
:101FB00060933D02809147028260809347020895BA
:101FC00080916C00846080936C00809168008260D6
:101FD0008093680060933E02809147028460EDCF59
:101FE00080916C00886080936C00809168008260B2
:101FF0008093680060933F02809147028860DDCF44
:1020000080916C00806180936C0080916800826098
:102010008093680060934002809147028061CDCF39
:1020200080916C00806280936C0080916800826077
:102030008093680060934102809147028062BDCF27
:1020400080916D00886080936D008091680084604D
:10205000809368006093420280914602886080937A
:102060004602089580916B00826080936B0080919E
:102070006800816080936800609343028091480209
:1020800082601FC080916B00846080936B008091A0
:1020900068008160809368006093440280914802E8
:1020A00084600FC080916B00886080936B0080918A
:1020B00068008160809368006093450280914802C7
:1020C0008860809348020895833081F028F481303D
:1020D00099F08230A1F008958630A9F08730B9F0E8
:1020E0008430D1F4809180008F7D03C08091800086
:1020F0008F7780938000089584B58F7702C084B570
:102100008F7D84BD08958091B0008F7703C080914A
:10211000B0008F7D8093B0000895CF93DF9390E05F
:10212000FC01E65CFE4F2491FC01E25BFE4F8491D2
:10213000882349F190E0880F991FFC01EA58FE4F6F
:10214000A591B49184599E4FFC01C591D4919FB73C
:10215000611108C0F8948C91209582238C9388811A
:1021600082230AC0623051F4F8948C91322F30955A
:1021700083238C938881822B888304C0F8948C916C
:10218000822B8C939FBFDF91CF9108950F931F9364
:10219000CF93DF931F92CDB7DEB7282F30E0F90140
:1021A000EA5DFE4F8491F901E65CFE4F1491F9015E
:1021B000E25BFE4F04910023C9F0882321F069837C
:1021C0000E9464106981E02FF0E0EE0FFF1FE459D8
:1021D000FE4FA591B4919FB7F8948C91611103C003
:1021E0001095812301C0812B8C939FBF0F90DF91AD
:1021F000CF911F910F910895CF93DF93282F30E057
:10220000F901EA5DFE4F8491F901E65CFE4FD4913D
:10221000F901E25BFE4FC491CC2391F081110E9441
:102220006410EC2FF0E0EE0FFF1FEE59FE4FA5916A
:10223000B4912C912D2381E090E021F480E002C044
:1022400080E090E0DF91CF9108958E3008F08E50BD
:1022500087702091030190E4299F90011124822B23
:1022600080937C0080917A00806480937A008091D2
:102270007A0086FDFCCF809178002091790090E073
:10228000922B08951F93CF93DF93182FEB0161E0FA
:102290000E948D10209711F460E004C0CF3FD1055B
:1022A00039F461E0812FDF91CF911F910C94C6101A
:1022B000E12FF0E0EA5DFE4FE491E330F9F048F4FD
:1022C000E130B9F0E230A1F584B5806284BDC8BDCB
:1022D00034C0E630E9F0E73019F1E43049F5809197
:1022E0008000806280938000D0938B00C0938A002E
:1022F00024C084B5806884BDC7BD1FC080918000A4
:10230000806880938000D0938900C093880015C0B6
:102310008091B00080688093B000C093B3000DC07E
:102320008091B00080628093B000C093B40005C07B
:10233000C038D1050CF0B5CFAFCFDF91CF911F9151
:1023400008951F920F920FB60F9211242F933F936F
:102350008F939F93AF93BF9380916A0290916B028A
:10236000A0916C02B0916D023091690223E0230FBD
:102370002D3720F40196A11DB11D05C026E8230FBD
:102380000296A11DB11D2093690280936A02909369
:102390006B02A0936C02B0936D0280916E029091DB
:1023A0006F02A0917002B09171020196A11DB11D42
:1023B00080936E0290936F02A0937002B0937102AB
:1023C000BF91AF919F918F913F912F910F900FBE31
:1023D0000F901F9018952FB7F89460916A02709132
:1023E0006B0280916C0290916D022FBF08953FB7F0
:1023F000F89480916E0290916F02A0917002B0915A
:10240000710226B5A89B05C02F3F19F00196A11DAA
:10241000B11D3FBF6627782F892F9A2F620F711D3C
:10242000811D911D42E0660F771F881F991F4A95F5
:10243000D1F70895CF92DF92EF92FF92CF93DF937F
:102440006B017C010E94F711EB01C114D104E1047E
:10245000F10479F00E94F7116C1B7D0B683E73400C
:10246000A0F381E0C81AD108E108F108C851DC4F97
:10247000ECCFDF91CF91FF90EF90DF90CF90089558
:10248000789484B5826084BD84B5816084BD85B54F
:10249000826085BD85B5816085BDEEE6F0E0808116
:1024A00081608083E1E8F0E0108280818260808337
:1024B000808181608083E0E8F0E0808181608083BA
:1024C000E1EBF0E0808184608083E0EBF0E08081EC
:1024D00081608083EAE7F0E080818460808380818E
:1024E0008260808380818160808380818068808336
:1024F0001092C1000895FC0124853585F901E05C46
:10250000FF4F80819181F901EE5BFF4F2081318186
:10251000821B930B8F7399270895FC018485958501
:10252000FC01E05CFF4F40815181FC01EE5BFF4FFD
:10253000208131814217530741F00190F081E02D55
:10254000E80FF91F808190E008958FEF9FEF0895C5
:10255000FC0184859585FC01E05CFF4F4081518141
:10256000FC01EE5BFF4F208131814217530779F068
:10257000A081B181A80FB91F8C91208131812F5F7B
:102580003F4F2F7333273183208390E008958FEFDF
:102590009FEF0895FC0181A1882329F0A489B589C2
:1025A0008C9186FFFBCF11A20895CF93DF93FC019E
:1025B00026853785D901A05CBF4F8D919C911197DD
:1025C00001968F739927E901CE5BDF4F48815981CE
:1025D00084179507D9F30D90BC91A02DA20FB31FBE
:1025E0006C93A685B785A05CBF4F11969C938E9384
:1025F000A689B7892C9181E090E0078C02C0880FF2
:10260000991F0A94E2F7282B2C9381E081A3048878
:10261000F589E02D80818064808381E090E0DF9106
:10262000CF91089508951F920F920FB60F92112423
:102630002F933F934F938F939F93EF93FF938091AB
:10264000C00082FD1CC04091C6008091180390918B
:10265000190301968F73992720911A0330911B0358
:102660008217930771F0E0911803F0911903E85273
:10267000FD4F4083909319038093180302C080910B
:10268000C600FF91EF919F918F914F913F912F91B4
:102690000F900FBE0F901F90189582E792E00E9456
:1026A0007B12892B11F00C94121308951F920F9234
:1026B0000FB60F9211242F933F938F939F93EF9315
:1026C000FF932091D4023091D5028091D60290914F
:1026D000D7022817390731F48091C1008F7D80938C
:1026E000C10014C0E091D602F091D702EC56FD4F24
:1026F00020818091D6029091D70201968F739927FD
:102700009093D7028093D6022093C600FF91EF9159
:102710009F918F913F912F910F900FBE0F901F901F
:102720001895109275021092740288EE93E0A0E062
:10273000B0E08093760290937702A0937802B093F2
:10274000790288E191E0909373028093720288EDA0
:1027500092E090937F0280937E0284E992E09093CE
:1027600081028093800285EC90E0909383028093B5
:10277000820284EC90E0909385028093840280EC46
:1027800090E0909387028093860281EC90E0909392
:1027900089028093880282EC90E090938B02809370
:1027A0008A0286EC90E090938D0280938C0284E004
:1027B00080938E0283E080938F0287E08093900263
:1027C00085E08093910281E08093920208950E94B7
:1027D00040120E94F100CDE4D3E10E945D032097F6
:1027E000E1F30E944D13F9CFCF92DF92EF92FF9267
:1027F0000F931F93CF93DF936C017A01EB01E60EE9
:10280000F71E00E010E0CE15DF0561F06991D601FA
:10281000ED91FC910190F081E02DC6010995080F22
:10282000191FF1CFC801DF91CF911F910F91FF9038
:10283000EF90DF90CF90089597FB072E16F4009449
:1028400007D077FD09D00E94361407FC05D03EF46E
:10285000909581959F4F0895709561957F4F08954C
:10286000EE0FFF1F0590F491E02D0994AA1BBB1BEE
:1028700051E107C0AA1FBB1FA617B70710F0A61B80
:10288000B70B881F991F5A95A9F780959095BC01A1
:10289000CD01089511E0C8E8D1E004C0FE010E9416
:0E28A00032142296CE38D107C9F7F894FFCF34
:1028AE00083F0E0100000000530AF413C309A909E2
:1028BE00D909D10900000000D512F4137B12A81219
:0428CE008D12CA128B
:00000001FF
