:100000000C94C7000C94EF000C94EF000C94050EB8
:100010000C94400F0C949A0F0C94EF000C94EF008A
:100020000C94EF000C94EF000C94EF000C94EF0094
:100030000C94EF000C94EF000C94EF000C94EF0084
:100040000C94AF110C94EF000C9421130C946413D6
:100050000C94EF000C94EF000C94EF000C94EF0064
:100060000C94EF000C94EF002E10711071107110B1
:100070007110711040105010601071107110CC0F81
:10008000DC0FEE0FFE0F0E101E1000C2010001006B
:10009000110011000C0000E100000A0025002500FD
:1000A0002100009600001900390039003600127A4C
:1000B00000001F004600460044008070000022003F
:1000C0004D004D004A00004B0000360075007500E1
:1000D0007200403800004A009C009C009900802576
:1000E00000007200EC00EC00E900C0120000E90022
:1000F000DA01DA01D70160090000D701B603B603BF
:10010000B303B0040000B3036E076E076B07580219
:1001100000006E07DC0EDC0ED80E2C010000DC0E99
:10012000C11DC11DBE1D000000070002010000032B
:100130000406000000000000000001020408102076
:100140004080010204081020010204081020040469
:10015000040404040404020202020202030303036F
:100160000303000000002300260029000000000017
:10017000250028002B0000000000240027002A0092
:10018000BA0392067A099F13D50396067E091124B5
:100190001FBECFEFD8E0DEBFCDBF11E0A0E0B1E0E1
:1001A000EAECF8E202C005900D92A432B107D9F74B
:1001B00013E0A4E2B1E001C01D92AC31B107E1F758
:1001C00011E0C8E8D1E004C02297FE010E9440146B
:1001D000C038D107C9F70E94F5130C9458140C9439
:1001E000000080E991E00E94020440E855E260E0EE
:1001F00070E081EA91E00E94290B81E08093A001E8
:1002000064EF71E080E090E00C9428122F923F920E
:100210004F925F926F927F928F929F92AF92BF9216
:10022000CF92DF92EF92FF920F931F93CF93DF93C2
:10023000CDB7DEB760970FB6F894DEBF0FBECDBF67
:100240001C861B8640918C0150918D0160918E011E
:1002500070918F0184E291E00E945D098111F8C1E3
:1002600020918C0130918D0183E12F87388B0E9482
:1002700033112C0184E10E9433114C0182E10E9470
:1002800033116C016AE070E080E090E00E94281277
:1002900083E10E9433113C0184E10E9433115C012F
:1002A00082E10E9433111C016AE070E080E090E07E
:1002B0000E94281283E10E9433117C0184E10E9494
:1002C00033118C0182E10E9433112F853889641427
:1002D00075042CF4E414F5044CF4720107C04614C0
:1002E000570424F4E614F7040CF47301A814B904B9
:1002F0002CF4081519054CF4840107C08A149B04DA
:1003000024F40A151B050CF485012C143D042CF46F
:100310008C159D054CF4C60107C0C214D30424F407
:10032000821593050CF4C101DD24D39449ECE41645
:10033000F1040CF0D12C080F191FFF24F3940A3C90
:1003400011050CF0F12CCE0106962F87388B0E94F8
:100350009A062F853889D11005C0F11003C081E0BD
:100360008A8746C021303105C1F01CF4232B41F0AF
:100370003EC022303105F1F02330310541F137C064
:10038000DD2031F060E070E0CE0106960E949B0611
:10039000FF2069F162E070E026C0DD2031F061E00D
:1003A00070E0CE0106960E949B06FF2001F163E0FB
:1003B00070E019C0DD2031F062E070E0CE010696F9
:1003C0000E949B06FF2099F061E070E00CC0DD20E8
:1003D00031F063E070E0CE0106960E949B06FF209C
:1003E00031F060E070E0CE0106960E949B061A860E
:1003F000FE013696DE01119685E001900D928A95F8
:10040000E1F7FE013196DE01169685E001900D922E
:100410008A95E1F71D81112319F00E949F0902C0FE
:100420000E94A809E0918A01F0918B011A876091DE
:100430008C0170918D0180918E0190918F012DB76B
:100440003EB72E5031090FB6F8943EBF0FBE2DBFF8
:10045000ADB7BEB711962EE001900D922A95E1F747
:100460000E811F81288539854A850E947A078C0173
:100470000FB6F894DEBF0FBECDBF8230910559F59F
:1004800020918C0130918D0140918C0150918D0112
:1004900060918E0170918F0184E291E00E944D097C
:1004A00020918C0130918D0140918C0150918D01F2
:1004B00060918E0170918F0180E991E00E94510658
:1004C00060938C0170938D0180938E0190938F01C6
:1004D00000E010E0BAC02D853E858217930749F5EC
:1004E00020918C0130918D0140918C0150918D01B2
:1004F00060918E0170918F0184E291E00E944D091C
:1005000020918C0130918D0140918C0150918D0191
:1005100060918E0170918F0180E991E00E945106F7
:1005200060938C0170938D0180938E0190938F0165
:100530008CC08430910509F05AC00E94AB090E941A
:100540009C0980E991E00E94B3058B859C8501960A
:100550009C878B8780918C0190918D0182309105D1
:1005600059F02CF497FD11C082E090E00AC0039787
:1005700061F481E090E005C010928D0110928C0131
:1005800004C090938D0180938C0100918C01109197
:100590008D012B853C852230310509F056C04091F4
:1005A0008C0150918D0160918E0170918F019801A5
:1005B00084E291E00E944D0920918C0130918D01DF
:1005C00040918C0150918D0160918E0170918F014D
:1005D00080E991E00E94510660938C0170938D0137
:1005E00080938E0190938F011C861B862EC00E94E3
:1005F000A5090E94A20940918C0150918D01609142
:100600008E0170918F01980184E291E00E944D0962
:1006100040918C0150918D0160918E0170918F01FC
:10062000980180E991E00E94510660938C017093DB
:100630008D0180938E0190938F01062F172F62E317
:1006400070E080E090E00E9428121E870D87FACDAE
:1006500060960FB6F894DEBF0FBECDBFDF91CF918D
:100660001F910F91FF90EF90DF90CF90BF90AF90D0
:100670009F908F907F906F905F904F903F902F90C2
:10068000089540918C0150918D0160918E0170917F
:100690008F0184E291E00E945D09811122C04091A6
:1006A0008C0150918D0160918E0170918F0184E2D7
:1006B00091E00E94550940918C0150918D0160910B
:1006C0008E0170918F019C0180E991E00E9451069A
:1006D00060938C0170938D0180938E0190938F01B4
:1006E000D0CF0895CF93DF938BE00E940A11892B1E
:1006F000D9F3CAE0D0E083E10E94331182E10E9485
:10070000331184E10E94331163E270E080E090E0F5
:100710000E9428122197209771F768EC70E080E022
:1007200090E00E942812E0918A01F0918B0184816F
:10073000958190938F0180938E0110928D0110927C
:100740008C010E9406018BE00E940A11892BD9F3CB
:10075000E0918A01F0918B018481958190938F01C2
:1007600080938E0110928D0110928C01DF91CF91B8
:100770000C94410381EA91E00E94FA0A80E991E039
:100780000E94DD0310928F0110928E0110928D0154
:1007900010928C010E94B60690938B0180938A017F
:1007A000BC0184E291E00C94300980E991E00E9460
:1007B000010481EA91E00C94050CCF93DF93EC01E6
:1007C00001960E940C0C84E690E09B838A8388E764
:1007D00090E09D838C8380E590E09F838E838CE9FD
:1007E0009FEF998788871B861A8680E293E09D8712
:1007F0008C8786E193E09F878E871882DF91CF9167
:100800000895089501960E94360C0C9499090F934F
:100810001F93CF93DF93EC018881882341F00E94DE
:100820009C09DF91CF911F910F910C94A2098E0129
:100830000F5F1F4F6E817F81C8010E94720C688517
:100840007985C8010E94AE0C0E94B1098C859D85F6
:1008500097FD0196BC01759567956C5E7F4F882763
:1008600077FD8095982F0E942812CE010E940204E5
:100870006BE470E080E090E00E9428126E817F813E
:10088000C8010E94720C68857985C8010E94AE0C6F
:100890000E94B1098C859D8597FD0196BC017595D7
:1008A00067956C5E7F4F882777FD8095982F0E9413
:1008B0002812CE010E9402046AE070E080E090E01D
:1008C0000E9428120E94AE096C817D8162537109D9
:1008D000C8010E94AE0C6A817B8162537109C80114
:1008E0000E94720C6AE070E080E090E00E942812A2
:1008F000CE01DF91CF911F910F910C94020485E1FD
:100900000E9433118132934014F480E0089580E115
:100910000E94331181329340C4F381E10E9433116C
:1009200021E0813293400CF420E0822F0895CF9291
:10093000DF92EF92FF920F931F93CF93DF93EC011F
:1009400083E10E94331181399140ACF00E949F09EC
:100950000E94A209CE010E940704CE010E94070452
:10096000CE01DF91CF911F910F91FF90EF90DF901B
:10097000CF900C940704FE0111928F010E94AE09E2
:100980006C817D8162537109C8010E94AE0C6A813D
:100990007B8162537109C8010E94720C60E971E0A9
:1009A00080E090E00E942812CE010E947F04811115
:1009B00021C0EC80FD8085E10E943311E81AF90A1C
:1009C000CA80DB8080E10E943311B601681B790B7D
:1009D0008A859B85E816F9060CF47C01681779076F
:1009E0000CF4BC01C8010E94720CB701C8010E943E
:1009F000AE0CDACFCE01DF91CF911F910F91FF9016
:100A0000EF90DF90CF900C9402048F929F92AF9260
:100A1000BF92CF92DF92EF92FF920F931F93CF93EB
:100A2000DF93EC0183E10E94331184E10E943311D2
:100A30004C0182E10E9433116C016AE070E080E0B9
:100A400090E00E94281283E10E94331184E10E9409
:100A500033115C0182E10E9433117C016AE070E095
:100A600080E090E00E94281283E10E94331184E12B
:100A70000E9433118C0182E10E9433119C01A81461
:100A8000B9042CF4081519054CF4840107C08A1424
:100A90009B0424F40A151B050CF48501EC14FD04D9
:100AA0002CF42C153D054CF4960107C0CE14DF0440
:100AB00024F42E153F050CF49701293C31050CF464
:100AC00045C0093C11050CF441C0C901801B910BC4
:100AD0008997E4F1CE0101967C012017310764F477
:100AE0006E817F810E94720C68857985C7010E94A2
:100AF000AE0C0E94B1090BC0688579850E94720C0A
:100B00006E817F81C7010E94AE0C0E94B40968EC1F
:100B100070E080E090E00E942812CE010E94020462
:100B20000E949F096AE070E080E090E00E94281235
:100B3000DF91CF911F910F91FF90EF90DF90CF90B9
:100B4000BF90AF909F908F900C94A809DF91CF91A8
:100B50001F910F91FF90EF90DF90CF90BF90AF90DB
:100B60009F908F9008950F931F93CF93DF93EC0185
:100B70000E94050581E0FE0181938F0168857985DA
:100B8000CF010E94720C6E817F81C8010E94AE0C61
:100B90000E94B4098E859F8597FD0196BC017595CD
:100BA00067956C5E7F4F882777FD8095982F0E9410
:100BB0002812CE010E9402046BE470E080E090E015
:100BC0000E94281268857985C8010E94720C6E8186
:100BD0007F81C8010E94AE0C0E94B4098E859F855A
:100BE00097FD0196BC01759567956C5E7F4F8827D0
:100BF00077FD8095982F0E942812CE010E94020452
:100C00006AE070E080E090E00E942812CE01DF915F
:100C1000CF911F910F910C940505CF93DF93EC01B9
:100C20000E94B305CE01DF91CF910C94B3056130E2
:100C30007105A9F01CF4672B41F00895623071052D
:100C4000B9F063307105E9F008954230510521F1A2
:100C50004330510519F14130510511F51BC04230A7
:100C60005105E1F043305105B9F0452BC9F412C0EC
:100C70004130510589F04330510561F0452B81F435
:100C80000DC04130510551F04230510519F0452B4E
:100C900039F402C00C940D060C9407040C94B305AF
:100CA0000895AF92BF92CF92DF92EF92FF920F938F
:100CB0001F93CF93DF935C016A017B01E9018701F8
:100CC0002417350721F0A901B6010E941706C1308B
:100CD000D10589F034F42097A9F487010750110950
:100CE00011C0C230D10559F0C330D10559F4870184
:100CF0000150110907C08701095F1F4F03C0870119
:100D00000F5F1F4FC5010E949704BE01C801DF910C
:100D1000CF911F910F91FF90EF90DF90CF90BF90F8
:100D2000AF9008958DEB91E00C94FA0A8DEB91E071
:100D30000C94050C0895FC016130710571F01CF4F0
:100D4000672B41F008956230710551F063307105F1
:100D500051F0089581E08083089581E081830895B2
:100D600081E08283089581E083830895CF93DF93A8
:100D7000CDB7DEB72E970FB6F894DEBF0FBECDBF4E
:100D800060E083E00E949B1060E089E00E949B107D
:100D900083E00E940A118130910599F49C838B8332
:100DA00085E090E09A8789879C878B8784EB90E029
:100DB0009E878D8780E390E09E838D8389E090E01D
:100DC00014C082E090E09C838B8386E090E09A8759
:100DD00089879C878B8780EF90E09E878D8780E353
:100DE00090E09E838D8381E090E098878F8389E0F7
:100DF0000E940A11CE0101962E960FB6F894DEBF1E
:100E00000FBECDBFDF91CF910895AF92BF92CF9229
:100E1000DF92EF92FF920F931F93CF93DF93CDB7A3
:100E2000DEB72E970FB6F894DEBF0FBECDBFCB82D4
:100E3000DC822B813C812130310549F59C01215018
:100E400031092830310508F442C09C012E50310987
:100E500022303105E0F19C01255131092230310564
:100E6000B0F19C012C5131092230310580F19C01F7
:100E7000235231092230310550F19C012A523109A7
:100E80002630310520F121E0C19711F520C0223034
:100E90003105E1F487309105D1F08E309105B9F03C
:100EA00085319105A1F08C31910589F0833291054E
:100EB00071F09C012A5231092530310540F081330F
:100EC000910529F021E08F9719F401C002C020E0BC
:100ED000822F2E960FB6F894DEBF0FBECDBFDF91E6
:100EE000CF911F910F91FF90EF90DF90CF90BF9027
:100EF000AF9008952F923F924F925F926F927F92A0
:100F00008F929F92AF92BF92CF92DF92EF92FF9219
:100F10000F931F93CF93DF9300D000D01F92CDB7D4
:100F2000DEB72B013C01202E812E922E332E411153
:100F300075C181E04816510409F4BFC01CF445286E
:100F400061F06BC182E04816510409F45EC083E091
:100F50004816510409F409C160C12223A1F0AA8CEA
:100F6000BB8CCC8CDD8CEE8CFF8C08A119A12AA146
:100F70003BA14CA15DA16EA17FA1C30101960E947E
:100F80000507811153C12220A1F0AA8CBB8CCC8C07
:100F9000DD8CEE8CFF8C08A119A12AA13BA14CA1EC
:100FA0005DA16EA17FA1C30107970E940507811172
:100FB00037C13320A1F0AA8CBB8CCC8CDD8CEE8C9D
:100FC000FF8C08A119A12AA13BA14CA15DA16EA192
:100FD0007FA1C30101970E940507811123C18820C9
:100FE00051F1AA8CBB8CCC8CDD8CEE8CFF8C08A1D3
:100FF00019A12AA13BA14CA15DA16EA17FA1C301B2
:1010000007960E94050781110FC18820A1F0AA8CC4
:10101000BB8CCC8CDD8CEE8CFF8C08A119A12AA195
:101020003BA14CA15DA16EA17FA1C30107960E94C7
:1010300005078111F9C09920A1F0AA8CBB8CCC8C3A
:10104000DD8CEE8CFF8C08A119A12AA13BA14CA13B
:101050005DA16EA17FA1C30101960E9405078111C8
:10106000E5C02220A1F0AA8CBB8CCC8CDD8CEE8C50
:10107000FF8C08A119A12AA13BA14CA15DA16EA1E1
:101080007FA1C30107970E9405078111C9C03320C2
:1010900051F1AA8CBB8CCC8CDD8CEE8CFF8C08A122
:1010A00019A12AA13BA14CA15DA16EA17FA1C30101
:1010B00001970E9405078111B5C03320A1F0AA8CC9
:1010C000BB8CCC8CDD8CEE8CFF8C08A119A12AA1E5
:1010D0003BA14CA15DA16EA17FA1C30101970E941C
:1010E000050781119FC08820A1F0AA8CBB8CCC8CF5
:1010F000DD8CEE8CFF8C08A119A12AA13BA14CA18B
:101100005DA16EA17FA1C30107960E940507811111
:101110008BC09920A1F0AA8CBB8CCC8CDD8CEE8C82
:10112000FF8C08A119A12AA13BA14CA15DA16EA130
:101130007FA1C30101960E940507811177C022207B
:1011400051F1AA8CBB8CCC8CDD8CEE8CFF8C08A171
:1011500019A12AA13BA14CA15DA16EA17FA1C30150
:1011600007970E94050781115BC02220A1F0AA8C7D
:10117000BB8CCC8CDD8CEE8CFF8C08A119A12AA134
:101180003BA14CA15DA16EA17FA1C30107970E9465
:101190000507811145C03320A1F0AA8CBB8CCC8CF3
:1011A000DD8CEE8CFF8C08A119A12AA13BA14CA1DA
:1011B0005DA16EA17FA1C30101970E940507811166
:1011C00031C08820A1F0AA8CBB8CCC8CDD8CEE8C3D
:1011D000FF8C08A119A12AA13BA14CA15DA16EA180
:1011E0007FA1C30107960E94050781111DC09920A8
:1011F000A1F0AA8CBB8CCC8CDD8CEE8CFF8C08A172
:1012000019A12AA13BA14CA15DA16EA17FA1C3019F
:1012100001960E940507811109C00AC084E007C039
:1012200080E005C083E003C081E001C082E090E07F
:101230000F900F900F900F900F90DF91CF911F9113
:101240000F91FF90EF90DF90CF90BF90AF909F9065
:101250008F907F906F905F904F903F902F90089568
:10126000FC01EC59FF4F71836083FC0122E330E005
:101270004FEF5FEF41935193215031092115310513
:10128000C9F7DB011496ED91FC911597EE0FFF1F46
:10129000E80FF91F118210820895FB01EE0FFF1F66
:1012A000E80FF91F318320830895FB01EE0FFF1F24
:1012B000E80FF91F8081918108958C599F4FDC01BF
:1012C000ED91FC9181E0268137812617370709F0DF
:1012D00080E008958091D90181110BC040E855E26A
:1012E00060E070E08AED91E00E94290B81E080933C
:1012F000D90108958AED91E00C94FA0A8AED91E003
:101300000C94050CCF93DF931F92CDB7DEB7898382
:101310000E946A098981682F8AED91E00E94610A22
:101320006AE070E080E090E00F90DF91CF910C9444
:10133000281281E00C94820982E00C94820983E0F7
:101340000C94820984E00C94820985E00C94820953
:1013500086E00C94820987E00C94820988E00C9462
:10136000820989E00C9482098AE00C9482099091A8
:10137000F6018091F701981789F0E091F601F0E00D
:10138000E850FE4F80812091F60130E02F5F3F4F03
:101390002F7333272093F60190E008958FEF9FEF8E
:1013A00008958091F7012091F60190E0805C9F4FB5
:1013B000821B910960E470E00E942A1408958FB79F
:1013C000F8941092F7011092F6018FBF0895909152
:1013D000F6018091F701981751F0E091F601F0E0E5
:1013E000E850FE4F8081992787FD909508958FEFF3
:1013F0009FEF089520E001972FEF8F3F9207D9F7D5
:101400000895EF92FF920F931F93CF93DF93EC0118
:101410008B899C890E94FA0908E010E0EE24E3948D
:10142000F12C8D899E890E94FA09EE85FF858081C5
:101430009D85892311F0FE2803C08E2D8095F8220A
:10144000EE0C015011090115110559F78F89988D7E
:101450000E94FA098091F7012091F60190E001962F
:101460008F73992730E08217930779F0E091F701A5
:10147000F0E0E850FE4FF0828091F70190E0019695
:101480008F7399278093F70103C08B8D81608B8FB9
:10149000DF91CF911F910F91FF90EF900895DC01A4
:1014A0005196ED91FC91529750969C91611105C017
:1014B0002081892F8095822302C08081892B80839F
:1014C0000895DF92EF92FF920F931F93CF93DF93D4
:1014D000EC01D62E898D9A8D892B39F481E090E02C
:1014E0009B838A8380E090E036C0EFB6F894E98968
:1014F000FA8990818889809589238083898D9A8D46
:1015000005960E94FA0908E010E0FF24F3948F2D5D
:101510008D2129F061E0CE010E944F0A07C0E989C0
:10152000FA8990818889809589238083898D9A8D15
:101530000E94FA09FF0C015011090115110539F734
:1015400061E0CE010E944F0AEFBE898D9A8D0E9404
:10155000FA0981E090E0DF91CF911F910F91FF9008
:10156000EF90DF9008951F93CF93DF93EC01162F38
:1015700061E0812F0E949B1061E0812F0E94D410B6
:10158000812F90E0FC01E65CFE4FE491E88BFC01CA
:10159000E25BFE4FE491F0E0EE0FFF1FE459FE4FD7
:1015A000859194919A8B898BDF91CF911F910895AA
:1015B0001F93CF93DF93EC01162F60E0812F0E94E1
:1015C0009B101C87612F70E0FB01E65CFE4FE491ED
:1015D000ED87FB01E25BFE4FE491F0E0EE0FFF1FB1
:1015E000EE59FE4F859194919F878E87DF91CF9121
:1015F0001F910895CF93DF93EC011B821A8248EE6E
:1016000053E060E070E04C835D836E837F8388E00D
:1016100091E0998388831C8A1B8A1E8A1D8A188EF2
:101620001F8A1A8E198E8B8D8E7F8B8F64E08FE0D0
:1016300090E00E94C20FD0933B02C0933A026EE04A
:10164000CE010E94B30A6FE0CE01DF91CF910C94DE
:10165000D80A0F931F93CF93DF93DC015A961C9205
:101660001E92599758961C921E92579756961C9206
:101670001E925597CAE8D0E080E090E0FE01059107
:10168000159125913491041715072607370759F549
:101690004CE0489F9001499F300D1124F901E25719
:1016A000FF4F8591949154969C938E935397F90193
:1016B000E057FF4F8591949156969C938E93559742
:1016C000F901EE56FF4F8591949158969C938E9315
:1016D00057972C563F4FF901859194915A969C93B8
:1016E0008E9359970AC001962C968D30910509F07A
:1016F000C5CF54961C921E92539757968D919C91EC
:101700005897892B09F44DC01C968C911C978631F3
:10171000F0F520916800883050F091E08E3008F4A8
:1017200090E081E001C0880F9A95EAF701C084E05B
:10173000822B809368001C962C911C97283038F0DF
:101740002E3040F0263148F0E0E0F0E008C0EDE651
:10175000F0E005C0EBE6F0E002C0ECE6F0E030813E
:10176000283030F481E001C0880F2A95EAF70DC0D7
:10177000822F90E02E3010F4089701C00E9791E070
:1017800001C0990F8A95EAF7892F832B8083599698
:101790008D919C915A97DF91CF911F910F910C944D
:1017A000FA09DF91CF911F910F910895FC014485B3
:1017B000463150F5483028F04E3030F4EBE6F0E09A
:1017C00005C0EDE6F0E002C0ECE6F0E05081483004
:1017D00040F481E090E0042E01C0880F0A94EAF7FB
:1017E00010C0242F30E04E3018F42850310902C0C8
:1017F0002E50310981E090E0022E01C0880F0A943A
:10180000EAF7809585238083089528E031E0FC0184
:10181000318320830C94D60B61E087E00E949B10FB
:1018200061E088E00E949B1061E082E00E949B10D2
:1018300061E084E00C949B1061E082E00E94D4108F
:1018400061E084E00E94D41060E070E085E00C94D8
:10185000501161E087E00E94D41061E088E00E94AE
:10186000D41060E070E086E00C945011CF93DF93C9
:10187000EC010E941C0CCE01DF91CF910C94290C3D
:10188000CF93C62F61E082E00E94D41060E084E034
:101890000E94D4106C2F70E085E00E945011E091FE
:1018A0003802F0913902309711F081E08087CF91B2
:1018B0000895CF93C62F60E082E00E94D41061E0CB
:1018C00084E00E94D4106C2F70E085E00E945011DB
:1018D000E0913802F0913902309711F08FEF808754
:1018E000CF9108951616170614F40C94400C7195B8
:1018F000619571090C94590CCF93C62F61E087E074
:101900000E94D41060E088E00E94D4106C2F70E038
:1019100086E00E945011E0913802F0913902309730
:1019200011F081E08187CF910895CF93C62F60E0B9
:1019300087E00E94D41061E088E00E94D4106C2FF0
:1019400070E086E00E945011E0913802F091390277
:10195000309711F08FEF8187CF91089516161706F3
:1019600014F40C947C0C7195619571090C94950C90
:101970000F931F93FC0161157105B1F06130710582
:1019800029F50185112707FD1095212F312F44815D
:10199000558166817781400F511F621F731F4483F9
:1019A00055836683778312C00085112707FD109544
:1019B000212F312F4081518162817381400F511F4E
:1019C000621F731F40835183628373831F910F9142
:1019D0000895CF92DF92EF92FF92E82FF0E0DF01BF
:1019E000A45CBD4F8C918230F9F078F4813009F01D
:1019F00052C0EE0FFF1FEB5AFD4F0190F081E02D1A
:101A0000FF90EF90DF90CF900994833021F18430E4
:101A100009F041C080913A0290913B02FF90EF9013
:101A2000DF90CF900C94010AC0904D02D0904E02EE
:101A3000E0904F02F09050020E94051222E3C20E85
:101A4000D11CE11CF11CC616D706E806F90618F5EC
:101A500060E070E016C0C0905102D0905202E09059
:101A60005302F09054020E94051222E3C20ED11CD0
:101A7000E11CF11CC616D706E806F90660F461E021
:101A800070E08091380290913902FF90EF90DF90E2
:101A9000CF900C94B80CFF90EF90DF90CF9008950A
:101AA000CF93C82F8091020181FF02C0C1FF46C0C1
:101AB0008091020181FD2CC0C1FF2AC080914302A8
:101AC000823051F40E94051260934D0270934E02D1
:101AD00080934F029093500280914302833051F4DF
:101AE0000E94051260935102709352028093530238
:101AF0009093540280914302813051F40E94F91175
:101B00006093490270934A0280934B0290934C0277
:101B10008091020182FF16C0C2FD14C088E00E94BD
:101B2000E90C8091020183FF3EC0C3FD3CC089E007
:101B30000E94E90CC0930201CF91089587E00E94B2
:101B4000E90CE6CF8091020182FDEBCFC2FFE9CF25
:101B500080914402823051F40E94051260934D023C
:101B600070934E0280934F029093500280914402F2
:101B7000833051F40E940512609351027093520217
:101B8000809353029093540280914402813049F62D
:101B90000E94F9116093490270934A0280934B02AC
:101BA00090934C02BECF8091020182FDC3CFC2FF51
:101BB000C1CF80914502823051F40E94051260939A
:101BC0004D0270934E0280934F0290935002809189
:101BD0004502833051F40E940512609351027093C4
:101BE00052028093530290935402809145028130B7
:101BF00009F0A0CF0E94F9116093490270934A0244
:101C000080934B0290934C0295CF1F920F920FB688
:101C10000F9211242F933F934F935F936F937F9372
:101C20008F939F93AF93BF93EF93FF9393B1809163
:101C3000480289230E94500DFF91EF91BF91AF910F
:101C40009F918F917F916F915F914F913F912F91D4
:101C50000F900FBE0F901F901895CF93C82F8091B3
:101C6000010180FF02C0C0FF53C08091010180FDCF
:101C70001EC0C0FF1CC080913C02823051F40E9403
:101C8000F91160934D0270934E0280934F0290932E
:101C9000500280913C02833051F40E94F91160930C
:101CA0005102709352028093530290935402809198
:101CB000010181FF31C0C1FD2FC081E00E94E90C0C
:101CC0008091010182FF4CC0C2FD4AC082E00E94A7
:101CD000E90C8091010183FF67C0C3FD65C083E00B
:101CE0000E94E90C8091010184FF82C0C4FD80C084
:101CF00084E00E94E90C8091010185FF9DC0C5FD33
:101D00009BC085E00E94E90CC0930101CF9108952A
:101D100080E00E94E90CCBCF8091010181FDD0CF02
:101D2000C1FFCECF80913D02823051F40E94F91163
:101D300060934D0270934E0280934F029093500235
:101D400080913D02833009F0BBCF0E94F91160936E
:101D50005102709352028093530290935402B0CF79
:101D60008091010182FDB5CFC2FFB3CF80913E02C9
:101D7000823051F40E94F91160934D0270934E022B
:101D800080934F029093500280913E02833009F07D
:101D9000A0CF0E94F9116093510270935202809378
:101DA00053029093540295CF8091010183FD9ACF05
:101DB000C3FF98CF80913F02823051F40E94F91105
:101DC00060934D0270934E0280934F0290935002A5
:101DD00080913F02833009F085CF0E94F911609312
:101DE00051027093520280935302909354027ACF1F
:101DF0008091010184FD7FCFC4FF7DCF809140029F
:101E0000823051F40E94F91160934D0270934E029A
:101E100080934F029093500280914002833009F0EA
:101E20006ACF0E94F911609351027093520280931D
:101E30005302909354025FCF8091010185FD64CFDE
:101E4000C5FF62CF80914102823051F40E94F911A6
:101E500060934D0270934E0280934F029093500214
:101E600080914102833009F04FCF0E94F9116093B5
:101E7000510270935202809353029093540244CFC4
:101E80001F920F920FB60F9211242F933F934F93EF
:101E90005F936F937F938F939F93AF93BF93EF93D2
:101EA000FF9396B18091470289230E942D0EFF91E6
:101EB000EF91BF91AF919F918F917F916F915F91C2
:101EC0004F913F912F910F900FBE0F901F9018953B
:101ED000CF93C82F8091000183FF02C0C3FF26C0AB
:101EE0008091000183FD1EC0C3FF1CC0809142028F
:101EF000823051F40E94F91160934D0270934E02AA
:101F000080934F029093500280914202833051F4AB
:101F10000E94F91160935102709352028093530210
:101F200090935402C0930001CF91089586E00E94DF
:101F3000E90CF8CF1F920F920FB60F9211242F9336
:101F40003F934F935F936F937F938F939F93AF9341
:101F5000BF93EF93FF9399B18091460289230E942A
:101F6000680FFF91EF91BF91AF919F918F917F91FA
:101F70006F915F914F913F912F910F900FBE0F90F6
:101F80001F90189503978131910508F0AAC08C5CC9
:101F90009F4FFC010C943E1480916C0081608093F3
:101FA0006C008091680082608093680060933C02BE
:101FB0008091470281600FC080916C0082608093A5
:101FC0006C008091680082608093680060933D029D
:101FD00080914702826080934702089580916C004F
:101FE000846080936C0080916800826080936800B8
:101FF00060933E02809147028460EDCF80916C0037
:10200000886080936C008091680082608093680093
:1020100060933F02809147028860DDCF80916C0021
:10202000806180936C00809168008260809368007A
:1020300060934002809147028061CDCF80916C0017
:10204000806280936C008091680082608093680059
:1020500060934102809147028062BDCF80916D0004
:10206000886080936D008091680084608093680030
:1020700060934202809146028860809346020895F0
:1020800080916B00826080936B008091680081601A
:1020900080936800609343028091480282601FC071
:1020A00080916B00846080936B00809168008160F8
:1020B00080936800609344028091480284600FC05E
:1020C00080916B00886080936B00809168008160D4
:1020D00080936800609345028091480288608093F5
:1020E00048020895833081F028F4813099F08230DD
:1020F000A1F008958630A9F08730B9F08430D1F48A
:10210000809180008F7D03C0809180008F778093C5
:102110008000089584B58F7702C084B58F7D84BD1B
:1021200008958091B0008F7703C08091B0008F7DBB
:102130008093B0000895CF93DF9390E0FC01E65CBC
:10214000FE4F2491FC01E25BFE4F8491882349F10C
:1021500090E0880F991FFC01EA58FE4FA591B491B9
:1021600084599E4FFC01C591D4919FB7611108C05D
:10217000F8948C91209582238C93888182230AC0C5
:10218000623051F4F8948C91322F309583238C93E4
:102190008881822B888304C0F8948C91822B8C9345
:1021A0009FBFDF91CF9108950F931F93CF93DF933C
:1021B0001F92CDB7DEB7282F30E0F901EA5DFE4F60
:1021C0008491F901E65CFE4F1491F901E25BFE4F48
:1021D00004910023C9F0882321F069830E947210C2
:1021E0006981E02FF0E0EE0FFF1FE459FE4FA5914B
:1021F000B4919FB7F8948C91611103C0109581231D
:1022000001C0812B8C939FBF0F90DF91CF911F91C5
:102210000F910895CF93DF93282F30E0F901EA5D05
:10222000FE4F8491F901E65CFE4FD491F901E25B27
:10223000FE4FC491CC2391F081110E947210EC2FBB
:10224000F0E0EE0FFF1FEE59FE4FA591B4912C91D7
:102250002D2381E090E021F480E002C080E090E056
:10226000DF91CF9108958E3008F08E5087702091C5
:10227000030190E4299F90011124822B80937C001C
:1022800080917A00806480937A0080917A0086FD44
:10229000FCCF809178002091790090E0922B0895F6
:1022A0001F93CF93DF93182FEB0161E00E949B10E7
:1022B000209711F460E004C0CF3FD10539F461E00C
:1022C000812FDF91CF911F910C94D410E12FF0E07A
:1022D000EA5DFE4FE491E330F9F048F4E130B9F003
:1022E000E230A1F584B5806284BDC8BD34C0E6305B
:1022F000E9F0E73019F1E43049F58091800080621F
:1023000080938000D0938B00C0938A0024C084B552
:10231000806884BDC7BD1FC08091800080688093A5
:102320008000D0938900C093880015C08091B000D0
:1023300080688093B000C093B3000DC08091B0005E
:1023400080628093B000C093B40005C0C038D1054E
:102350000CF0B5CFAFCFDF91CF911F9108951F92B1
:102360000F920FB60F9211242F933F938F939F9349
:10237000AF93BF9380916A0290916B02A0916C021F
:10238000B0916D023091690223E0230F2D3720F4C4
:102390000196A11DB11D05C026E8230F0296A11DBF
:1023A000B11D2093690280936A0290936B02A093FF
:1023B0006C02B0936D0280916E0290916F02A091B9
:1023C0007002B09171020196A11DB11D80936E0241
:1023D00090936F02A0937002B0937102BF91AF917E
:1023E0009F918F913F912F910F900FBE0F901F9053
:1023F00018952FB7F89460916A0270916B028091E2
:102400006C0290916D022FBF08953FB7F8948091B0
:102410006E0290916F02A0917002B091710226B588
:10242000A89B05C02F3F19F00196A11DB11D3FBF0C
:102430006627782F892F9A2F620F711D811D911D9C
:1024400042E0660F771F881F991F4A95D1F70895BC
:10245000CF92DF92EF92FF92CF93DF936B017C01DB
:102460000E940512EB01C114D104E104F10479F0DA
:102470000E9405126C1B7D0B683E7340A0F381E047
:10248000C81AD108E108F108C851DC4FECCFDF9140
:10249000CF91FF90EF90DF90CF900895789484B51E
:1024A000826084BD84B5816084BD85B5826085BD50
:1024B00085B5816085BDEEE6F0E080818160808336
:1024C000E1E8F0E010828081826080838081816019
:1024D0008083E0E8F0E0808181608083E1EBF0E0E0
:1024E000808184608083E0EBF0E080818160808384
:1024F000EAE7F0E08081846080838081826080836D
:102500008081816080838081806880831092C10097
:102510000895FC0124853585F901E05CFF4F808139
:102520009181F901EE5BFF4F20813181821B930B7A
:102530008F7399270895FC0184859585FC01E05CE3
:10254000FF4F40815181FC01EE5BFF4F20813181C3
:102550004217530741F00190F081E02DE80FF91F79
:10256000808190E008958FEF9FEF0895FC018485AE
:102570009585FC01E05CFF4F40815181FC01EE5BE1
:10258000FF4F208131814217530779F0A081B1813B
:10259000A80FB91F8C91208131812F5F3F4F2F737E
:1025A00033273183208390E008958FEF9FEF0895C4
:1025B000FC0181A1882329F0A489B5898C9186FF2B
:1025C000FBCF11A20895CF93DF93FC0126853785B9
:1025D000D901A05CBF4F8D919C91119701968F738B
:1025E0009927E901CE5BDF4F488159818417950710
:1025F000D9F30D90BC91A02DA20FB31F6C93A685AB
:10260000B785A05CBF4F11969C938E93A689B7891E
:102610002C9181E090E0078C02C0880F991F0A94EA
:10262000E2F7282B2C9381E081A30488F589E02D23
:1026300080818064808381E090E0DF91CF91089574
:1026400008951F920F920FB60F9211242F933F936C
:102650004F938F939F93EF93FF938091C00082FDE0
:102660001CC04091C60080911803909119030196F7
:102670008F73992720911A0330911B0382179307B8
:1026800071F0E0911803F0911903E852FD4F408377
:10269000909319038093180302C08091C600FF91A4
:1026A000EF919F918F914F913F912F910F900FBE7E
:1026B0000F901F90189582E792E00E948912892B53
:1026C00011F00C94201308951F920F920FB60F92E1
:1026D00011242F933F938F939F93EF93FF93209118
:1026E000D4023091D5028091D6029091D70228175A
:1026F000390731F48091C1008F7D8093C10014C0EF
:10270000E091D602F091D702EC56FD4F20818091E6
:10271000D6029091D70201968F7399279093D70292
:102720008093D6022093C600FF91EF919F918F91E5
:102730003F912F910F900FBE0F901F901895109200
:1027400075021092740288EE93E0A0E0B0E08093EE
:10275000760290937702A0937802B093790288E191
:1027600091E0909373028093720288ED92E09093CF
:102770007F0280937E0284E992E0909381028093AD
:10278000800285EC90E0909383028093820284EC37
:1027900090E0909385028093840280EC90E0909387
:1027A00087028093860281EC90E090938902809367
:1027B000880282EC90E090938B0280938A0286ECF0
:1027C00090E090938D0280938C0284E080938E023F
:1027D00083E080938F0287E08093900285E080936E
:1027E000910281E08093920208950E944E120E940D
:1027F000F100CBE5D3E10E9472032097E1F30E9440
:102800005B13F9CFCF92DF92EF92FF920F931F935A
:10281000CF93DF936C017A01EB01E60EF71E00E027
:1028200010E0CE15DF0561F06991D601ED91FC91C4
:102830000190F081E02DC6010995080F191FF1CF15
:10284000C801DF91CF911F910F91FF90EF90DF9022
:10285000CF90089597FB072E16F4009407D077FDCC
:1028600009D00E94441407FC05D03EF49095819550
:102870009F4F0895709561957F4F0895EE0FFF1F4C
:102880000590F491E02D0994AA1BBB1B51E107C0F0
:10289000AA1FBB1FA617B70710F0A61BB70B881FF0
:1028A000991F5A95A9F780959095BC01CD0108957F
:1028B00011E0C8E8D1E004C0FE010E944014229655
:0A28C000CE38D107C9F7F894FFCF16
:1028CA00083F0E0100000000610A0214D109B7098D
:1028DA00E709DF0900000000E31202148912B612A8
:0428EA009B12D81253
:00000001FF
